S02B00002F686F6D652F726F6D61736B752F6D696E652F736D617274686F6D652F74656C696E6B5F7A69676233
S11300000810002049010000CF3E00001B29000019
S1130010CF3E0000CF3E0000CF3E0000CF3E0000A8
S1130020CF3E0000CF3E0000AC490000CF3E0000B0
S1130030CF3E00005C490000CF3E0000CF3E0000F0
S1130040CF3E0000CF3E0000CF3E0000CF3E000078
S1130050CF3E0000CF3E0000CF3E0000CF3E000068
S1130060CF3E0000CF3E0000CF3E0000CF3E000058
S1130070CF3E0000CF3E0000CF3E0000CF3E000048
S1130080CF3E0000CF3E0000CF3E0000CF3E000038
S1130090CF3E0000CF3E0000CF3E0000CF3E000028
S11300A0CF3E0000CF3E0000CF3E0000CF3E000018
S11300B0CF3E0000CF3E0000CF3E0000CF3E000008
S11300C0CF3E0000CF3E0000CF3E0000CF3E0000F8
S11300D0CF3E0000CF3E0000CF3E0000CF3E0000E8
S11300E0CF3E0000CF3E0000CF3E0000CF3E0000D8
S11300F0CF3E0000CF3E0000CF3E0000CF3E0000C8
S1130100CF3E0000CF3E0000CF3E0000CF3E0000B7
S1130110CF3E0000CF3E0000CF3E0000CF3E0000A7
S1130120CF3E0000CF3E0000CF3E0000CF3E000097
S1130130CF3E0000CF3E0000CF3E0000CF3E000087
S1130140013800D0FCE7704708B50B4B83F30A88ED
S11301500A4B07A1D1E90001C3E9000101F0FCFD4C
S113016000F0DCF901F0D8FD01F0E8FD00F080F9C1
S1130170A5EDF5FEA5EDF5FE080000200810002011
S113018010B5054C237833B9044B13B10448AFF3CD
S113019000800123237010BDA45D00200000000036
S11301A0844C000008B5034B1BB103490348AFF36B
S11301B0008008BD0000000010100020844C0000E6
S11301C070B588B0064602F02CFA20220021684659
S11301D004F0B6FA02F0D8F918280AD13446094DC9
S11301E00FCD0FC495E80F0084E80F00304608B027
S11301F070BD35466C460FCC0FC594E80F0085E8FA
S11302000F00F3E72849000070B5154606460C4672
S113021002F007FA9DB902F0B7F9431EDBB2172BBF
S11302208EBF00230A4A52F823309C420ED89E42C5
S11302300CD8A01998428CBF0020012070BD2878EA
S11302400028EAD102F0A0F92870E6E70020F5E7DB
S1130250B8480000F0B5421ED11C034685B018D83A
S11302606E460D4C04F11007354620686168083469
S113027003C5BC422E46F7D104A90F3311F8014D32
S113028012F8010F844204D19A42F7D1012005B03B
S1130290F0BD0020FBE700BF484900002DE9F04114
S11302A00368044603F16043B3F5004F4FF00006C2
S11302B09CB061D8B26A436817699F425CD8B3F5B1
S11302C0002F59D8456B07F14003AB4256D8B5F51A
S11302D0002F53D82846FFF7BDFF00284ED02846EC
S11302E002F0ECFAA0B1D5F81480B8F1000F0FD0E9
S11302F0B8F1020F0FD1AB69C4F1040119444FF0F6
S1130300FF32204601F0DCF81D4BC31A5842584115
S11303101CB0BDE8F081766B3046FFF79BFF0028E8
S1130320F6D0A7F150039E4226D8B8F1010F23D18D
S1130330AD69AF4220D8AC421ED8B5F5002F1BD80A
S113034002A801F079F921462A1B02A803F09AFCBD
S113035002A803F099FC01F083F9044601F084F942
S113036023460090294605F1200202A801F0EAF88C
S1130370B0FA80F04009CBE70020C9E70120C7E7C5
S1130380E320BBDE70B54FF0FF328AB005460C4661
S113039001F096F8114B98421CD140F2022000F073
S11303A031F90F4E2022002102A804F0C9F9294690
S11303B001A8019604F063FA211F01A804F05FFA72
S11303C003F0C6FDB04202D101A803F0CDFD01A89F
S11303D004F0CCF900200AB070BD00BFE320BBDEFE
S11303E00100064310B504468AB040F2022000F032
S11303F009F92022002102A804F0A2F9054B2146A4
S113040001A8019304F03BFA01A804F0AFF900201D
S11304100AB010BD0000034337B50C460546E0B1F1
S1130420D9B100230B60114B036002F08AF901304B
S113043018BF2B6801A81CBF43F440432B604FF046
S1130440FF33019302F080F9019B43B92B68034306
S11304502B60236843F48043236003B030BD012B39
S113046002BF236803432360F3E700BF1424004062
S113047010B501F0A1FD01280DD1254B04205A6EC1
S11304804FF4802323494B6601F510410862500361
S11304905CBF214A53664FF04023D3F884201106F1
S11304A006D44FF400621A67D3F88420D206FBD432
S11304B002F025FA00F098F808B900F07DF803F08E
S11304C088FC044658B900F08FF808B100F084F8AD
S11304D040F2012000F0C0F84FF4017013E000F086
S11304E083F808B900F070F800F098F8012802D9F0
S11304F000F062F8FEE700F09DF840F205439C42EC
S1130500EAD140F2032000F0A7F8002010BD00BF9C
S1130510008000400090004000A00040012307B587
S11305208DF806308DF807304FF04023D3F894301F
S11305305A060FD500F0A4F8A0F2022080B20728D2
S113054008D8C923C340DB0742BF00238DF8063017
S11305508DF807304FF4C0435B68013308D14FF482
S1130560027000F04FF800238DF806308DF8073044
S11305709DF8073063B14FF4C040FFF78FFE8DF84C
S113058006009DF806301BB94FF4027000F03AF8EB
S11305909DF8063053B100F027F808B100F01CF8BC
S11305A04FF4C040034B986002F0ADF903B05DF81E
S11305B004FB00BF00ED00E04CF23C32014B5A80DA
S11305C0704700BF000000204AF6C032014B5A8039
S11305D0704700BF000000204FF20F02014B5A8009
S11305E0704700BF000000204AF6C030044B5B880F
S11305F023F00F039BB21B1A58425841704700BFA7
S113060000000020044A08B51080FFF7EDFF10B980
S11306104FF20F03538008BD0000002008B5FFF718
S1130620E3FF18B1024B588800F00F0008BD00BF6B
S11306300000002008B5FFF7D7FF48B1054A5388EA
S113064003F00F010F2914BF013323F00F0353806C
S113065008BD00BF0000002008B5FFF7D3FFBFF3BB
S11306604F8F0549054BCA6802F4E0621343CB601F
S1130670BFF34F8F00BFFDE700ED00E00400FA0573
S11306804FF20F01084B5A888A4201D118887047EB
S11306903AB91B8840F20220012B18BF4FF40070B6
S11306A070474FF400707047000000204FF4003290
S11306B008B5044B9A6601F0E1FBB0FA80F04009FA
S11306C008BD00BF00900040072BF8B506460F4652
S11306D014461D4601D90020F8BD0121202001F057
S11306E049FB0121212001F045FB8CB144EA0603BA
S11306F09B07F0D14FF40032064B31469A662846E8
S113070023463A4601F0E4FBB0FA80F04009E3E7FF
S11307100120E1E70090004010B5044600F0D4F851
S1130720074BB0FBF3F304FB03F0022806D9BDE842
S113073010400323B0FBF3F0FFF702BD10BD00BF70
S113074040420F004FF08062024B5A664FF48072B1
S11307505A6670470090004010B5FFF7F3FF00237E
S113076004221946022001F01FFB02220023104636
S1130770012101F019FB022100230846042201F0A3
S113078013FB012304220321022001F00DFB0122AB
S1130790174C04F580535A6040F6AA636361002342
S11307A0144A2361E36404F500539A6440F201435C
S11307B0A36041F20503E36000F086F80E4B0138B4
S11307C0B0FBF3F0102302220002E06163610B4BE3
S11307D0C3F8342602F58032C3F82C264FF00212F7
S11307E0C3F830261C22C3F81C260523636110BD00
S11307F000C00540FFFF01000050C30000C00340DB
S113080008B50146FFF79EFFBDE80840014803F024
S113081074BB00BF00C0054010B50446C0F30741D7
S11308200C48FFF78FFF03F072FBC4F3072109485C
S113083003F06DFBE1B2074803F069FB054803F0E0
S113084056FB044803F053FBBDE81040014803F095
S11308504EBB00BF00C0054008B5FFF773FFBDE8FD
S11308600840FF21014803F048BB00BF00C0054019
S113087010B5FF210948FFF765FF03F048FBFF218E
S1130880064803F044FB054803F031FB0402034827
S113089003F02DFBA4B2204380B210BD00C005407C
S11308A008B5FFF74FFF0822014B1A6708BD00BFC8
S11308B000E0034008B5FFF745FF0822014B1A6723
S11308C008BD00BF00D0034030B51C4B87B001AA5F
S11308D003F11005144618685968083303C4AB4281
S11308E02246F7D11B782370154B1B6F03F00703C7
S11308F0032B1FD04FF48022124B5A66124A93687E
S1130900C3F30443102B17D818336B440F4913F85F
S1130910143C4B430E498B4203D19268C2F30162EB
S1130920D340074A106FC0F303300130B3FBF0F03B
S113093007B030BD074BF4E7074BF2E7F44900007A
S113094000800040009000400000014040420F0041
S113095000093D0000F04902C0EA21010A4B186871
S113096030B9B1F5205F0DD8012208481A607047EC
S1130970012806D1B1F5005F03D8022204481A60A9
S113098070470020704700BF28100020A4350020C5
S1130990A415002031B1044A1368002BC4BF03F12D
S11309A0FF331360704700BF2810002002232DE995
S11309B0F04F8846164600278BB0DFF8C490DFF866
S11309C0C4A005908DF81F309DF81F20022A07D07F
S11309D0002E48D041F20231012A18BF0F4642E0EE
S11309E0D9F80010234DC1F540730893DAF80030AC
S11309F0214809930DF11F0302930023019309ABCE
S1130A00009308AA1D4B294402F08CFF48BB9DF8B3
S1130A101F3063B3089BD9F8004029461C4424F0D6
S1130A20030B43465A46059803F0CBF814F003042D
S1130A30074605D02246284605EB0B0103F067FE66
S1130A40DAF800200999C9F800408A42A2EB0104AF
S1130A5004D90A482246014403F059FECAF800406A
S1130A60B2E741F2033738460BB0BDE8F08F41F2EC
S1130A700237F8E7A01000202C100020A413002057
S1130A809C100020A013002008B570220021064805
S1130A9003F056FE01220020044B1A70044B186028
S1130AA0044B186008BD00BF2C100020A55D002079
S1130AB09C100020A01300202DE9F0479A465B68A3
S1130AC0074688461446002B36D0204B1E78A6B124
S1130AD000221A7051F8043B052203661C4B1D4882
S1130AE000F076F858BB1B4802F010FED7F88C6073
S1130AF0194B9E4214BF11261926DFF86490A41BDB
S1130B00D9F80050C5F50073A3420BD20022514618
S1130B103846FFF74BFF80B9D9F80050C5F500738C
S1130B20A3420FD30D48224608EB060128442C4467
S1130B3003F00EFEC9F800400020BDE8F08741F242
S1130B400530FAE741F20430F7E700BFA55D002065
S1130B50A85D00202C100020F80C0CF8A413002031
S1130B60A0130020436D3BB9D0F88C00034B98428E
S1130B7014BF11201920704701207047F80C0CF89D
S1130B8038B54B6805460C46ABB10122FFF70EFFA2
S1130B9090B90B4B1A6852B1FF210A4B032A0CD9A6
S1130BA0234604222846074903F00BF820B90649D6
S1130BB0064802F034FF002038BD99540132EDE7B5
S1130BC09C100020A0100020A85D00202C10002004
S1130BD02DE9FF41044668461D46E84602F02BFF16
S1130BE0002838D12A466946204602F0F7FE074617
S1130BF020BB039AB2F1804F25D240F6FF73174908
S1130C00B2F5800F28BF0B469E1826EA03066169D9
S1130C10964238BF164611B1A36AB34215D028468E
S1130C206B68984700233146636128462B689847D0
S1130C30606150B92946204602F0C7FE02273846B3
S1130C4004B0BDE8F081064BDEE798E80F00A66229
S1130C5084E80F00F3E70427F1E700BFFFFF0F006C
S1130C60FFFF3F000068024BC31A584258417047C7
S1130C70FD0707FD034B044A90420CBF18460020B1
S1130C80704700BF084A0000FD0707FD30B5024663
S1130C9000230C25054905FB03F460180C59944204
S1130CA003D001330D2BF6D1002030BD1C4A0000C7
S1130CB0F0B50023082787B0CDE9013315463B463C
S1130CC0009704AA044602F0F8FE41F20303984296
S1130CD0064623D194F8433053B13A46E06C04A954
S1130CE002F0D0FF04AA3B461146A06C02F0B9FF03
S1130CF0059A049B6A6094F843202B6052B9094A10
S1130D00934207D0084A934204D00822E06C04A915
S1130D1002F0B8FF6B68236500236365304607B0B3
S1130D20F0BD00BFF70A0AF7FC0404FC2DE9F0410A
S1130D3000254FF0FF3704468846164603F020038B
S1130D4080F842301822FF21C0E91855A0F840501D
S1130D5080F84350A0F8445080F84650C0F888709A
S1130D60683003F0EDFC88222946C4E91286C4F8F1
S1130D708070C4F8847004F1900003F0E1FC074B28
S1130D80C4F82071C4E9463584F8245116B13046BC
S1130D9000F052FC0020BDE8F08100BF0001010119
S1130DA02DE9F04F9DB09B46CDE90923002304466D
S1130DB00E464FF00109269D0B930B9A5A4501D319
S1130DC0002022E194F84630142BF7D8DFE813F022
S1130DD0B700FC00F600910078006C01C6017800B1
S1130DE0BE01780037007800BE01030373031500C9
S1130DF06201B802B802470271030027636D0F2B2A
S1130E0000F2E080102320460093CDE901974023AF
S1130E100CAA09A902F051FE41F20303984240F0E2
S1130E20A280D4F8488000F023FC80230221CDE97D
S1130E3000030DAA0123404600F05AFBDEE7DFF869
S1130E40C0A3636D072B00F23B8138234FF00808E1
S1130E500DEB03022046CDE90199CDF8008009A9E4
S1130E6002F02BFE41F2030398427CD1337843F025
S1130E70040333700F9BB36273785B071CD50020A7
S1130E80236DCDF830A0C4F8843094F84530606602
S1130E9043F0020384F84530EF686FB104222B68F5
S1130EA00CA9B847606E2B684246EF680EA940440F
S1130EB0B847636E103363660B2384F84630C0E78B
S1130EC04FF0FF08D4E914739F427BD9FF1ADDE980
S1130ED00A329B1A94F84020032F134440F24281B3
S1130EE0032B00F24281204609A902F0C6FD00202E
S1130EF039E00127636D072B00F2E28008232046C6
S1130F000093CDE9017740230CAA09A902F0D5FD8D
S1130F1041F20303984226D133780D9A43F0020339
S1130F2033700C9B7360236D083B7362002A00F0DE
S1130F30EE80142384F8463041F2010013E0204689
S1130F400CAA09A9FFF7B4FE41F2030398420AD19F
S1130F500D9B0C9A236500236365A74B9A42E8D145
S1130F60022384F8463041F203030790079A9A4219
S1130F703FF423AF48E0082320460093CDE90197CE
S1130F8040230CAA09A902F098FD41F203039842F8
S1130F90E9D10C9B03F07F43B3F1407F05D01423C8
S1130FA041F2090084F84630DDE70D9BD90706D5E8
S1130FB094F8423043F0010384F842300027636D13
S1130FC0072BD8D90123C6E020460CAA09A9FFF7AC
S1130FD06FFE41F203039842804609D10C98FFF753
S1130FE055FE0746A0B9142341F2080884F8463098
S1130FF041F20303CDF81C80079A9A423FF4DDAE18
S1131000079B0BB10023F37007981DB0BDE8F08F68
S1131010437994F824219A4205D9142341F20E0805
S113102084F84630E4E70168744A914205D00289A5
S1131030D20748BF013384F8243194F84230D807EA
S11310400DD53A8994F84330910706D53BB1142362
S113105084F8463041F20108CAE7002BF7D00CA807
S1131060FFF700FE18B93B7984F84630C0E70C98C6
S1131070C4F88C00FFF7FEFD94F842309A06F2D5CE
S11310800028F0D04368002BEDD020469847002874
S1131090E9D0DFE7226D0123A265002284F8433002
S11310A0E26584F8463088E6402200210CA803F06B
S11310B047FB0127D4E91432934204D884F84670DC
S11310C041F203004FE7009320464023CDE9017726
S11310D00CAA09A902F0F1FC41F2030398427FF43F
S11310E042AF0DF1300C06F108030DF1480E6246D3
S11310F003CA724518605960944603F10803F6D197
S113110010681860337843F001033370D2E7042386
S113111084F8463094F84530626643F0010384F85D
S11311204530E7E6042320460093CDE901774023C8
S11311300CAA09A902F0C1FC41F2030398427FF40E
S113114012AF236D042B02D90C9B23660127636D18
S1131150032BE7D9092384F84630B1E700236366FB
S113116007239EE79F423FF6BEAE402F28BF40278D
S11311709F4228BF1F46032F88BF27F00307402341
S11311802046CDE9019900970CAA09A902F095FC23
S113119041F2030398427FF4E6AE94F84620072A0E
S11311A028D1D5F808A0BAF1000F23D02B683A460D
S11311B0606E0CA9D047636E3B44636682E60CA95B
S11311C001F803800133032BF9D9042FC7F1040A72
S11311D088BF4FF0000A092ABA4413D12B4652465D
S11311E020460CA902F0EDFC00283FF46BAE41F25E
S11311F00200B8E63B46E6E7EB17A603F90707F952
S1131200EB17A65E042A1FD173789F077FF55AAEA9
S1131210EB68002B3FF456AE626E042A0BD80AEB3F
S11312200203062B07D90DAB9B1A1A68C4F8842055
S11312304FF0FF321A60EF682B685246606E0CA9BB
S1131240B847636E5344B8E70B2A7FF43BAE737818
S113125058077FF537AEEF68002FEDD132E694F8EA
S1131260427017F0200769D0D4F88C00FFF702FD14
S1131270059000283FF460AE4FF0010A42E0002BD5
S11312805AD0059B002B57D01B69002B54D0204605
S11312909847DDE90A329B1A94F8402013448342AC
S11312A0FFF421AED4E91421A2EB0108B8F1400FF8
S11312B028BF4FF04008984528BF98462046402351
S11312C0CDE901AACDF800800CAA09A902F0F5FB2A
S11312D041F2030398427FF446AE94F842309906F3
S11312E010D5059B002B3FF427AE9B681F46002BAF
S11312F03FF422AE2B46424620460CA9B8470028AC
S11313007FF431AED4E9142194F84230914203F0D1
S11313102003B4D3002B3FF455AE059B002B3FF4C0
S113132051AEDB68002B3FF44DAE2946204698476A
S113133000283FF447AE16E60120AAE705979BE78D
S113134000218A6A496B1269503A91423FF6F4AD22
S1131350112B0AD194F81831002B7FF433AE1423E7
S113136041F2060084F84630FDE594F84430002B41
S11313707FF428AECDE901334023204600930CAA24
S113138009A902F09AFB41F2030398427FF4EBAD02
S1131390E06C02F079FC94F81831D4F84C806BB10D
S11313A004F1B403009304F19403404614AA0CA975
S11313B000F0C8F850B10023F370D0E700F050F902
S11313C0074600F051F93B460090EEE70123F37025
S11313D084F84430F6E500234FF00408CDE90133E6
S11313E020464023CDF800800CAA09A902F065FB31
S11313F041F20303984209D1D4F888202F4B9A4232
S113140006D0142341F2050084F846300790FBE52A
S11314100123F37094F84530DA0707D5EF682FB14C
S1131420424640462B6804F18401B84794F845309D
S11314309B0707D5EF682FB104222B68104604F1EF
S11314408401B847236E6BB36F685FB34FF0FF330B
S113145004F180080422414608A8089303F047F9E0
S113146028B10422414648F204002B68B84704F12D
S113147068090422494608A803F039F990B1002309
S11314809B6A1422D3F8108004F16C0108F108005F
S1131490D5E90037B847D5E900370422494608EBB7
S11314A00200B8470123B3700E23002084F84630AD
S11314B0ACE70023F37041F20700A6E5E320BBDEAE
S11314C030B50824094B00255C66012403F5FE238E
S11314D05C6001449D601A61DC60884201D1586AF5
S11314E030BD10F8012B1A62F7E700BF00900040EE
S11314F0F8B516464FF400521D46114B04469A6641
S11315000222C3F860220F4602F06AFDDDE90612EA
S1131510204602F069FD002384F838706362336862
S1131520C4F839307368C4F83D30B368C4F8413046
S11315302B0C6DBA84F84530A4F84650F8BD00BFB2
S1131540009000402DE9F041B0B014460D461A4613
S11315500646369B002867D0002965D0002C63D04E
S1131560002A61D0002B5FD006214FF40050069171
S11315702F4920AF88660320C1F860020021BE46CF
S113158009910C910F9105F12008F44628686968C7
S11315900835ACE803004545E646F6D10DF1A00C4C
S11315A004F1200E654620686168083403C574455B
S11315B0AC46F7D10DF1400C654602F1200E2C46E5
S11315C010685168083203C472452546F7D118AC37
S11315D003F12005224618685968083303C2AB4258
S11315E01446F7D14023CDE90A73089320230AAAAD
S11315F00E9303AB07CACDF81CC00D9683E8070011
S113160007AB93E807008DE807000DAB0ECB094844
S113161002F0AAFF0690069B40F20460002B08BF6C
S1131620002030B0BDE8F08140F20160F9E700BF6E
S113163000900040A04B00004FF40052074B10B53F
S11316409A6602220446C3F8602202F020FB204678
S1131650BDE81040002102F01EBB00BF0090004016
S1131660004870474CE30700004870476CE30700EC
S11316700048704786E207002DE9F3471446DDE988
S11316800A920D461F4600284CD1002C41D0136805
S11316903F2B42D85168002941D02549002F14BF5F
S11316A0B846884603F03F061B19136022BF5368EF
S11316B001335360C6B3C6F1400A544523D32946C7
S11316C0524609EB060003F043F801232644009335
S11316D04A463B4641460020A6F1400402F0F7FA90
S11316E03F2C55440DD9B846A3092A4600934146D8
S11316F03B46002002F0EBFA24F03F031D4404F0C3
S11317003F0434B100262246294609EB060003F0C3
S11317101FF8002002B0BDE8F087B846C2E7DFF842
S11317201080BFE70348F5E73F2CDDD8EBE700BFA7
S1131730F84A000080AFFFFF2DE9F0411746146816
S113174086B01E46E3008DF80F3063098DF80E3025
S1131750630B8DF80D30630D8DF80C30536805461E
S1131760DA0002EB54728DF80B2004F03F045A099E
S1131770372C8DF80A204FEA53324FEA53538DF831
S11317800920884694BFC4F13802C4F17802CDE937
S113179000178DF808300D4903460020FFF76CFF51
S11317A008222B460020CDE900870DEB0201FFF74C
S11317B063FF284605F1200350F8042B984246F8AD
S11317C0042BF9D1002006B0BDE8F081B84A00002E
S11317D02DE9F041A2B0502204460D460EA8002186
S11317E002F0AEFF3422002101A802F0A9FF01A8F3
S11317F000F010FA049B012B0ED800234FF0FF32A7
S113180023600123AB4203D3002022B0BDE8F08162
S113181044F823200133F5E7AB426DD302F0D6FA46
S1131820059B0C220EA90646DF6800F013FF002872
S1131830EBD1DFF8D0800E9B434516D1109A0EA948
S1131840304600F007FF4FF0FF3210990EA8FFF763
S113185037FE2B4B984236D04FF0FF3304EB85050F
S1131860AC422DD140F20650CFE737440C22384623
S11318700EA900F0EFFE0028C7D10E9B43450BD004
S11318804FF0FF3304EB8505AC4202D140F2055022
S1131890BBE744F8043BF7E70EA93846109A00F07A
S11318A0D9FE059B3046D96800F050FF0028ACD122
S11318B03046109A0EA900F0EFFE0028BED0A4E72F
S11318C044F8043BCCE7109B2246103B9B08AB42F8
S11318D028BF2B4610A904EB8300824207D14FF0A6
S11318E0FF32AB4290D244F823200133F9E751F898
S11318F0046F42F8046BF0E740F2045085E700BF40
S1131900E320BBDE39528FE14422F0B5A3B00C468C
S1131910064600210DEB020002F012FF0123304ABB
S11319200021CDE90E235023342201A8109302F0A4
S113193007FF01A800F06EF9049BA3424CD3012BCE
S113194008D8336840F204500133012B98BF0020BB
S113195023B0F0BD02F03AFA059B102C214628BFB3
S11319601021DF6833460546074410AA06EB8100C0
S1131970834227D14FF0FF330EAC102927D14C21DD
S11319804FF0FF322046FFF79BFDC043059B21909B
S1131990D968384600F0DAFE0028D9D15022214611
S11319A0384600F079FE0028D2D1059B2846D96834
S11319B000F0CCFE0028CBD150222146284600F06E
S11319C06BFEC5E753F8044B42F8044FD0E704EB31
S11319D08102D3600131D0E740F20450B8E700BF80
S11319E039528FE170B5ADF50E7D09AC4FF4057237
S11319F02146002002F038FA40F201250021204659
S1131A0002F009FAA842F9D040F20323984227D100
S1131A10237859070DD423789A0733D4DB071FD5CD
S1131A200022E168D4F8040200F058F9C0B10020A3
S1131A3018E0A06A00F050FF0028ECD002F088FA09
S1131A40194B0546984210D12022002101A802F02A
S1131A5077FE6846009502F087FAB0F5403F04D15E
S1131A6040F205400DF50E7D70BDD4F8040200F07F
S1131A70F3F80028CFD04FF40040FEF7B3FC002861
S1131A80C9D1EDE70022926A616892689142C5D992
S1131A90D4F8040200F0FEF80028E1D0616A4FF4A3
S1131AA00040FEF76FFCDBE70000034331B10A4B53
S1131AB05A68824205D80023C1E9003340F201404C
S1131AC07047013053F8302003EBC0035B680020FB
S1131AD00A604B60704700BF1849000070B40C46A0
S1131AE011461A460D4B5D68854210D9013003EB4F
S1131AF0C0056D68A618AE420DD8A5420BD3954219
S1131B0009D353F83000204470BC00F0A3BD40F268
S1131B10014070BC704740F20240FAE718490000E7
S1131B2070B50D46002186B00DF1070302931E4BDC
S1131B3004461646116028461C22CDE903338DF86D
S1131B400710059302F0FCFD9DF8072052B994F8A4
S1131B507230132B06D0D4F810321BB9D4E9823179
S1131B60994219D32378990744BF61683160DB0730
S1131B7009D504F1080304F1240153F8040B8B4242
S1131B8045F8040BF9D162B9237840F20640002BE2
S1131B9018BF002006B070BD204602A902F01EF94D
S1131BA0D2E70020F6E700BFD73D000070B40C4632
S1131BB011461A460D4B5D68854210D9013003EB7E
S1131BC0C0056D68A618AE420DD8A5420BD3954248
S1131BD009D353F83000204470BC00F05DBD40F2DE
S1131BE0014070BC704740F20240FAE71849000017
S1131BF0074B5A68824207D9013003EBC00251688F
S1131C0053F8300000F0A2BD40F20140704700BF1D
S1131C101849000070B5054688B0C0B14FF4403291
S1131C2000236C46C0E900230A4B05F114061A7818
S1131C305B680272C3606846FEF7C2FA0FCC0FC637
S1131C4094E80F0086E80F0005F114032B6108B037
S1131C5070BD00BF1849000000B5ADF50B7D4FF411
S1131C60057205A902F000F980B904230DEB030104
S1131C708DF81530064BC1E90000886005A8CB60DB
S1131C8002F009F90DF50B7D5DF804FB0020F9E77E
S1131C9083280000002300B59B6AADF50B7D9B688B
S1131CA08B4204D300200DF50B7D5DF804FB4FF44B
S1131CB0057205A902F0D8F80028F3D1022301A97E
S1131CC08DF81530044BC1E90000886005A8CB608D
S1131CD002F0E1F8E7E700BF8328000010B5ADF596
S1131CE00A7D05AC4FF40572214602F0BDF870B9C7
S1131CF001238DF81530074B01A9C1E90130C860F3
S1131D0020460C6002F0C7F80DF50A7D10BD0020D6
S1131D10FAE700BF63280000054B064A06498B42D8
S1131D2000D3704752F8040B43F8040BF7E700BFE5
S1131D30A85D0020904C0000B85D00200021044BF9
S1131D40044A934200D3704743F8041BF9E700BFE9
S1131D5010100020A85D0020044B054A9A60D3F8B7
S1131D60882042F47002C3F88820704700ED00E038
S1131D70000000005F2898BF094B4FEA501294BF3F
S1131D8053F82230074B00F01F0029B103F58053AC
S1131D90012282401A60704703F50053F8E700BF40
S1131DA05C4B000060820040F8B504460D461F46B7
S1131DB016464AB101238B403021184A01FB002208
S1131DC0EFB141F2100153503023072D4FF00F01B2
S1131DD004FB03F316D8A80006FA00F28140104869
S1131DE0184402F075F84EB9012330210B4AAB4078
S1131DF001FB042277B141F210015350F8BD42F2C5
S1131E001001E0E7A5F10800800006FA00F2814025
S1131E100448E5E742F21001EFE700BF00C00340C9
S1131E2004C003400CC00340F0B5114A114C124EDB
S1131E3000F00105E3695F0713D40DB9334213D1F0
S1131E4003EA00078F4207D10B4A1A40002A14BF45
S1131E506FF001000020F0BD013AEBD16FF00200F9
S1131E60F9E74FF0FF30F6E76FF00100F3E700BF4A
S1131E708096980000000340020001004FF40032F5
S1131E8038B50F4B0F4C9A6641F671330122E56960
S1131E90E3630D4B0021DA6002236061212023619A
S1131EA005F48035FFF7C0FF10B92120FFF7BCFF10
S1131EB00122064BDA600DB10023E36338BD00BF95
S1131EC00090004000000340001003400020034045
S1131ED02DE9F04301264FF440252F4C2F4F4FF4AA
S1131EE0003E7E6044F820503025002441F67138CD
S1131EF0DFF8B8C005FB00C5EC652C662C67284CE0
S1131F0006FA00F0C4F868E004F51C34D4F81CE0C8
S1131F10C4F83C8004F58054DFF89480E660DFF870
S1131F20949043B901211F4A1EF4803FD1602CD103
S1131F300020BDE8F08301F500546FF30C04641A2B
S1131F409C4228BF1C46C9F81410D9F81C90A60856
S1131F5019F0040F1CD1013E360146F060566E663E
S1131F60AA66C5F86C807862DCF834603042FBD035
S1131F704FF004090C4E21447063A6F59036B86204
S1131F802244C6F810901B1BC9E7C9F83C30CFE7C0
S1131F904FF0FF30CDE700BF004004400010044084
S1131FA00090004000200340002004400000044052
S1131FB01800034000000340024B1868C0F30740B8
S1131FC0704700BF0080E00F074B08495A6E4FF47A
S1131FD08033D20358BF064A4B6601F5E621D1F897
S1131FE0040658BF536670470080004000900040CC
S1131FF000A0004010B5FFF7E7FF00F1C043A3F5D0
S11320008043B3F5606F17D802680C4B9A4213D122
S113201003690533B3F5007F0ED2002211469A42BC
S113202005D350F82300431A5842584110BD50F8C4
S1132030224001326140F2E70020F7E7DEC0ECE520
S11320404FF40052034B00209A660322C3F8602227
S1132050704700BF009000404FF40052034B002033
S11320609A660322C3F86022704700BF00A00040B4
S113207060B5054619B10139B1F5806F0FD2094E2B
S1132080F06810F48030FBD143EA012312072B439C
S113209002F08052134343F00043736060BD01209B
S11320A0FCE700BF0020024C0122054B9A60DA686D
S11320B0D203FCD4D86820F00F000004000C704751
S11320C00020024C0322024B186019615A637047C6
S11320D00000024C82B01FB507930A9B04AC8B42EC
S11320E028BF0B4604E907001048D100079948BFF0
S11320F003330160099948BF23F0030323F07043BD
S113210001F0E041194341F000518160002102F0E7
S1132110E042019C1A4342F00052C16004618261B2
S1132120416304B0BDE8104002B070470000024CA7
S11321303F22034B1A631022DA6103229A63704729
S11321400000024C024AD36B9B07FCD4704700BFCB
S11321500000024C044B986A00F02400003818BFB9
S113216001208000704700BF0000024C08B5FFF753
S1132170F1FF064BDB6B23F47F4323F0EF030343B0
S11321801EBF0122024BC3F8FC2F08BD0000024C05
S113219000F0FF3F4368182B0AD0202B1DD0102BD2
S11321A02BD1174BD3F80434DB010AD40120704738
S11321B0134BD3F804349A01F8D50B6843F00803A1
S11321C00B6003680F4A934210D10B6843F040033D
S11321D00B600023436000207047094BD3F804349C
S11321E05B01E3D50B6843F00403E9E7064A934235
S11321F0F1D10B6843F08003EAE70720704700BF82
S11322000000024CA75D0020A65D00200B4607B528
S11322100749D1F80414C90708D5002100920246E1
S1132220084600F033F803B05DF804FB0120FAE738
S11322300000024C0B4607B50749D1F80414C9073E
S113224008D5009201210246002000F01FF803B0D7
S11322505DF804FB0120FAE70000024C1FB50A4CAC
S1132260D4F8044464070CD5CDE900120021069C7F
S11322700222CDE902340346084600F031F804B0E6
S113228010BD0120FBE700BF0000024CF0B51C4666
S11322905B6815468DB01A07129E1AD1CBB17268CD
S11322A0934216D10C4B0D4A53F8217009AB07CA5F
S11322B083E807001A462946CDE90533CDE90333FF
S11322C0CDE90163009447F4807002F072F80DB018
S11322D0F0BD0720FBE700BF984B0000684B0000EF
S11322E02DE9F0418CB0DDE9127C7C681E46DDE905
S11322F0143E200728D13CB3DCF80400844223D1E7
S11323005868102820D1DEF8040010281CD10F488A
S113231009AC50F821500E4951F822800D4A07CAE1
S113232084E8070045EA080022463146CDE9054E17
S1132330CDE90344CDE901C4009740F0300002F038
S113234038F80CB0BDE8F0810720FAE7984B00009C
S1132350744B0000684B00000138C0B206289ABFD5
S1132360014B185C002070477B4C00000138C0B260
S113237006289ABF014B185C00207047744C00007B
S11323802DE9F04FBBB0804603A880E80E007C4BDB
S11323909DF81091D3F80024D40603D401203BB057
S11323A0BDE8F08F08F1FF32059EDDE903A7062A98
S11323B06DD8DFE802F004191F252B313700D3F85C
S11323C00C34D807EAD5012307930023B9F1010F90
S11323D0CDE908332CD0B9F1020F5AD04046FFF7AB
S11323E0C5FF6324054631E0D3F80C349907D5D5ED
S11323F00223E9E7D3F80C345A07CFD50423E3E7E3
S1132400D3F80C341B07C9D50823DDE7D3F80C3403
S1132410DD06C3D51023D7E7D3F80C349C06BDD50D
S11324202023D1E7D3F80C345806B7D54023CBE7A3
S1132430534BD3F80C34D903B0D5079B404643F42F
S1132440C0630793FFF788FF032405461323042280
S1132450009307A94FF0005312A801F068FF5146FA
S1132460009446F000533A4601F061FF4FF0000B30
S113247004465E46DDF814A1469B9B452DD1B9F177
S1132480030F43D14046FFF771FF874238D007203E
S113249085E73B4BD3F80C24D2037FF57FAFD3F809
S11324A00C349B037FF57AAF97B17C4239463746AB
S11324B004F00304079B404643F4E0630793FFF7EB
S11324C04BFF24023E4605460F4644F0A304BDE7F5
S11324D004210DF1200A0C46ECE7DAF80420164436
S11324E04AB1032300932046DAF80830DAF80010E2
S11324F001F01DFF04460BF1010B0AF10C0ABBE7C6
S1132500404602F07BF801383042C0D17EBB032341
S113251032462046009308A9334601F008FF0426FA
S11325200446103C204601F017FF2046314601F0D6
S11325301EFF489BAB4228BF2B461C46EBB1002331
S1132540224600934799499B0AA801F0F0FE2A1BF2
S113255004D000231946009301F0E9FE103801F07D
S1132560FBFE12A80AA901F0D7FE002017E716F017
S1132570030618BFC6F10406D3E70AA8E7E700BFBD
S11325800000024C7047704738B5FEF789F99F2068
S1132590FEF736F9FEF760F90546FEF769F90446D9
S11325A0FEF788F9EB2D06D146F214039C420CBFCA
S11325B01820002038BD0020FCE708B5FEF770F9AC
S11325C00620FEF71DF9BDE80840FEF773B908B50B
S11325D0FEF7C2F8FFF7D6FF42F21070FEF79CF840
S11325E0FEF75EF9AB20FEF70BF9FEF763F947F24D
S11325F03050FEF791F8FFF7C7FF002840F20110B2
S113260018BF002008BD10B5FEF74AF90520FEF7F3
S1132610F7F8FEF721F90446FEF74CF904F001003F
S113262010BD08B5FFF7EFFF0028FBD108BD38B592
S113263005460C46FFF7F5FFFFF7BFFFFEF730F93D
S11326402846FEF7DDF82046FEF7E6F8BDE83840F8
S1132650FEF730B970B514460D46002221460646F1
S1132660FDF7D2FDA8B1FFF7DCFFFEF719F903204F
S1132670FEF7C6F83046FEF7CFF82C44A54203D146
S1132680FEF718F9002070BDFEF7E6F805F8010B17
S1132690F4E740F20240F6E72DE9F04114460F4614
S11326A0002221460646FDF7AFFD002846D0FFF77D
S11326B0B8FFFEF7F5F80320FEF7A2F83046FEF760
S11326C0ABF825468DB9FEF7F5F8F3B253B326F00F
S11326D0FF0505F580753319AB4232BF2546AD1BA6
S11326E0ADB25CB92046BDE8F081FEF7B5F8FF282D
S11326F005F1FF35E6D040F20340F4E7FFF791FF20
S1132700FFF75BFFFEF7CCF80220FEF779F83046BE
S1132710FEF782F807EB0508B8450AD1FEF7CAF8B8
S1132720641B2E44B4F5807F254628BF4FF4807582
S1132730D7E717F8010BFEF763F8EDE740F2024024
S1132740D1E74FF0FF30704700F059B9F7B50646AE
S11327500D46FFF766FFFFF717FF45EA0603C3F3CD
S11327600B0304468DF80700002B46D1294630465A
S11327700DF10702FDF748FD002841D0A6B9A4F1E8
S113278018035C425C41B5EB045F0DD1FFF749FFD0
S1132790FFF713FFFEF784F8C720FEF731F8FEF7C2
S11327A089F8002003B0F0BD2C46354407E0BBB2E5
S11327B043B139462020FFF73AFFA4F580542F1B7C
S11327C0002CF4D12646B4F5803FA5EB04010ED2CB
S11327D0310C09043944B4B211FA86F6311B002CC9
S11327E0DFD02020FFF723FFA4F58054F6E7D8209C
S11327F0FFF71DFFA4F58034E5E740F20440D1E77C
S113280040F20240CEE708B5FFF70BFFFEF748F8A9
S1132810B920FDF7F5FFFEF74DF8FFF7B4FE0020F1
S113282008BDC0F30C032DE9F04104460F461646DB
S11328300BB9FDF73BFF04F500556FF30C0504EBF2
S11328400608A84507D8324639462046BDE8F04177
S11328500223FDF739BF2846FDF728FF05F500558B
S1132860EFE770B40025AD6A03462E69864206D8A8
S11328706C6913449C4202D370BCFFF7D2BF70BC96
S11328807047B0F5EC2F70B50D46144615D2C0F55F
S1132890EC23934200F500460FD338B9836A5A6992
S11328A0B2F5004F02D91869FDF700FF2246294608
S11328B03046BDE87040FFF7B4BF70BD006900F05A
S11328C0FE00B0FA80F04009704708B501F024FB1F
S11328D0B0FA80F0400908BD4FF0FF3313B5044649
S11328E001A80193FFF7F1FF20B1019BA3422CBF84
S11328F00020012002B010BD4FF400407047FFF7E4
S113290066BEFFF780BF03461846016881F3088856
S113291081F3098840688746FEE74FF40170FDF7AC
S11329209BBEB1F5057F10B504460FD34FF4057275
S1132930002101F005FF04F5CE7204F5AA7104F13B
S11329402C000023BDE81040FEF7F0B940F205204A
S113295010BD13B50446009101462C30FEF720FA51
S1132960C4F8100218B141F20703984204D1A378C5
S113297023B1E07800F2022002B010BD40F2012041
S1132980FAE72DE9F04387B00DF1080904460E4635
S113299017460021102248461D46DDF8388001F014
S11329A0CFFE00211C22C8F80010284601F0C8FE02
S11329B032463B462146CDF8009004F12C00FEF748
S11329C0EFF923789A0744BF6268C8F80020DB0750
S11329D009D504F1080304F1240253F8041B9342BB
S11329E045F8041BF9D1237840F20640002B18BFA8
S11329F0002007B0BDE8F0834FF405707047002352
S1132A0003604FF400107047826CF0B5531EB3F5A9
S1132A10887F18D8D0E9093CD0E90B47C91A9142FC
S1132A2028BF11464569866B2FB9C768A7EB040E0A
S1132A308E4598BF07630C44521AC46282641944D9
S1132A408B4201D14362F0BDB34234BF64460024DB
S1132A509A1B2A44125DEA540133F1E72DE9F04F41
S1132A6093B009910E92036B416A0893C36A02936F
S1132A70089B002B40F0A480029AC3689B1A099A11
S1132A80521A9A4240F29C800B444FF0FF3CD0E92A
S1132A900DBA85680A930CFA05F5ED430F950025E8
S1132AA0C36B0B950393036C04690493436C026A30
S1132AB00593D0E900360CFA06FC6FEA0C050D9379
S1132AC0436911950693836A0793D0E906370F9DEE
S1132AD0029EB7F1807F05EA060808EB0B1C3CBF99
S1132AE013F8015B3F0234F81C6038BF45EA022248
S1132AF0FD0A754395424FEA0B1E40F2C780C6F5A6
S1132B00006706EB571724F81C70089E029F04F612
S1132B106C6C3E4314D0119E37400D9E07FA06F8A4
S1132B2000294FD1079E013E069FBE5D0D9FC7F150
S1132B30080E4FF4C06746FA0EF6464407FB06CC6F
S1132B40029EBBF1060F06F10106029647D8012644
S1132B50BBF1030F94BFABEB0B0BABF1030B019673
S1132B60019EB5F1807F38BF13F801EB4FEA4606AA
S1132B7038BF2D023CF8067038BF4EEA02224FEAF5
S1132B80D52E07FB0EFE964501960CEB06081BD9C5
S1132B90C7F5006507EB5515AFB27546019EA8F859
S1132BA00070FF2EDCD9019F069E77542F46013119
S1132BB00A9D8D4240F229830E9D9D4287D824E3CD
S1132BC0099B62E74E1EAFE7019EA7EB571701363C
S1132BD0A5EB0E05A2EB0E02BFB20196DEE7079F3E
S1132BE0A1EB0A06514528BF0027BE46069FBBF14C
S1132BF0090F3E4416F80E908CBF06260326ABEB55
S1132C00060B01264FF480780196019E4FEA49098C
S1132C1009EA0807B5F1807F0C9708EB060709EA73
S1132C20080638BF13F801EB37440CEB470638BFEE
S1132C302D023CF8177038BF4EEA02224FEAD52E17
S1132C4007FB0EFE1096019E96454FEA4606019636
S1132C500FD9C7F5006507EB5515AFB209EA0805AA
S1132C6028EA05087546109E3780019EFF2ECCD9B0
S1132C7099E7019EA7EB57170136DDF83080A5EBE5
S1132C800E05A2EB0E02BFB20196ECE77F1BA6EB8A
S1132C905616B7F1807F24F81C60A2EB05020BF1F5
S1132CA0C0093CBF13F8015B3F0234F8196038BF18
S1132CB045EA0222FD0A754395424FEA490C40F267
S1132CC0D680C6F5006706EB571724F81970059FE0
S1132CD00BF10C0B0C97049F04F264660597039F99
S1132CE0CDE903A7B5F1807F3CBF13F8017B2D022A
S1132CF0B6F800C038BF47EA0222EF0A0CFB07F718
S1132D00974240F270814FF0000ECCF500650CEB59
S1132D105515358006EB081604364FF008094FF0B8
S1132D20010CB7F1807F38BF13F8018B4FEA4C0CCC
S1132D3038BF3F0236F80C5038BF48EA02224FEA47
S1132D40D72805FB08F8904506EB0C0A40F27B8176
S1132D50C5F5006705EB5717BDB24746CC45AAF841
S1132D600050DED3AEEB090E0EEB0C05BBF10B0FDE
S1132D70019540F2B782032D94BF4FEAC51E4FF46C
S1132D809C6E4FF0010598BF0EF5587EB7F1807F19
S1132D904FEA450538BF13F801CB05EB0E0838BFE1
S1132DA03F0234F8086038BF4CEA02224FEAD72CBD
S1132DB006FB0CFC944540F25081C6F5006706EB17
S1132DC05717BEB267463F2D24F80860DED9403D50
S1132DD0032D3FD905F0010C0D2D4FEA55064CF09B
S1132DE0020C00F250814FF00108013EC5F52B7E24
S1132DF00CFA06FC0EF1030EE6444FEA4E050C9560
S1132E00C24665460B960C9EB7F1807F4FEA480890
S1132E1038BF13F8019B06EB080E38BF3F0234F8A5
S1132E200EC038BF49EA02224FEAD7290CFB09F940
S1132E30914540F21B81CCF500670CEB57171FFA44
S1132E4087FC4F460B9E24F80EC0013E4FEA4A0A07
S1132E500B96D8D1089E05F1010A002E40F00E828F
S1132E60029EAE4200F20C824162012003E2A6EB14
S1132E7056167F1B521B24F81960089D029E354389
S1132E80F3D0B7F1807F38BF13F8015B0CF1180958
S1132E9038BF3F0234F8096038BF45EA0222FD0A10
S1132EA07543954251D9C6F5006706EB5717B5F13E
S1132EB0807F24F809700EF1F00E38BF13F8017BFF
S1132EC0C64438BF2D0234F81E6038BF47EA0222D8
S1132ED0EF0A774397421FD9C6F5006506EB5515EF
S1132EE0079E24F81E50514528BF0026B446069E6E
S1132EF0A1EB0A05354415F80C50BBF1060F7554C7
S1132F00029D88BF4FF00B0B05F1010598BF4FF0F0
S1132F10090B013102954BE6A6EB561624F81E6008
S1132F20039ECDF80CA0B246ED1BD21B059FBBF14E
S1132F30060F0C97049F8CBF4FF00B0B4FF0080B40
S1132F40CDE904A704F66826CCE67F1BA6EB56164B
S1132F50B7F1807F24F80960A2EB05020CF1300E72
S1132F603CBF13F8015B3F0234F80E6038BF45EAFA
S1132F700222FD0A7543954206D9C6F5006706EBA1
S1132F80571724F80E70D1E77F1BA6EB5616B7F13E
S1132F90807F24F80E60A2EB05020CF1480C3CBFC4
S1132FA013F8015B3F0234F80C6038BF45EA022293
S1132FB0FD0A754395420AD9C6F5006706EB571713
S1132FC024F80C70DDE9036703970496AEE7521BFF
S1132FD07D1B059FA6EB561624F80C60039E0397F1
S1132FE0049F0597F1E7ED1BACEB5C1CB5F1807F0A
S1132FF0A6F800C0A2EB07023CBF13F8017B2D0228
S1133000B6F802C038BF47EA0222EF0A0CFB07F702
S113301097420BD9CCF500650CEB551506EB081857
S113302075804FF0080E08F5827676E6ACEB5C1CF2
S1133030D21BA6F802C04FF0100E4FF4807906F5AB
S11330400176EF1B6BE6A5EB5515A7EB0807A2EB82
S11330500802ADB20CF1010C80E6A6EB5616A7EB04
S11330600C07A2EB0C02B6B20135ACE6ACEB5C1C6F
S1133070A7EB0907A2EB09021FFA8CFC08F101086F
S113308045EA0A05DEE6053EB7F1807F3EBF13F848
S1133090015B3F0245EA02227F08D21BD51705F1E6
S11330A0010E013E05EA07050EEB4C0C2A44EBD158
S11330B0B7F1807F38BF3F02B4F846864FEA0C155B
S11330C04FEAD72C08FB0CFC38BF13F8016B04F251
S11330D0446E38BF46EA022294455AD9C8F50066C0
S11330E008EB56161FFA86F80226BCF1807FA4F876
S11330F046863EF816A04FEA46070EEB46093EBF49
S113310013F8016B4FEA0C2C46EA02224FEADC2644
S11331100AFB06F6964248D9CAF500680AEB581825
S11331201FFA88F8A9F80080B6F1807F3EF817A04E
S11331304FEA47080EEB47093EBF13F8017B3602FE
S113314047EA0222F70A0AFB07F7974238D9CAF579
S1133150006C0AEB5C1C1FFA8CFCB7F1807FA9F8A9
S113316000C03EF818604FEA480C3EBF13F8018BCC
S11331703F0248EA02224FEAD72806FB08F89045A6
S113318029D9C6F5006706EB57172EF80C70474689
S113319060E6A8EB5818A2EB0C0203261FFA88F885
S11331A045F00105A7EB0C0C9FE7AAEB5A18921BFC
S11331B01FFA88F8013745F00205ACEB0606B1E7C3
S11331C0AAEB5A1CD21B1FFA8CFC08F1010845F02B
S11331D00405F71BC1E7A6EB561645F008052EF8C3
S11331E00C606E1CA7EB0807A2EB08027FF432AE5A
S11331F0019CABF10C0B04F589740B94DDE903A479
S11332000394059C04940C9C0594B7F1807F3CBF07
S113321013F8014B3F02C0E906370B9B38BF44EA61
S113322002228364029B0262C362039B4162C36302
S1133230049BC0F838A00364059BC0F834B0436411
S1133240036B23B9C368029A934298BF0363099935
S1133250FFF7DAFB426A0999836C8A4207D28269D2
S11332600E998A4203D2B3F5897FFFF4FCABB3F520
S1133270897F50D8002013B0BDE8F08F089EF0E598
S1133280BBF1120F8CBF4FF00A0B4FF0070B019EDE
S11332900A9D0236B5EB010CB0463FF4E5ADB445EA
S11332A028BFB446079EA1EB0A05514528BF002656
S11332B03544029E66440296A8EB0C060B96079EC4
S11332C0761BB445069E0E4414D8A5EB0108069D52
S11332D0614405EB010C16F808E006F801EBB4456F
S11332E0F9D165E4DDE903A50395059D04950C9DDD
S11332F00595CCE7B1460CEB060E069E16F8058044
S1133300079E09F8018B0135AE4208BF0025CE4562
S1133310F3D161444CE44FF489738364AAE72DE943
S1133320F047D0E9075301278468D0F82C80A740E0
S1133330D0F834C0013F066907EA080707EB0C1E02
S1133340B5F1807F36F81E900A4407D2914280F08E
S1133350DB8111F8014B2D0244EA0323EC0A09FB3B
S113336004F4A34278D2056B06F66C6658EA0505A8
S113337019D0D0E900E70125BD40013D05EA080563
S113338005FA0EF7456AD0F8148005B9856A013D3F
S113339018F80550CEF1080E45FA0EF53D444FF4E9
S11333A0C06707FB0566BCF1060F20D8012040006A
S11333B0B4F1807F375A07D2914280F0A58111F889
S11333C0015B240245EA0323E50A7D43AB4229BF9E
S11333D001302C46641B5B1BFF28E8D90120B4F1A3
S11333E0807F80F02181914228BF00201CE1876BFF
S11333F0D0F824C04569BC45ACEB070E2CBF0027B0
S1133400876A05EB0E0010F807C001204FF480779F
S11334104FEA4C0C07EA0C0E3D187544B4F1807F5A
S113342036F8158007D2914280F06E8111F8015B65
S1133430240245EA0323E50A08FB05F54000AB42F4
S11334402BBF01302C46774627EA0E0724BF641BA6
S11334505B1BFF28DCD9C1E7281B0CF1C00CB0F1C1
S1133460807FA3EB04034FEA4C0436F81CC007D258
S1133470914280F0498111F8015B000245EA03237F
S1133480C50A0CFB05F5AB4280F09F8002204FF08B
S1133490000E06F2646CB5F1807FBCF8008007D2A0
S11334A0914280F0318111F8014B2D0244EA03234B
S11334B0EC0A08FB04F4A34280F0EA800CEB071C3E
S11334C000270CF1040C4FF008094FF001084FEAF3
S11334D04808B4F1807F3CF808A007D2914280F0FC
S11334E0138111F8015B240245EA0323E50A0AFB70
S11334F005F5AB4229BF08F101082C46641B5B1B90
S1133500C845E4D3BEF1030F3FF669AFA7EB090743
S11335104744032F88BF4FF49C674FF001059CBFBD
S1133520FF0107F558776D0006EB050CB4F1807FB9
S11335303CF807E007D2914280F0E68011F801CB15
S113354024024CEA03234FEAD42C0EFB0CFC634503
S113355029BF01356446A4EB0C04A3EB0C033F2DF7
S1133560E1D9403D032D7FF63AAF0D2D4FEA5507C3
S113357000F2B08005F0010C013F4CF0020CC5F5DF
S11335802B750CFA07FC0335654406EB45064FF032
S1133590010C4FEA4C0CB4F1807F36F80CE007D2F2
S11335A0914280F0B18011F8015B240245EA0323C3
S11335B0E50A0EFB05F5AB4231BF2C46641B5B1BD1
S11335C00CF1010C013FE4D109E7401B3444B0F194
S11335D0807FB4F818C0A3EB050307D2914280F0B2
S11335E0938011F8015B000245EA0323C50A0CFB32
S11335F005F5AB4222D20EF1F00EB5F1807F36F81C
S11336001E4006D291427FD211F8010B2D0240EAEE
S11336100323E80A6043834208D2B0F1807F71D269
S1133620914234BF03200020BDE8F0872D1A1B1AF5
S113363003204FF00C0E06F6682C2CE7401BB0F16B
S1133640807FB4F830C0A3EB050306D291425BD26D
S113365011F8015B000245EA0323C50A0CFB05F5DA
S1133660AB42E5D3401BB0F1807FB4F84840A3EBF4
S1133670050306D2914247D211F8015B000245EAE4
S11336800323C50A6543AB4224BF5B1B451BCFE73D
S11336902D1BB5F1807FBCF80280A3EB040306D296
S11336A0914231D211F8014B2D0244EA0323EC0A72
S11336B008FB04F4A34205D20CEB071707F5827C40
S11336C0082700E71B1B10274FF480790CF5017CB9
S11336D02C1BFAE6053FB4F1807F06D2914213D247
S11336E011F8015B240245EA032364081D1BED0F56
S11336F0013D2540013FA3EB0503ECD1042706F26D
S1133700446644E703208FE700208DE7002301226D
S1133710C0E90B33C0E91232436283650265704726
S11337202DE9F74F1F464FF0000804469DF830304E
S11337303E68C7F8008001938A461546FFF764F98E
S11337400D9B83F80080A36CB3F5897F09D1236AAC
S113375013B901230D9A1370206A003818BF012091
S113376022E0E36C8BB1A36D6EB3042B1FD994F8E4
S11337705C30002B40F0C780D4F85D20E36412BABB
S113378022624FF0FF32A365E261636A53451ED3A0
S1133790A36C002B40F0BB80236A002B40F0BC805C
S11337A0042300200D9A137003B0BDE8F08F5A1C57
S11337B0A26515F8012B234483F85C203B68013E85
S11337C001333B60CFE7042BD1D80323E9E74FF063
S11337D0000B226D9AB1D4E9002111444FF44072D8
S11337E08A400021206902F236728A4222D80122DC
S11337F0C4E91022C4E90E22002262632265D4F8CF
S11338005880B8F1000F63D1132E02D9BBF1000F19
S11338101DD0324629462046FFF781FD80B9324645
S1133820294604F15C0000F093FFA6653B6833442D
S11338303B60CAE74FF4806320F811300131D4E7CC
S1133840BBF1000F01D002285AD12A4602E0A6F1AA
S113385014022A4451462046A561FFF7FFF80028C8
S113386051D1A3693A685D1B2A443A60761B1D4610
S113387069E715F8091008F1010802F8081009F1C0
S11338800109B8F1130F28D9C4F85880BBF1000F0F
S113389027D104F15C0B5A4651462046C4F818B0AF
S11338A0FFF7DCF878BBA369A3EB0B0290452CD39C
S11338B0A8EB02034B4528D839684A44A2EB080315
S11338C01944B04439602B44A8EB0206A065CEE746
S11338D04FF0000904F15B02D3E74E45C9D1C4F8A7
S11338E058804246204604F15C01FFF718FD10B9E8
S11338F03B684B449CE7BBF1000FCAD00228C8D0F8
S113390002230D9A137001204EE70B204CE7019B14
S1133910002BF5D1022344E7019B002BFAD04FF092
S1133920010B56E72DE9F04F89B0DDF848809A463F
S11339309DF84C3004460493D8F800308B4602932B
S11339400023164617681360C8F80030029BD4E9B8
S113395009518D42079302BF00231D4663624B1B2E
S1133960BB4234BF0023049B149A28BF7919CDE9C4
S113397000322046524607ABFFF7D2FE079A029B5D
S113398061699B1A0293D8F8003003901344C8F875
S11339900030636A5846A3EB0509924429444A4619
S11339A0059300F0D5FE059BCB44FB1A5F193368E1
S11339B04B443360039B23B9B9F1000F01D0002FAE
S11339C0C4D1039809B0BDE8F08F10B504464B6824
S11339D00846216998470023236110BD70B54FF450
S11339E040751646D1E9003213449D4003690446EC
S11339F005F2367513B1436DAB420ED03146204605
S1133A00FFF7E3FF30463368690098472061B0FA56
S1133A1080F040096565400070BD0020FCE738B5C2
S1133A2004460D46FFF7D1FF6B6828466169984745
S1133A300023636138BD042A01D804207047D1F8FB
S1133A400130B3F5805F38BF4FF48053C3600A7808
S1133A50E02AF2D80923B2FBF3F303EBC301521AB1
S1133A60D2B202600522B3FBF2F2826002EB820260
S1133A709B1ADBB243600020704770B5D1E9015353
S1133A80AB4218D290F840202A44D21A402A12D8C5
S1133A900A6890F84040D65C90F8412001332244F3
S1133AA002F03F0201349D4286548B6080F840400E
S1133AB0EED1012070BD0020FCE72DE9F84390F819
S1133AC040C017469E46D1E90123089DD21A62449C
S1133AD0954204460E469DF824909DF828800AD904
S1133AE0FFF7CBFF00286AD1142341F2020084F8C7
S1133AF04630BDE8F883754558D80023BCF1000F63
S1133B0001D09D4235D1D6E90121914201D29D4295
S1133B1044D89D4250D129463846D4F88820FDF730
S1133B20CFFCC4F88800B9F1000F04D02A46394606
S1133B30E06C00F0A7F8B8F1000F08D094F8433017
S1133B408BB12B463A463946A06C00F08AF894F8BB
S1133B50433043B1E36DA26D2B449342E36524BF2C
S1133B60002384F84330636D41F203002B44636502
S1133B70BFE794F84120A25CFA5494F8412094F8E9
S1133B8040C001320CF1FF3C02F03F025FFA8CFCB2
S1133B9084F8412084F840C00133AFE73268525CB6
S1133BA0FA54B26801330132B260ACE741F2010069
S1133BB0142384F846309CE741F20200F8E7002021
S1133BC097E72DE9F04799465B6804460F4690460F
S1133BD0002B40D011F0030340D19B6A006E1B6997
S1133BE081181D1DA9421BD31C33984218D2A84228
S1133BF0024638BF2A46994294BFC2EB010AC2EB7F
S1133C00030A101A3E18C5F16800104431465246A2
S1133C10204400F09DFD5246FF21304600F090FD07
S1133C2048F20403226E9A420CD848F2070102EBD0
S1133C300800884206D99B1AFA58C4F880204FF02D
S1133C40FF32FA50D9E9003542463946206EA8477A
S1133C50236E434423660020BDE8F08741F202004E
S1133C60FAE730B50D4685B0194600F12803CDE9D1
S1133C700152009300F1240200F1380300F005FA28
S1133C8005B030BD00F00CB8014600F016B868224B
S1133C90002100F055BD03460020C3E90000704731
S1133CA007B500F128030190009300F108030020F8
S1133CB0FDF7E2FC03B05DF804FB08B502460B46D1
S1133CC000F128010830FDF737FD002008BDF0B5EC
S1133CD01D4693B0002837D1189B06909B01CDE96F
S1133CE004230AAB0A461E4601F120071C4610684D
S1133CF05168083203C4BA422346F7D10023079619
S1133D000993FEF79DF90446D8B92023089304AB20
S1133D1093E807008DE8070007AB04200ECB00F002
S1133D207EFC0746FEF798F98FB932462B461546B6
S1133D3003CD596012A98D4218602A4603F1080385
S1133D40F5D1204613B0F0BD6FF07104F9E76FF0C0
S1133D506F04F6E73C2230B59FB0002105460DEB19
S1133D60020000F0EDFC4FF0FF333422002101A8E3
S1133D700E9300F0E5FC01A8FDF74CFF049C012C18
S1133D801ED921460EA8FDF723FD18B140F20553B4
S1133D9098420ED100230EAA52F8041B481C0AD1E3
S1133DA01EAA02EB830321460EA843F8405CFDF7EC
S1133DB0ABFD1FB030BDA94205D001339C42EBD10D
S1133DC040F20250F5E740F20350F2E74FF40020CE
S1133DD07047FDF707BE01221A70704730B50446DC
S1133DE00D46A3B0D0F80C1202AA8023D0F8040226
S1133DF0FDF774FE80232146009502AA04F12C00ED
S1133E00FCF7CEFFD4F80C32C4F810028033C4F8A7
S1133E100C3223B030BD1FB50023CDE90033CDE90A
S1133E200213D0F81032044693B9D0E982329A4290
S1133E300ED26946FFF7D2FFD4F8100270B141F2F6
S1133E40070240F20123904208BF184604B010BD97
S1133E50A37833B1E07800F20220F7E740F20120C2
S1133E60F4E740F20220F1E737B50C460546114667
S1133E702046FEF756FD48B969462846FDF716FE6A
S1133E8030B9019BC4F80452C4F8083203B030BD01
S1133E9040F20140FAE738B500F5CE7204460D460B
S1133EA0202300F5AA712C30FCF740FFD4F810321F
S1133EB013B1A07848B938BDD4E982329A42F8D215
S1133EC029462046FFF78AFFF0E7E078F3E7FEE7AC
S1133ED070B5054614460E4600F0CDFC2B685C40D8
S1133EE034405C402C60BDE8704000F0BFBC836986
S1133EF01B06FCD5406AC0B2704783695A06FCD5DC
S1133F00C16383699B06FCD5406AC0B2704783696C
S1133F105B06FCD5C163704738B50446FEF754F818
S1133F20054634B1FEF766F830B100206B682360B3
S1133F3038BD4FF4E020FBE74FF47E00F8E710B5FE
S1133F400446FEF757F810B1A068C0F3C05010BD86
S1133F5010B5FEF739F80446FFF7F1FF08B1E06841
S1133F6010BD4FF47E00FBE7F8B50546FEF72CF8CC
S1133F70AD68044600F11406FFF7E1FF68B3226957
S1133F8056F82230DB4346F82230A06810F4702043
S1133F901BD0A06800F47020F8BD00212F68AE6823
S1133FA0C6F3990C61450CD0934203D185B1934279
S1133FB0F3D3F1E7013354F8236047F8216001316A
S1133FC0F0E76D6825F00105F0E703461034EDE7EE
S1133FD0934238BF4FF4E020DEE74FF47E00DBE786
S1133FE02422002100F0ACBB70B515460E462422F5
S1133FF00021044600F0A4FB25F04003802B02D0EE
S1134000B5F5807F08D12046314640F8045BEA08C4
S113401000F09EFB002070BD6FF01F00FBE730B581
S113402001290D468BB02AD8046824F04001802968
S113403002D0B4F5807F25D10021CDE903121022EE
S11340400430E408CDE90521CDE90732019002945A
S11340500991FDF7F5FF68B9012D07AA04A901A884
S11340600AD1FEF7D3F80446FDF7F6FF204318BF44
S11340706FF06F000BB030BDFEF7DCF8F3E76FF0C4
S11340802000F7E76FF07100F4E72DE9F04F91B0ED
S113409082460F4698461646DDF86CB0FAB11568AC
S11340A0DAF8003023F04002802A02D0B3F5807F92
S11340B06ED10024DB0805931023CDE90648CDE931
S11340C008340AF104020BEB070304920293BC4286
S11340D007D306B13560002011B0BDE8F08F154656
S11340E0DEE75DB11A9A1BF80430525D0135534086
S11340F01C9A05F00F0513550134E8E7A7EB0409F2
S1134100B9F10F0F1DD929F00F090BEB0403CDE909
S11341100A391C9B0C952344CDE90D390F95FDF705
S11341208FFF0028D8D107AB00930DAA0AA904A8D1
S1134130FEF794F80390FDF78FFF039B03432AD106
S11341404C441C9B0BEB04091C44029B994501D174
S11341503C46BCE78DB94246012150461A9BFFF705
S11341605EFF0028B8D108F1100212F8013D0133B6
S1134170DBB213700BB94245F7D11A9A19F8013B17
S1134180525D0135534004F8013B05F00F05DCE7AF
S11341906FF07100A0E76FF06F009DE713B51AB1DF
S11341A00024009400F0C3F802B010BD2DE9F041E2
S11341B08CB005AC84E807001C468C42254628BF19
S11341C00D460F46129B1DB314B311462846002614
S11341D003F51813CDE90A468DE8030003F24113F1
S11341E04FEA4328C5EB4323099302950CAA059B88
S11341F012E90700069500F02CFABC4208D93146B2
S1134200621BA8EB04000CB0BDE8F04100F01FBA3B
S11342100CB0BDE8F08130B591B001AC84E8070082
S11342201C461346DA0049BF029A6200033222F0A8
S11342300302014604A8FFF7B1FF04A800F08CF8BC
S11342401499224601F5181101F241114D0208A8F2
S1134250C4EB41210023FFF7A1FF05F50071002302
S11342602246091B0CA8FFF799FF0CA800F074F86C
S113427008A904A800F050F811B030BD10B58CB0F6
S113428005AC84E807000E9ADDE9060102F5181270
S113429002F5A0725202CDE9092300228DE8030041
S11342A00B9202930CAA059B12E9070000F0D1F9C6
S11342B00CB010BD2DE9F04B4FF0000899460746AD
S11342C0164645468AB003AC84E8070002F0805BDA
S11342D007AC049A424502D80AB0BDE8F08B139BA0
S11342E013B9AA1E012A0AD9129BCDE907790996A6
S11342F000955BB194E807004B46FFF757FFBBF10D
S1134300000F00D14F440135C844E2E74B4694E81E
S11343100700FFF7B3FFF2E708B5FDF7D3FEFDF79B
S113432007FFFDF70FFFBDE80840FDF71FBF10B5FD
S1134330044622F07042103060602160A26039B1FE
S1134340A26803F070431343A360029BE36010BDB3
S1134350A36843F08043F7E701234360C36843F055
S11343602003C360836843F0005383607047C368CD
S113437003F00F03012B02D0033B012B08D8C368C1
S113438001F01F0143EA0123C36083680B44836087
S1134390704737B515464A6804463AB18C680093AD
S11343A0096845EA0403FFF7C2FF0446204603B048
S11343B030BD2DE9F04FD3B0CDE90123DDE96085AF
S11343C000230390042003ACCDE9050307C907AB20
S11343D083E80700214618465D9E0494FDF7DAFE43
S11343E00746002840F0BA805C9A0AAB07CA83E803
S11343F00700494201F00F0900215E9B5F9A5B6848
S113440052680D9113445B4203F00F0AD8F804304C
S113441012915B420093B368DA0048BF73684FF0AF
S1134420100242BF033323F003037360AB68DB0065
S113443041BF6B68033323F003036B605E9BD3F8C7
S113444004B05F9B5C680BEB04035344CDE90E316D
S113445073685B4203F00F03CDE910136B685B4292
S113446003F00F03CDE9131316AB1846159100F0B2
S113447067F95C9A516851B9D8F804100C4354EAAE
S11344800B0401BF10229146CDE90B240A9011239D
S11344904FF0005204A932A8FFF77BFF40F6110346
S11344A04FF0005207A9FFF774FF42F611034FF0D3
S11344B000520299FFF76DFF44F611034FF00052CA
S11344C00199FFF766FF412300225E99FFF761FF20
S11344D04FEA0A234FF000525F9943F04103FFF77C
S11344E058FF4FEA09234FF0005243F001030AA991
S11344F0FFF74FFF009B4FF000521B0203F4706361
S1134500414643F00103FFF744FF1038FFF724FF4F
S113451000230DA91A461AA8FFF73BFF00233146D2
S11345201A46FFF736FF002310A91A46FFF731FF9A
S1134530002329461A46FFF72CFF002313A91A4625
S1134540FFF727FF002362991A46FFF722FF10386E
S1134550FFF702FF1AA932A8FFF7DEFE384653B070
S1134560BDE8F08F0069704770B586B003AE0546AC
S113457086E80E00FFF7F6FF202804463AD86A685A
S113458000EB80039A4203D0062343439A4233D17B
S11345900B9BB3EB440F2FD10E9A93422CD10122E3
S11345A021463120EB68FDF763FD08BB0123CDE90B
S11345B00033234695E80700FFF77CFE08230AAA88
S11345C0009307CA2346FFF726FE0C23009396E8C0
S11345D007002346FFF7EAFD0A230DAA009307CA42
S11345E02346FFF718FEFDF75FFD002818BF0320E0
S11345F006B070BD0120FBE70720F9E7062808D8BC
S113460004280AD8013803288CBF00200120800127
S11346107047C31F58425841F9E78020704770B56E
S11346208AB007AC84E80E0003AD064694E80700A0
S113463085E80B00012302930EAB0193032300933F
S1134640304694E80E00FDF79BFE0AB070BD00F002
S113465077B882B02DE9F0418AB005AE12F08045FA
S113466086E80700149C119333D1139B8C4228BF16
S11346700C4613F08053884603D1129A944228BF03
S1134680144634B30F2C13D9DDE912018DE803006D
S11346900294119B96E80700FDF71CFDFDF748FD09
S11346A0FDF750FD0AB0BDE8F04102B0FDF75EBD74
S11346B0059E119F93B1A8EB0502042A3B6828BF0D
S11346C00422701909A90435099300F041F8AC4299
S11346D0F1D80AB0BDE8F04102B07047224639462D
S11346E030460AB0BDE8F04102B000F031B80139FB
S11346F0024410B5904201D1002005E0037811F87E
S1134700014FA34201D0181B10BD0130F2E78842CB
S113471010B501EB020402D98442234607D8431E94
S1134720A14207D011F8012B03F8012FF8E7024446
S1134730824200D110BD13F8011D02F8011DF7E7F4
S113474002440346934200D1704703F8011BF9E782
S11347500A44431E914200D1704710B511F8014B31
S1134760914203F8014FF9D110BD0000F8B5036A76
S11347700446052B66D800F07EF84FF48032324BA5
S11347803249586E03F580535A66314D314BC0039C
S1134790C1F80036C1F804565CBFA1F5E4214A66AD
S11347A02D4A256A1A6022685A602C4A04F10803CB
S11347B003EB8501121B8B4202EB03001FD1294638
S11347C000206368264CF3B9224A40EA05609060F1
S11347D013685068926843405340002291422CD1A0
S11347E044F82130BFF34F8F1E491F4BCA6802F4AF
S11347F0E0621343CB60BFF34F8F00BFFDE753F874
S1134800046F0660D7E70022D3F800E004EB8107C9
S11348109E68BC46C6F39906964207F1040706D87B
S1134820104411445A68012ACED05B68CBE75EF885
S113483022600132CCF80060EAE754F82200013229
S11348404340CBE7F8BD00BF0080004000C00740F4
S1134850004E00A0004C00A0DEC0ECE5044C00A01B
S11348600C4C00A000ED00E00400FA0510B962B69B
S1134870BFF36F8F7047EFF3108072B67047036A0F
S1134880042B9FBF00EB83020133D16003627047A6
S11348900000000000000000000000000000000014
S11348A0F8B500BFF8BC08BC9E467047F8B500BF19
S11348B0F8BC08BC9E4670470000100000000400CD
S11348C000001000000004000000080000001000B8
S11348D00000100000002000000020000000400044
S11348E00000800000000800000010000000080024
S11348F00000040000000800000010000000200078
S1134900008000000000010000000200000004001C
S1134910000008000000100000000000010000007A
S11349200000000000000800100203009A010000CB
S11349300050000000100000000010000000000003
S11349400100000000000080B814B6F1E0CFF3AD20
S1134950B7DD25C9FA79B7130000000013B779FA57
S1134960C925DDB7ADF3CFE0F1B614B801020000FC
S113497000000000A04C0000400000000200010301
S11349800000000000000000000000000000000023
S11349900000000000000000000000000000000013
S11349A000000000000000000000000007B0CD5E21
S11349B00200000002000103A44C0000006000009B
S11349C000000800F0040100FF2800000329000093
S11349D09D0200002329000053290000184B000009
S11349E083290000F92900000000000019040000D8
S11349F0F92800000400000700000D1013001A201D
S1134A002630384050000000FD0707FD890A0000E9
S1134A10B90A0000810B0000650B0000EB17A60328
S1134A200201000003000000FA0606FA0F04000069
S1134A3003000000F40A0AF4050500000100000068
S1134A40EB17A65E0A06000001000000F50909F54F
S1134A500307000001000000F60808F6060800003D
S1134A6000000000FE0101FE080800000000000034
S1134A70FD0303FD0C08000000000000FD0707FD16
S1134A801308000000000000F90707F910090000EE
S1134A9002000000F30B0BF3110A000003000000F6
S1134AA0F70A0AF7120B000003000000FC0404FCE0
S1134AB00D0C000003000000800000000000000056
S1134AC000000000000000000000000000000000E2
S1134AD000000000000000000000000000000000D2
S1134AE000000000000000000000000000000000C2
S1134AF000000000000000006A09E667BB67AE859D
S1134B003C6EF372A54FF53A510E527F9B05688CAB
S1134B101F83D9AB5BE0CD1900010000151C000018
S1134B20AD1A0000DD1A0000AD1B0000F11B0000EF
S1134B3009190000D1170000553D0000693E00002E
S1134B40173E0000211B0000072600005526000028
S1134B50992600004D2700004327000000000000B4
S1134B6064800040688000400000000000000000F5
S1134B7000000040000100000002000000040000EA
S1134B8000080000001000000020000000400000A9
S1134B90008000000000010000000000010000008F
S1134BA0B44B0000C0000000000000000000100032
S1134BB020000000FFFFFFFF0000000100000000D4
S1134BC00000000000000000FFFFFFFFFFFFFFFFE9
S1134BD0FFFFFFFFFFFFFFFF00000000FFFFFFFFDD
S1134BE0FFFFFFFFBCE6FAADA7179E84F3B9CAC264
S1134BF0FC6325516B17D1F2E12C4247F8BCE6E582
S1134C0063A440F277037D812DEB33A0F4A13945F1
S1134C10D898C2964FE342E2FE1A7F9B8EE7EB4A96
S1134C207C0F9E162BCE33576B315ECECBB64068CD
S1134C3037BF51F5FFFFFFFF000000010000000037
S1134C400000000000000000FFFFFFFFFFFFFFFF68
S1134C50FFFFFFFC5AC635D8AA3A93E7B3EBBD551C
S1134C60769886BC651D06B0CC53B0F63BCE3C3E70
S1134C7027D2604B1014202040402010141C2030F8
S1074C8040200000CC
S10F4C84904C0000A85D0020040000001B
S1134C905D09000095090000A501000081010000E4
S9030149B2
