S01F00006275696C642F72656C656173652F626F6F746C6F616465722E7333375B
S113000008100020390100000F380000FD20000016
S11300100F3800000F3800000F3800000F380000C0
S11300200F3800000F3800005C3A00000F38000061
S11300300F3800000C3A00000F3800000F380000A1
S11300400F3800000F3800000F3800000F38000090
S11300500F3800000F3800000F3800000F38000080
S11300600F3800000F3800000F3800000F38000070
S11300700F3800000F3800000F3800000F38000060
S11300800F3800000F3800000F3800000F38000050
S11300900F3800000F3800000F3800000F38000040
S11300A00F3800000F3800000F3800000F38000030
S11300B00F3800000F3800000F3800000F38000020
S11300C00F3800000F3800000F3800000F38000010
S11300D00F3800000F3800000F3800000F38000000
S11300E00F3800000F3800000F3800000F380000F0
S11300F00F3800000F3800000F3800000F380000E0
S11301000F3800000F3800000F3800000F380000CF
S11301100F3800000F3800000F3800000F380000BF
S11301200F3800000F3800000F3800000F380000AF
S10701300F38000080
S113013808B50B4B83F30A880A4B07A1D1E90001E0
S1130148C3E9000101F0D6FC00F0E8F901F0B2FCC3
S113015801F0C2FC00F06EF9A5EDF5FEA5EDF5FE83
S1130168080000200810002010B5054C237833B986
S1130178044B13B10448AFF300800123237010BD6E
S1130188A45D002000000000283C000008B5034BD3
S11301981BB103490348AFF3008008BD0000000009
S11301A810100020283C0000F0B5421ED11C034664
S11301B885B018D86E460D4C04F1100735462068F2
S11301C86168083403C5BC422E46F7D104A90F332D
S11301D811F8014D12F8010F844204D19A42F7D163
S11301E8012005B0F0BD0020FBE700BFF83900008E
S11301F82DE9F0410368044603F16043B3F5803FF9
S11302084FF000069CB061D8B26A436817699F42F0
S11302185CD8B3F5402F59D8456B07F14003AB427E
S113022856D8B5F5402F53D82846FFF7BDFF002808
S11302384ED0284601F036FFA0B1D5F81480B8F1A5
S1130248000F0FD0B8F1020F0FD1AB69C4F104014C
S113025819444FF0FF32204600F0DAFF1D4BC31A51
S1130268584258411CB0BDE8F081766B3046FFF720
S11302789BFF0028F6D0A7F150039E4226D8B8F178
S1130288010F23D1AD69AF4220D8AC421ED8B5F5D1
S1130298E02F1BD802A803F030F921462A1B02A834
S11302A803F035F902A803F034F901F03FF80446E5
S11302B801F054F823460090294605F1200202A8CB
S11302C800F0BAFFB0FA80F04009CBE70020C9E794
S11302D80120C7E7E320BBDE70B54FF0FF3292B0D0
S11302E805460C4600F094FF1A4B98422ED1202262
S11302F8002101A803F0DAFA174B29466846043CA2
S1130308009303F038FB2146684603F034FB684643
S113031803F03AFB03F0DFFA0646B8B940F20220CC
S113032800F070F9202231460AA803F0BFFA0B4BFB
S1130338294609A8099303F01EFB09A8214603F0DE
S11303481AFB09A803F020FB03F0C5FA002012B039
S113035870BD00BFE320BBDE010005430100064376
S113036830B5044693B02022002101A803F09EFA78
S1130378114B21466846009303F0FDFA684603F0E2
S113038803FB03F0A8FA054698B940F2022000F0EE
S113039839F9202229460AA803F088FA074B09A844
S11303A82146099303F0E7FA09A803F0EDFA03F0EC
S11303B892FA002013B030BD00000243000003434A
S11303C810B58CB020220446002104A803F06EFA6C
S11303D80A4B0094039301230193094B694603A82C
S11303E8029303F0EEFA03A803F0CEFA03F073FACB
S11303F8B0FA80F040090CB010BD00BF00000843FB
S11304080400002038B50C46054680B179B10023B4
S11304180B60074B036003F0CDF901301EBF2B6856
S113042843F440432B60236843F40053236038BDEE
S11304381424004013B501A801F086FC9DF805308A
S1130448012B25D12E4B9A6DD20311D45A6B6FF31D
S1130458162242F4BC1242F4A0625A631A6B22F4C4
S1130468704242F440421A631A6B42F4E0621A631F
S11304789DF8043063B94FF000531B68214B1B6887
S1130488214B1B68214B1B68214B1B68214B1B68A4
S1130498214AD2F8803043F00303C2F8803001F0D7
S11304A81BFE00F0A1F808B900F086F803F0E4F8A0
S11304B8044658B900F098F808B100F08DF840F2F5
S11304C8012000F0C9F84FF4017013E000F08CF833
S11304D808B900F079F800F0A1F8012802D900F071
S11304E86BF8FEE700F0A6F840F205439C42EAD117
S11304F840F2032000F0B0F8002002B010BD00BFA5
S113050800C00040004000200080002000C00020FF
S1130518000001200040012000800040012307B5AD
S11305288DF806308DF807304FF04023D3F8943017
S11305385A060FD500F0A4F8A0F2022080B20728CA
S113054808D8C923C340DB0742BF00238DF806300F
S11305588DF807304FF480435B68013308D14FF4BA
S1130568027000F04FF800238DF806308DF807303C
S11305789DF8073063B14FF48040FFF739FE8DF8DA
S113058806009DF806301BB94FF4027000F03AF8E3
S11305989DF8063053B100F027F808B100F01CF8B4
S11305A84FF48040034B986001F09AFD03B05DF866
S11305B804FB00BF00ED00E04CF23C32014B5A80D2
S11305C8704700BF000000204AF6C032014B5A8031
S11305D8704700BF000000204FF20F02014B5A8001
S11305E8704700BF000000204AF6C030044B5B8807
S11305F823F00F039BB21B1A58425841704700BF9F
S113060800000020044A08B51080FFF7EDFF10B978
S11306184FF20F03538008BD0000002008B5FFF710
S1130628E3FF18B1024B588800F00F0008BD00BF63
S11306380000002008B5FFF7D7FF48B1054A5388E2
S113064803F00F010F2914BF013323F00F03538064
S113065808BD00BF0000002008B5FFF7D3FFBFF3B3
S11306684F8F0549054BCA6802F4E0621343CB6017
S1130678BFF34F8F00BFFDE700ED00E00400FA056B
S11306884FF20F01084B5A888A4201D118887047E3
S11306983AB91B8840F20220012B18BF4FF40070AE
S11306A870474FF400707047000000200A4B186828
S11306B830B9B1F5205F0DD8012208481A60704797
S11306C8012806D1B1F5005F03D8022204481A6054
S11306D870470020704700BF28100020A435002070
S11306E8A415002031B1044A1368002BC4BF03F1D8
S11306F8FF331360704700BF2810002002232DE940
S1130708F04F8846164600278BB0DFF8C490DFF810
S1130718C4A005908DF81F309DF81F20022A07D029
S1130728002E48D041F20231012A18BF0F4642E098
S1130738D9F80010234DC1F540730893DAF8003056
S1130748214809930DF11F0302930023019309AB78
S1130758009308AA1D4B294402F0FAFC48BB9DF8F3
S11307681F3063B3089BD9F8004029461C4424F081
S1130778030B43465A46059802F039FE14F0030465
S1130788074605D02246284605EB0B0103F075F809
S1130798DAF800200999C9F800408A42A2EB01045A
S11307A804D90A482246014403F067F8CAF800400D
S11307B8B2E741F2033738460BB0BDE8F08F41F297
S11307C80237F8E7A01000202C100020A413002002
S11307D89C100020A013002008B5702200210648B0
S11307E803F064F801220020044B1A70044B1860CB
S11307F8044B186008BD00BF2C100020A55D002024
S11308089C100020A01300202DE9F0479A465B684D
S1130818074688461446002B36D0204B1E78A6B1CE
S113082800221A7051F8043B052203661C4B1D482C
S113083800F076F858BB1B4802F07EFBD7F88C60B2
S1130848194B9E4214BF11261926DFF86490A41B85
S1130858D9F80050C5F50073A3420BD200225146C3
S11308683846FFF74BFF80B9D9F80050C5F5007337
S1130878A3420FD30D48224608EB060128442C4412
S113088803F01CF8C9F800400020BDE8F08741F2E5
S11308980530FAE741F20430F7E700BFA55D002010
S11308A8A85D00202C100020F80C0CF8A4130020DC
S11308B8A0130020436D3BB9D0F88C00034B984239
S11308C814BF11201920704701207047F80C0CF848
S11308D838B54B6805460C46ABB10122FFF70EFF4D
S11308E890B90B4B1A6852B1FF210A4B032A0CD951
S11308F8234604222846074902F079FD20B906490F
S1130908064802F0A2FC002038BD99540132EDE7F4
S11309189C100020A0100020A85D00202C100020AE
S11309282DE9FF41044668461D46E84602F099FC55
S1130938002838D12A466946204602F065FC074655
S113094820BB039AB2F1804F25D240F6FF731749B2
S1130958B2F5800F28BF0B469E1826EA0306616984
S1130968964238BF164611B1A36AB34215D0284639
S11309786B68984700233146636128462B6898477B
S1130988606150B92946204602F035FC02273846F2
S113099804B0BDE8F081064BDEE798E80F00A662D4
S11309A884E80F00F3E70427F1E700BFFFFF0F0017
S11309B8FFFF3F000068024BC31A58425841704772
S11309C8FD0707FD034B044A90420CBF184600205C
S11309D8704700BFA43A0000FD0707FD30B5024682
S11309E800230C25054905FB03F460180C599442AF
S11309F803D001330D2BF6D1002030BDB83A0000E6
S1130A08F0B50023082787B0CDE9013315463B46E6
S1130A18009704AA044602F066FC41F203039842D4
S1130A28064623D194F8433053B13A46E06C04A9FE
S1130A3802F06DFD04AA3B461146A06C02F04CFD81
S1130A48059A049B6A6094F843202B6052B9094ABA
S1130A58934207D0084A934204D00822E06C04A9C0
S1130A6802F055FD6B68236500236365304607B0C3
S1130A78F0BD00BFF70A0AF7FC0404FC2DE9F041B5
S1130A8800254FF0FF3704468846164603F0200336
S1130A9880F842301822FF21C0E91855A0F84050C8
S1130AA880F84350A0F8445080F84650C0F8887045
S1130AB8683002F0FBFE88222946C4E91286C4F88D
S1130AC88070C4F8847004F1900002F0EFFE074BC4
S1130AD8C4F82071C4E9463584F8245116B1304667
S1130AE802F00BFD0020BDE8F08100BF0001010108
S1130AF82DE9F04F9DB09B46CDE909230023044618
S1130B080E464FF00109269D0B930B9A5A4501D3C3
S1130B18002022E194F84630142BF7D8DFE813F0CC
S1130B28B700FC00F600910078006C01C60178005B
S1130B38BE01780037007800BE0103037303150073
S1130B486201B802B802470271030027636D0F2BD4
S1130B5800F2E080102320460093CDE9019740235A
S1130B680CAA09A902F0BFFB41F20303984240F022
S1130B78A280D4F8488000F009FC80230221CDE942
S1130B8800030DAA0123404602F081FCDEE7DFF8EA
S1130B98C0A3636D072B00F23B8138234FF008088C
S1130BA80DEB03022046CDE90199CDF8008009A98F
S1130BB802F099FB41F2030398427CD1337843F065
S1130BC8040333700F9BB36273785B071CD5002052
S1130BD8236DCDF830A0C4F8843094F845306066AD
S1130BE843F0020384F84530EF686FB104222B68A0
S1130BF80CA9B847606E2B684246EF680EA94044BA
S1130C08B847636E103363660B2384F84630C0E735
S1130C184FF0FF08D4E914739F427BD9FF1ADDE92A
S1130C280A329B1A94F84020032F134440F242815D
S1130C38032B00F24281204609A902F034FB00206C
S1130C4839E00127636D072B00F2E2800823204670
S1130C580093CDE9017740230CAA09A902F043FBCC
S1130C6841F20303984226D133780D9A43F00203E4
S1130C7833700C9B7360236D083B7362002A00F089
S1130C88EE80142384F8463041F2010013E0204634
S1130C980CAA09A9FFF7B4FE41F2030398420AD14A
S1130CA80D9B0C9A236500236365A74B9A42E8D1F0
S1130CB8022384F8463041F203030790079A9A42C4
S1130CC83FF423AF48E0082320460093CDE9019779
S1130CD840230CAA09A902F006FB41F20303984237
S1130CE8E9D10C9B03F07F43B3F1407F05D0142373
S1130CF841F2090084F84630DDE70D9BD90706D593
S1130D0894F8423043F0010384F842300027636DBD
S1130D18072BD8D90123C6E020460CAA09A9FFF756
S1130D286FFE41F203039842804609D10C98FFF7FD
S1130D3855FE0746A0B9142341F2080884F8463042
S1130D4841F20303CDF81C80079A9A423FF4DDAEC2
S1130D58079B0BB10023F37007981DB0BDE8F08F13
S1130D68437994F824219A4205D9142341F20E08B0
S1130D7884F84630E4E70168744A914205D0028950
S1130D88D20748BF013384F8243194F84230D80795
S1130D980DD53A8994F84330910706D53BB114230D
S1130DA884F8463041F20108CAE7002BF7D00CA8B2
S1130DB8FFF700FE18B93B7984F84630C0E70C9871
S1130DC8C4F88C00FFF7FEFD94F842309A06F2D579
S1130DD80028F0D04368002BEDD02046984700281F
S1130DE8E9D0DFE7226D0123A265002284F84330AD
S1130DF8E26584F8463088E6402200210CA802F017
S1130E0855FD0127D4E91432934204D884F8467076
S1130E1841F203004FE7009320464023CDE90177D0
S1130E280CAA09A902F05FFA41F2030398427FF47D
S1130E3842AF0DF1300C06F108030DF1480E62467D
S1130E4803CA724518605960944603F10803F6D141
S1130E5810681860337843F001033370D2E7042331
S1130E6884F8463094F84530626643F0010384F808
S1130E784530E7E6042320460093CDE90177402373
S1130E880CAA09A902F02FFA41F2030398427FF44D
S1130E9812AF236D042B02D90C9B23660127636DC3
S1130EA8032BE7D9092384F84630B1E700236366A6
S1130EB807239EE79F423FF6BEAE402F28BF402738
S1130EC89F4228BF1F46032F88BF27F003074023EC
S1130ED82046CDE9019900970CAA09A902F003FA62
S1130EE841F2030398427FF4E6AE94F84620072AB9
S1130EF828D1D5F808A0BAF1000F23D02B683A46B8
S1130F08606E0CA9D047636E3B44636682E60CA905
S1130F1801F803800133032BF9D9042FC7F1040A1C
S1130F2888BF4FF0000A092ABA4413D12B46524607
S1130F3820460CA902F05BFA00283FF46BAE41F29C
S1130F480200B8E63B46E6E7EB17A603F90707F9FC
S1130F58EB17A65E042A1FD173789F077FF55AAE54
S1130F68EB68002B3FF456AE626E042A0BD80AEBEA
S1130F780203062B07D90DAB9B1A1A68C4F8842000
S1130F884FF0FF321A60EF682B685246606E0CA966
S1130F98B847636E5344B8E70B2A7FF43BAE7378C3
S1130FA858077FF537AEEF68002FEDD132E694F895
S1130FB8427017F0200769D0D4F88C00FFF702FDBF
S1130FC8059000283FF460AE4FF0010A42E0002B80
S1130FD85AD0059B002B57D01B69002B54D02046B0
S1130FE89847DDE90A329B1A94F840201344834257
S1130FF8FFF421AED4E91421A2EB0108B8F1400FA3
S113100828BF4FF04008984528BF984620464023FB
S1131018CDE901AACDF800800CAA09A902F063F968
S113102841F2030398427FF446AE94F8423099069D
S113103810D5059B002B3FF427AE9B681F46002B59
S11310483FF422AE2B46424620460CA9B847002856
S11310587FF431AED4E9142194F84230914203F07C
S11310682003B4D3002B3FF455AE059B002B3FF46B
S113107851AEDB68002B3FF44DAE29462046984715
S113108800283FF447AE16E60120AAE705979BE738
S113109800218A6A496B1269503A91423FF6F4ADCD
S11310A8112B0AD194F81831002B7FF433AE142392
S11310B841F2060084F84630FDE594F84430002BEC
S11310C87FF428AECDE901334023204600930CAACF
S11310D809A902F008F941F2030398427FF4EBAD41
S11310E8E06C02F016FA94F81831D4F84C806BB11D
S11310F804F1B403009304F19403404614AA0CA920
S113110800F09AF850B10023F370D0E700F00EF91C
S1131118074600F023F93B460090EEE70123F370FD
S113112884F84430F6E500234FF00408CDE9013390
S113113820464023CDF800800CAA09A902F0D3F870
S113114841F20303984209D1D4F888202F4B9A42DC
S113115806D0142341F2050084F846300790FBE5D5
S11311680123F37094F84530DA0707D5EF682FB1F7
S1131178424640462B6804F18401B84794F8453048
S11311889B0707D5EF682FB104222B68104604F19A
S11311988401B847236E6BB36F685FB34FF0FF33B6
S11311A804F180080422414608A8089302F055FB7C
S11311B828B10422414648F204002B68B84704F1D8
S11311C868090422494608A802F047FB90B10023A5
S11311D89B6A1422D3F8108004F16C0108F108000A
S11311E8D5E90037B847D5E900370422494608EB62
S11311F80200B8470123B3700E23002084F8463058
S1131208ACE70023F37041F20700A6E5E320BBDE58
S113121830B501240025074B01445C609D601A61C8
S1131228DC60884201D1586A30BD10F8012B1A627B
S1131238F7E700BF008008402DE9F0439BB00E4655
S113124815461C460746DDF88890002861D0002919
S11312585FD0002A5DD0002B58D02F4B2F4AB9F10C
S1131268000F0CBF984690462022002112A802F0D5
S11312781DFB2B4B414611A8119302F07CFB202146
S113128811A802F078FB0122264B029403920493DE
S1131298CDF814900692079354B1B9F1000F07D012
S11312A802A911A802F0B0FA05A911A802F0ACFA33
S11312B8089701271B4C08A911A809970A9402F05A
S11312C8A3FA0BA911A80B960C970D940E950F97DA
S11312D8109402F099FA0EA911A802F095FA11A82F
S11312E802F052FB104B01934FF098435A6CD20210
S11312F8FCD55B6D40F2046003F470230193019BF9
S1131308002B08BF00201BB0BDE8F083DFF808807D
S1131318AAE740F20160F6E71F24FC841F2400803A
S113132800000106200000207856341200B59BB056
S113133828220021684602F0B9FA402300216846B1
S11313480AAA00F00FFD20F010000128024818BF77
S113135800201BB05DF804FB4CE30B0000B59BB008
S113136828220021684602F0A1FA40230021684699
S11313780AAA00F0F7FC20F010000128024818BF60
S113138800201BB05DF804FB6CE30B0000487047B9
S113139886E20B002DE9F3471446DDE90A920D466F
S11313A81F4600284CD1002C41D013683F2B42D84B
S11313B85168002941D02549002F14BFB8468846F2
S11313C803F03F061B19136022BF536801335360AF
S11313D8C6B3C6F1400A544523D32946524609EBFD
S11313E8060002F06BFA0123264400934A463B4662
S11313F841460020A6F1400400F078F83F2C5544FB
S11314080DD9B846A3092A46009341463B46002015
S113141800F06CF824F03F031D4404F03F0434B199
S113142800262246294609EB060002F047FA002066
S113143802B0BDE8F087B846C2E7DFF81080BFE71E
S11314480348F5E73F2CDDD8EBE700BF943B0000E9
S113145880AFFFFF2DE9F0411746146886B01E4699
S1131468E3008DF80F3063098DF80E30630B8DF8A7
S11314780D30630D8DF80C3053680546DA0002EB25
S113148854728DF80B2004F03F045A09372C8DF858
S11314980A204FEA53324FEA53538DF809208846FD
S11314A894BFC4F13802C4F17802CDE900178DF86D
S11314B808300D4903460020FFF76CFF08222B462D
S11314C80020CDE900870DEB0201FFF763FF2846F2
S11314D805F1200350F8042B984246F8042BF9D15F
S11314E8002006B0BDE8F081543B0000F0B5174673
S11314F8242293B00E46044600210DEB02001D463B
S113150802F0D4F901204FF00052009701900292A2
S1131518039604900592069507900892002C2FD103
S1131528189C194BA401214609A8099302F023FA2F
S1131538029B03A91C430294059B09A843F02003BA
S11315480593089B43F02003089302F05DF969466C
S113155809A802F059F906A909A802F032FA09A85B
S113156802F012FA4FF098435A6CD202FCD55B6D24
S113157813F4702F14BF6FF06F00002013B0F0BD88
S11315886FF07100FAE700BF000401032DE9F04190
S1131598A2B0502204460D460EA8002102F086F996
S11315A83422002101A802F081F901A800F0EAF927
S11315B8049B012B0ED800234FF0FF322360012334
S11315C8AB4203D3002022B0BDE8F08144F82320C5
S11315D80133F5E7AB426DD302F04BF8059B0C22BF
S11315E80EA90646DF6802F0AAF80028EBD1DFF856
S11315F8D0800E9B434516D1109A0EA9304602F0AE
S11316089EF84FF0FF3210990EA8FFF701FE2B4BFE
S1131618984236D04FF0FF3304EB8505AC422DD108
S113162840F20650CFE737440C2238460EA902F0A0
S113163886F80028C7D10E9B43450BD04FF0FF33E3
S113164804EB8505AC4202D140F20550BBE744F8EF
S1131658043BF7E70EA93846109A02F070F8059B88
S11316683046D96802F0A8F80028ACD13046109A60
S11316780EA902F07AF80028BED0A4E744F8043B87
S1131688CCE7109B2246103B9B08AB4228BF2B4655
S113169810A904EB8300824207D14FF0FF32AB421A
S11316A890D244F823200133F9E751F8046F42F843
S11316B8046BF0E740F2045085E700BFE320BBDE8B
S11316C839528FE14422F0B5A3B00C4606460021F6
S11316D80DEB020002F0EAF80123304A0021CDE9BB
S11316E80E235023342201A8109302F0DFF801A836
S11316F800F048F9049BA3424CD3012B08D8336863
S113170840F204500133012B98BF002023B0F0BDF0
S113171801F0AFFF059B102C214628BF1021DF687C
S113172833460546074410AA06EB8100834227D1B5
S11317384FF0FF330EAC102927D14C214FF0FF3264
S11317482046FFF765FDC043059B2190D9683846BC
S113175802F032F80028D9D150222146384602F046
S113176804F80028D2D1059B2846D96802F024F849
S11317780028CBD150222146284601F0F6FFC5E7C0
S113178853F8044B42F8044FD0E704EB8102D360CA
S11317980131D0E740F20450B8E700BF39528FE175
S11317A831B10A4B5A68824205D80023C1E9003393
S11317B840F201407047013053F8302003EBC00376
S11317C85B6800200A604B60704700BF183C00004B
S11317D870B40C4611461A460D4B5D68854210D903
S11317E8013003EBC0056D68A618AE420DD8A542BA
S11317F80BD3954209D353F83000204470BC01F050
S11318089EBF40F2014070BC704740F20240FAE7C4
S1131818183C000030B5CA681B4B04469A420D4672
S1131828A3B019D100F055FCD4F82432174A013377
S113183852F83330D4F82C221344984208D3803316
S1131848984209D241F20D03C4F8303223B030BDB6
S113185800F540409842F5D88023D4F82C1202AA07
S1131868D4F82402FFF7B4FF80232146009502AA86
S113187804F12C00FFF73CF9D4F82C32C4F83002F8
S11318888033C4F82C32E1E773200000183C0000D0
S113189870B50D46002186B00DF1070302931E4B67
S11318A804461646116028461C22CDE903338DF8F8
S11318B80710059301F0FAFF9DF8072052B994F830
S11318C87230132B06D0D4F830321BB9D4E98A31DC
S11318D8994219D32378990744BF61683160DB07BB
S11318E809D504F1080304F1240153F8040B8B42CD
S11318F845F8040BF9D162B9237840F20640002B6D
S113190818BF002006B070BD204602A9FFF782FF69
S1131918D2E70020F6E700BF8536000070B40C4615
S113192811461A460D4B5D68854210D9013003EB08
S1131938C0056D68A618AE420DD8A5420BD39542D2
S113194809D353F83000204470BC01F00EBF40F2B4
S1131958014070BC704740F20240FAE7183C0000AE
S1131968074B5A68824207D9013003EBC002516819
S113197853F8300001F020BF40F20140704700BF27
S1131988183C000070B5054688B0C0B14FF4403229
S113199800236C46C0E900230A4B05F114061A78A3
S11319A85B680272C360684600F06EF80FCC0FC61D
S11319B894E80F0086E80F0005F114032B6108B0C2
S11319C870BD00BF183C000000B5ADF5137D4FF4A1
S11319D80D7205A901F07EFE80B904230DEB030105
S11319E88DF81530064BC1E90000886005A8CB6066
S11319F801F087FE0DF5137D5DF804FB0020F9E77F
S1131A0873200000002300B59B6AADF5137D9B6825
S1131A188B4204D300200DF5137D5DF804FB4FF4CD
S1131A280D7205A901F056FE0028F3D1022301A97D
S1131A388DF81530044BC1E90000886005A8CB6017
S1131A4801F05FFEE7E700BF7320000010B5ADF5B5
S1131A58127D05AC4FF40D72214601F03BFE70B9BE
S1131A6801238DF81530074B01A9C1E90130C8607D
S1131A7820460C6001F045FE0DF5127D10BD0020D6
S1131A88FAE700BF4D20000070B504460646044D31
S1131A980FCD0FC495E80F0084E80F00304670BDE1
S1131AA8F83B0000024BD86900F00100704700BF02
S1131AB800000340054B064A06498B4200D3704791
S1131AC852F8040B43F8040BF7E700BFA85D0020A5
S1131AD8343C0000B85D00200021044B044A9342C2
S1131AE800D3704743F8041BF9E700BF1010002027
S1131AF8A85D0020044B054A9A60D3F8882042F474
S1131B087002C3F88820704700ED00E00000000070
S1131B18F0B5114A114C124E00F00105E3695F0754
S1131B2813D40DB9334213D103EA00078F4207D106
S1131B380B4A1A40002A14BF6FF001000020F0BDC0
S1131B48013AEBD16FF00200F9E74FF0FF30F6E706
S1131B586FF00100F3E700BF80969800000003408F
S1131B680200010070B5134C6061E3695B071ED481
S1131B780E4656F8043B8D18A361AE420BD10423DC
S1131B88002121202361FFF7C3FF58B9BDE8704045
S1131B982120FFF7BDBF08210846FFF7B9FF10B1A0
S1131BA80423236170BD56F8043BA361E5E74FF0B5
S1131BB8FF30F7E70000034038B541F671330122DE
S1131BC80C4C0021E569E3630B4B05F48035DA60BE
S1131BD80223606121202361FFF79AFF10B92120B5
S1131BE8FFF796FF0122054BDA600DB10023E3638A
S1131BF838BD00BF0000034000100340002003402C
S1131C082DE9F843174B1646DA69894602F48038F9
S1131C1841F67132DA630122074603F58053124D07
S1131C28DA6066B930460122104BDA60B8F1000F69
S1131C3803D00022A3F50053DA63BDE8F88307F55F
S1131C4800542C40E41BB44228BF3446494622467B
S1131C583846FFF787FF0028E5D12744A144361BFF
S1131C68DFE700BF0000034000E0FFFF002003405F
S1131C782DE9F04301264FF450252C4C2C4F41F606
S1131C8871387E6044F8205030250024DFF8B0C055
S1131C9805FB00C5EC652C662C67264C06FA00F09B
S1131CA8D4F81CE0C4F83C8004F58054DFF8948030
S1131CB8E660DFF8809043B901211F4A1EF4803F93
S1131CC8D1602CD10020BDE8F08301F500546FF3F6
S1131CD80C04641A9C4228BF1C46C9F81410D9F88D
S1131CE81C90A60819F0040F1CD1013E360146F0D9
S1131CF860566E66AA66C5F86C807862DCF8346053
S1131D083042FBD04FF004090C4E21447063A6F511
S1131D189036B8622244C6F810901B1BC9E7C9F86C
S1131D283C30CFE74FF0FF30CDE700BF0040044020
S1131D380010044000000340002003400020044039
S1131D480000044018000340054B5B69C3F3851287
S1131D58827003F03F021B0B42700370704700BF90
S1131D6800C007401FB5044608B302B3402B1ED178
S1131D7893071CD1C1B1012919D14FF400710D4B3E
S1131D8801920B4323600023C4E901332362012336
S1131D980293094B204601A9039301F012FE204641
S1131DA801F0D6FD04B010BD4FF48071E7E721209F
S1131DB8F8E700BF010008FF400000202DE9F041CA
S1131DC8012905460E4690461F4692B04AD8046833
S1131DD824F04003802B02D0B4F5807F45D1202223
S1131DE800210AA801F062FD234A244B0121012E97
S1131DF808BF134609932B1D0093E408204B44F0B5
S1131E080054019109A80294CDF80C80049105931B
S1131E18069707916946089301F0F6FC03A909A8F7
S1131E2801F0F2FC06A909A801F0CBFD296809A86C
S1131E38C90801F0A0FD102109A801F09CFD01F0DA
S1131E4883FDA8B909A801F09FFD4FF098435A6C87
S1131E58D202FCD55C6D01F079FD04F4702012B057
S1131E68BDE8F0816FF02000F9E76FF07100F6E744
S1131E784FF0FF30F3E700BF000100040001010444
S1131E88100000202DE9F04F07468946984616466B
S1131E9899B05AB115683B6823F04002802A03D0F0
S1131EA8B3F5807F40F0A78000240DE01546F2E7E3
S1131EB88DB1239B229A1B5D525D01355340249AB0
S1131EC805F00F05135501344C45F1D306B13560BF
S1131ED84FF0000B68E0A9EB040ABAF10F0F0BD816
S1131EE8239B03EB040A249B1C44239B03EB090B4D
S1131EF8DA4560D14C46E7E72022294610A801F0CC
S1131F08D5FC3E4B3A680F933B1D00930123D2083E
S1131F1842F0005201930292394ACDF80C8004939E
S1131F280592CDF8188007930892239A249922449D
S1131F382AF00F0A099221444AF000520A930FA882
S1131F480B920C9169460D930E9201F05DFC03A966
S1131F580FA801F059FC09A90FA801F055FC0CA918
S1131F680FA801F02EFD06A90FA801F02AFD396873
S1131F780FA8C90801F0FFFC51460FA801F0FBFCAB
S1131F8801F0E2FC90B90FA801F0FEFC4FF0984371
S1131F985A6CD202FCD5586D544400F4702B01F0ED
S1131FA8D5FCBBF1000F9BD0584601E04FF0FF3041
S1131FB819B0BDE8F08F55B1229A1AF8013B525D69
S1131FC80135534004F8013B05F00F0590E74246FC
S1131FD801213846229BFFF7F1FE0028E8D108F1D9
S1131FE8100212F8013D0133DBB21370002BE3D168
S1131FF89045F6D1E0E76FF01F00D9E7030300042A
S113200810000020C0F30C032DE9F04104460F46EC
S113201816460BB900F0E0F804F500556FF30C050B
S113202804EB0608A84507D8324639462046BDE8D9
S1132038F041022300F0D7B8284600F0CDF805F5A2
S11320480055EFE770B40025AD6A03462E69864251
S113205809D86C6913449C4205D3B3F5E02F02D820
S113206870BCFFF7CFBF70BC7047B0F5362F70B5A2
S11320780D46144615D2C0F53623934200F50046A2
S11320880FD338B9836A5A69B2F5004F02D918696F
S113209800F0A2F8224629463046BDE87040FFF712
S11320A8B1BF70BD006900F0FE00B0FA80F04009CD
S11320B870474FF0FF3313B5044601A80193FEF7A8
S11320C87FF920B1019BA3422CBF0020012002B05C
S11320D810BD4FF40040704701F02FBB01F091BBD5
S11320E803461846016881F3088881F30988406823
S11320F88746FEE74FF40170FEF7AEBAB1F50D7FDF
S113210810B504460FD34FF40D72002101F0CEFB35
S113211804F5DE7204F5AA7104F12C000023BDE86D
S11321281040FEF7ABBC40F2052010BD13B50446C1
S1132138009101462C30FEF7DBFCC4F8300218B1DC
S113214841F20703984204D1A37823B1E07800F25E
S1132158022002B010BD40F20120FAE72DE9F04355
S113216887B00DF1080904460E46174600211022CF
S113217848461D46DDF8388001F098FB00211C22F2
S1132188C8F80010284601F091FB32463B46214628
S1132198CDF8009004F12C00FEF7AAFC23789A07E6
S11321A844BF6268C8F80020DB0709D504F10803B6
S11321B804F1240253F8041B934245F8041BF9D193
S11321C8237840F20640002B18BF002007B0BDE872
S11321D8F0834FF40D70704708B5FFF7EDFCB0FAC3
S11321E880F0400908BD072B10B5044618460FD8DF
S11321F862B142EA04039B070AD113460A46214600
S1132208FFF736FDB0FA80F0400910BD0120FCE765
S11322180020FAE7134610B542B103439B0707D1E0
S1132228FFF7EEFCB0FA80F0400910BD0120FCE78E
S11322380020FAE7826CF0B5531EB3F5887F18D8EE
S1132248D0E9093CD0E90B47C91A914228BF114685
S11322584569866B2FB9C768A7EB040E8E4598BFEE
S113226807630C44521AC462826419448B4201D134
S11322784362F0BDB34234BF644600249A1B2A4427
S1132288125DEA540133F1E72DE9F04F93B0099157
S11322980E92036B416A0893C36A0293089B002B4E
S11322A840F0A480029AC3689B1A099A521A9A4267
S11322B840F29C800B444FF0FF3CD0E90DBA85688E
S11322C80A930CFA05F5ED430F950025C36B0B959E
S11322D80393036C04690493436C026A0593D0E97D
S11322E800360CFA06FC6FEA0C050D934369119548
S11322F80693836A0793D0E906370F9D029EB7F1C8
S1132308807F05EA060808EB0B1C3CBF13F8015B49
S11323183F0234F81C6038BF45EA0222FD0A7543BF
S113232895424FEA0B1E40F2C780C6F5006706EBDC
S1132338571724F81C70089E029F04F66C6C3E43E1
S113234814D0119E37400D9E07FA06F800294FD184
S1132358079E013E069FBE5D0D9FC7F1080E4FF410
S1132368C06746FA0EF6464407FB06CC029EBBF14C
S1132378060F06F10106029647D80126BBF1030FA2
S113238894BFABEB0B0BABF1030B0196019EB5F1BC
S1132398807F38BF13F801EB4FEA460638BF2D0299
S11323A83CF8067038BF4EEA02224FEAD52E07FBE6
S11323B80EFE964501960CEB06081BD9C7F5006579
S11323C807EB5515AFB27546019EA8F80070FF2EAD
S11323D8DCD9019F069E77542F4601310A9D8D4210
S11323E840F229830E9D9D4287D824E3099B62E726
S11323F84E1EAFE7019EA7EB57170136A5EB0E0556
S1132408A2EB0E02BFB20196DEE7079FA1EB0A0614
S1132418514528BF0027BE46069FBBF1090F3E441D
S113242816F80E908CBF06260326ABEB060B012686
S11324384FF480780196019E4FEA490909EA080792
S1132448B5F1807F0C9708EB060709EA080638BF40
S113245813F801EB37440CEB470638BF2D023CF860
S1132468177038BF4EEA02224FEAD52E07FB0EFE3C
S11324781096019E96454FEA460601960FD9C7F570
S1132488006507EB5515AFB209EA080528EA0508FF
S11324987546109E3780019EFF2ECCD999E7019E80
S11324A8A7EB57170136DDF83080A5EB0E05A2EB34
S11324B80E02BFB20196ECE77F1BA6EB5616B7F1E6
S11324C8807F24F81C60A2EB05020BF1C0093CBF15
S11324D813F8015B3F0234F8196038BF45EA022259
S11324E8FD0A754395424FEA490C40F2D680C6F579
S11324F8006706EB571724F81970059F0BF10C0BAE
S11325080C97049F04F264660597039FCDE903A71B
S1132518B5F1807F3CBF13F8017B2D02B6F800C0EB
S113252838BF47EA0222EF0A0CFB07F7974240F24A
S113253870814FF0000ECCF500650CEB5515358015
S113254806EB081604364FF008094FF0010CB7F1F2
S1132558807F38BF13F8018B4FEA4C0C38BF3F0219
S113256836F80C5038BF48EA02224FEAD72805FB50
S113257808F8904506EB0C0A40F27B81C5F5006724
S113258805EB5717BDB24746CC45AAF80050DED331
S1132598AEEB090E0EEB0C05BBF10B0F019540F2E7
S11325A8B782032D94BF4FEAC51E4FF49C6E4FF0BB
S11325B8010598BF0EF5587EB7F1807F4FEA4505AF
S11325C838BF13F801CB05EB0E0838BF3F0234F8C7
S11325D8086038BF4CEA02224FEAD72C06FB0CFCF1
S11325E8944540F25081C6F5006706EB5717BEB212
S11325F867463F2D24F80860DED9403D032D3FD9B6
S113260805F0010C0D2D4FEA55064CF0020C00F2B2
S113261850814FF00108013EC5F52B7E0CFA06FCEB
S11326280EF1030EE6444FEA4E050C95C246654684
S11326380B960C9EB7F1807F4FEA480838BF13F811
S1132648019B06EB080E38BF3F0234F80EC038BFB2
S113265849EA02224FEAD7290CFB09F9914540F2CD
S11326681B81CCF500670CEB57171FFA87FC4F4604
S11326780B9E24F80EC0013E4FEA4A0A0B96D8D1A5
S1132688089E05F1010A002E40F00E82029EAE4219
S113269800F20C824162012003E2A6EB56167F1B6E
S11326A8521B24F81960089D029E3543F3D0B7F1F4
S11326B8807F38BF13F8015B0CF1180938BF3F025B
S11326C834F8096038BF45EA0222FD0A7543954289
S11326D851D9C6F5006706EB5717B5F1807F24F882
S11326E809700EF1F00E38BF13F8017BC64438BFE9
S11326F82D0234F81E6038BF47EA0222EF0A7743F6
S113270897421FD9C6F5006506EB5515079E24F8B0
S11327181E50514528BF0026B446069EA1EB0A0563
S1132728354415F80C50BBF1060F7554029D88BF4B
S11327384FF00B0B05F1010598BF4FF0090B013160
S113274802954BE6A6EB561624F81E60039ECDF8B8
S11327580CA0B246ED1BD21B059FBBF1060F0C97CC
S1132768049F8CBF4FF00B0B4FF0080BCDE904A767
S113277804F66826CCE67F1BA6EB5616B7F1807FD5
S113278824F80960A2EB05020CF1300E3CBF13F8E3
S1132798015B3F0234F80E6038BF45EA0222FD0AA5
S11327A87543954206D9C6F5006706EB571724F812
S11327B80E70D1E77F1BA6EB5616B7F1807F24F87D
S11327C80E60A2EB05020CF1480C3CBF13F8015B48
S11327D83F0234F80C6038BF45EA0222FD0A75430B
S11327E895420AD9C6F5006706EB571724F80C700A
S11327F8DDE9036703970496AEE7521B7D1B059F2B
S1132808A6EB561624F80C60039E0397049F0597BD
S1132818F1E7ED1BACEB5C1CB5F1807FA6F800C0BA
S1132828A2EB07023CBF13F8017B2D02B6F802C0E5
S113283838BF47EA0222EF0A0CFB07F797420BD985
S1132848CCF500650CEB551506EB081875804FF0B0
S1132858080E08F5827676E6ACEB5C1CD21BA6F86B
S113286802C04FF0100E4FF4807906F50176EF1B85
S11328786BE6A5EB5515A7EB0807A2EB0802ADB26A
S11328880CF1010C80E6A6EB5616A7EB0C07A2EB9D
S11328980C02B6B20135ACE6ACEB5C1CA7EB09073D
S11328A8A2EB09021FFA8CFC08F1010845EA0A05A3
S11328B8DEE6053EB7F1807F3EBF13F8015B3F02B9
S11328C845EA02227F08D21BD51705F1010E013E05
S11328D805EA07050EEB4C0C2A44EBD1B7F1807FCF
S11328E838BF3F02B4F846864FEA0C154FEAD72C96
S11328F808FB0CFC38BF13F8016B04F2446E38BFB4
S113290846EA022294455AD9C8F5006608EB5616D9
S11329181FFA86F80226BCF1807FA4F846863EF8A2
S113292816A04FEA46070EEB46093EBF13F8016BA3
S11329384FEA0C2C46EA02224FEADC260AFB06F68A
S1132948964248D9CAF500680AEB58181FFA88F85D
S1132958A9F80080B6F1807F3EF817A04FEA47082F
S11329680EEB47093EBF13F8017B360247EA022201
S1132978F70A0AFB07F7974238D9CAF5006C0AEB3D
S11329885C1C1FFA8CFCB7F1807FA9F800C03EF8E4
S113299818604FEA480C3EBF13F8018B3F0248EA1F
S11329A802224FEAD72806FB08F8904529D9C6F52C
S11329B8006706EB57172EF80C70474660E6A8EB3D
S11329C85818A2EB0C0203261FFA88F845F00105F3
S11329D8A7EB0C0C9FE7AAEB5A18921B1FFA88F86E
S11329E8013745F00205ACEB0606B1E7AAEB5A1C21
S11329F8D21B1FFA8CFC08F1010845F00405F71BEB
S1132A08C1E7A6EB561645F008052EF80C606E1CB7
S1132A18A7EB0807A2EB08027FF432AE019CABF1E6
S1132A280C0B04F589740B94DDE903A40394059C49
S1132A3804940C9C0594B7F1807F3CBF13F8014BB8
S1132A483F02C0E906370B9B38BF44EA022283647D
S1132A58029B0262C362039B4162C363049BC0F886
S1132A6838A00364059BC0F834B04364036B23B9EE
S1132A78C368029A934298BF03630999FFF7DAFB84
S1132A88426A0999836C8A4207D282690E998A42FA
S1132A9803D2B3F5897FFFF4FCABB3F5897F50D833
S1132AA8002013B0BDE8F08F089EF0E5BBF1120FCB
S1132AB88CBF4FF00A0B4FF0070B019E0A9D02369C
S1132AC8B5EB010CB0463FF4E5ADB44528BFB446B8
S1132AD8079EA1EB0A05514528BF00263544029EEE
S1132AE866440296A8EB0C060B96079E761BB44523
S1132AF8069E0E4414D8A5EB0108069D614405EB17
S1132B08010C16F808E006F801EBB445F9D165E4C0
S1132B18DDE903A50395059D04950C9D0595CCE772
S1132B28B1460CEB060E069E16F80580079E09F8BA
S1132B38018B0135AE4208BF0025CE45F3D161446F
S1132B484CE44FF489738364AAE72DE9F047D0E98C
S1132B58075301278468D0F82C80A740D0F834C0E4
S1132B68013F066907EA080707EB0C1EB5F1807FE9
S1132B7836F81E900A4407D2914280F0DB8111F89E
S1132B88014B2D0244EA0323EC0A09FB04F4A34293
S1132B9878D2056B06F66C6658EA050519D0D0E9B3
S1132BA800E70125BD40013D05EA080505FA0EF7D1
S1132BB8456AD0F8148005B9856A013D18F80550AE
S1132BC8CEF1080E45FA0EF53D444FF4C06707FBF5
S1132BD80566BCF1060F20D801204000B4F1807FBF
S1132BE8375A07D2914280F0A58111F8015B24027B
S1132BF845EA0323E50A7D43AB4229BF01302C464D
S1132C08641B5B1BFF28E8D90120B4F1807F80F0A6
S1132C182181914228BF00201CE1876BD0F824C091
S1132C284569BC45ACEB070E2CBF0027876A05EB4A
S1132C380E0010F807C001204FF480774FEA4C0CBF
S1132C4807EA0C0E3D187544B4F1807F36F81580F8
S1132C5807D2914280F06E8111F8015B240245EAA3
S1132C680323E50A08FB05F54000AB422BBF0130FE
S1132C782C46774627EA0E0724BF641B5B1BFF28F4
S1132C88DCD9C1E7281B0CF1C00CB0F1807FA3EBA1
S1132C9804034FEA4C0436F81CC007D2914280F072
S1132CA8498111F8015B000245EA0323C50A0CFBBC
S1132CB805F5AB4280F09F8002204FF0000E06F22B
S1132CC8646CB5F1807FBCF8008007D2914280F033
S1132CD8318111F8014B2D0244EA0323EC0A08FB65
S1132CE804F4A34280F0EA800CEB071C00270CF1E3
S1132CF8040C4FF008094FF001084FEA4808B4F1F2
S1132D08807F3CF808A007D2914280F0138111F823
S1132D18015B240245EA0323E50A0AFB05F5AB42F5
S1132D2829BF08F101082C46641B5B1BC845E4D382
S1132D38BEF1030F3FF669AFA7EB09074744032F1A
S1132D4888BF4FF49C674FF001059CBFFF0107F54E
S1132D5858776D0006EB050CB4F1807F3CF807E06A
S1132D6807D2914280F0E68011F801CB24024CEAA4
S1132D7803234FEAD42C0EFB0CFC634529BF013511
S1132D886446A4EB0C04A3EB0C033F2DE1D9403DAE
S1132D98032D7FF63AAF0D2D4FEA550700F2B080A8
S1132DA805F0010C013F4CF0020CC5F52B750CFA2B
S1132DB807FC0335654406EB45064FF0010C4FEA62
S1132DC84C0CB4F1807F36F80CE007D2914280F0C5
S1132DD8B18011F8015B240245EA0323E50A0EFBDE
S1132DE805F5AB4231BF2C46641B5B1B0CF1010C8F
S1132DF8013FE4D109E7401B3444B0F1807FB4F8C3
S1132E0818C0A3EB050307D2914280F0938011F810
S1132E18015B000245EA0323C50A0CFB05F5AB4236
S1132E2822D20EF1F00EB5F1807F36F81E4006D29C
S1132E3891427FD211F8010B2D0240EA0323E80ADC
S1132E486043834208D2B0F1807F71D2914234BF8B
S1132E5803200020BDE8F0872D1A1B1A03204FF029
S1132E680C0E06F6682C2CE7401BB0F1807FB4F8F2
S1132E7830C0A3EB050306D291425BD211F8015B83
S1132E88000245EA0323C50A0CFB05F5AB42E5D36A
S1132E98401BB0F1807FB4F84840A3EB050306D289
S1132EA8914247D211F8015B000245EA0323C50A9F
S1132EB86543AB4224BF5B1B451BCFE72D1BB5F114
S1132EC8807FBCF80280A3EB040306D2914231D27E
S1132ED811F8014B2D0244EA0323EC0A08FB04F41D
S1132EE8A34205D20CEB071707F5827C082700E7F5
S1132EF81B1B10274FF480790CF5017C2C1BFAE678
S1132F08053FB4F1807F06D2914213D211F8015BD8
S1132F18240245EA032364081D1BED0F013D2540E7
S1132F28013FA3EB0503ECD1042706F2446644E70A
S1132F3803208FE700208DE700230122C0E90B332B
S1132F48C0E9123243628365026570472DE9F74F81
S1132F581F464FF0000804469DF830303E68C7F815
S1132F68008001938A461546FFF764F90D9B83F8A0
S1132F780080A36CB3F5897F09D1236A13B90123AF
S1132F880D9A1370206A003818BF012022E0E36C00
S1132F988BB1A36D6EB3042B1FD994F85C30002B4E
S1132FA840F0C780D4F85D20E36412BA22624FF07F
S1132FB8FF32A365E261636A53451ED3A36C002BF9
S1132FC840F0BB80236A002B40F0BC80042300201F
S1132FD80D9A137003B0BDE8F08F5A1CA26515F85A
S1132FE8012B234483F85C203B68013E01333B609A
S1132FF8CFE7042BD1D80323E9E74FF0000B226D68
S11330089AB1D4E9002111444FF440728A40002156
S1133018206902F236728A4222D80122C4E91022B7
S1133028C4E90E22002262632265D4F85880B8F1FC
S1133038000F63D1132E02D9BBF1000F1DD0324605
S113304829462046FFF781FD80B93246294604F116
S11330585C0000F033FCA6653B6833443B60CAE778
S11330684FF4806320F811300131D4E7BBF1000F2D
S113307801D002285AD12A4602E0A6F114022A44B1
S113308851462046A561FFF7FFF8002851D1A369EE
S11330983A685D1B2A443A60761B1D4669E715F8B1
S11330A8091008F1010802F8081009F10109B8F13A
S11330B8130F28D9C4F85880BBF1000F27D104F1A5
S11330C85C0B5A4651462046C4F818B0FFF7DCF8A2
S11330D878BBA369A3EB0B0290452CD3A8EB02039E
S11330E84B4528D839684A44A2EB08031944B0442C
S11330F839602B44A8EB0206A065CEE74FF000091F
S113310804F15B02D3E74E45C9D1C4F8588042465E
S1133118204604F15C01FFF718FD10B93B684B44E5
S11331289CE7BBF1000FCAD00228C8D002230D9A2D
S1133138137001204EE70B204CE7019B002BF5D1BF
S1133148022344E7019B002BFAD04FF0010B56E70A
S11331582DE9F04F89B0DDF848809A469DF84C3047
S113316804460493D8F800308B460293002316468D
S113317817681360C8F80030029BD4E909518D42DE
S1133188079302BF00231D4663624B1BBB4234BF37
S11331980023049B149A28BF7919CDE900322046EC
S11331A8524607ABFFF7D2FE079A029B61699B1A46
S11331B80293D8F8003003901344C8F80030636AC7
S11331C85846A3EB0509924429444A46059300F05E
S11331D875FB059BCB44FB1A5F1933684B4433607A
S11331E8039B23B9B9F1000F01D0002FC4D1039870
S11331F809B0BDE8F08F10B504464B68084621694C
S113320898470023236110BD70B54FF440751646E6
S1133218D1E9003213449D400369044605F236752A
S113322813B1436DAB420ED031462046FFF7E3FF9E
S113323830463368690098472061B0FA80F0400945
S11332486565400070BD0020FCE738B504460D46AE
S1133258FFF7D1FF6B6828466169984700236361CB
S113326838BD042A01D804207047D1F80130B3F5D9
S1133278805F38BF4FF48053C3600A78E02AF2D8DD
S11332880923B2FBF3F303EBC301521AD2B202606F
S11332980522B3FBF2F2826002EB82029B1ADBB2D4
S11332A843600020704770B5D1E90153AB4218D28E
S11332B890F840202A44D21A402A12D80A6890F872
S11332C84040D65C90F841200133224402F03F028A
S11332D801349D4286548B6080F84040EED1012031
S11332E870BD0020FCE72DE9F84390F840C017466C
S11332F89E46D1E90123089DD21A624495420446A8
S11333080E469DF824909DF828800AD9FFF7CBFF34
S113331800286AD1142341F2020084F84630BDE83B
S1133328F883754558D80023BCF1000F01D09D429D
S113333835D1D6E90121914201D29D4244D89D421A
S113334850D129463846D4F88820FDF761FFC4F8DF
S11333588800B9F1000F04D02A463946E06C00F021
S1133368D6F8B8F1000F08D094F843308BB12B4647
S11333783A463946A06C00F0AFF894F8433043B1AC
S1133388E36DA26D2B449342E36524BF002384F8C4
S11333984330636D41F203002B446365BFE794F83F
S11333A84120A25CFA5494F8412094F840C00132B8
S11333B80CF1FF3C02F03F025FFA8CFC84F84120D8
S11333C884F840C00133AFE73268525CFA54B268FB
S11333D801330132B260ACE741F20100142384F8EE
S11333E846309CE741F20200F8E7002097E72DE910
S11333F8F04799465B6804460F469046002B40D038
S113340811F0030340D19B6A006E1B6981181D1DCE
S1133418A9421BD31C33984218D2A842024638BF8B
S11334282A46994294BFC2EB010AC2EB030A101A56
S11334383E18C5F16800104431465246204400F055
S11334483DFA5246FF21304600F030FA48F20403B0
S1133458226E9A420CD848F2070102EB080088420F
S113346806D99B1AFA58C4F880204FF0FF32FA5054
S1133478D9E9003542463946206EA847236E4344AD
S113348823660020BDE8F08741F20200FAE72DE93F
S1133498F04100F120080446404616461D460F46F2
S11334A800F0BCF9DDE90612404600F0BBF9002340
S11334B884F8587063643368C4F859307368C4F87E
S11334C85D30B368C4F861302B0C6DBA84F865308C
S11334D8A4F86650BDE8F0811FB50C46194600F102
S11334E84803CDE90142009300F1440200F1580376
S11334F82030FEF7C7FC04B010BD10B5044600F038
S11335080BF82046BDE81040002100F009B800F08F
S11335180CB8014600F016B86822002100F0C6B9BC
S113352803460020C3E90000704707B500F12803EB
S11335380190009300F108030020FDF72BFF03B06E
S11335485DF804FB08B502460B4600F12801083073
S1133558FDF780FF002008BD3C2230B59FB0002154
S113356805460DEB020000F0A1F94FF0FF333422B9
S1133578002101A80E9300F099F901A8FEF702FAB8
S1133588049C012C1ED921460EA8FDF7FFFF18B193
S113359840F2055398420ED100230EAA52F8041B98
S11335A8481C0AD11EAA02EB830321460EA843F83D
S11335B8405CFEF787F81FB030BDA94205D001333F
S11335C89C42EBD140F20250F5E740F20350F2E797
S11335D830B5ADF50F7D01AC4FF40D7221460020D6
S11335E800F078F840F201250021204600F049F85F
S11335F8A842F9D040F20323984204D040F205408F
S11336080DF50F7D30BD237859070ED423789A071A
S11336181DD4DB07F2D50022E168D4F82402FEF7B2
S113362815FA0028EAD00020EAE7A06AFEF741FD6F
S11336380028EBD0D4F82402FEF7C6F90028E5D018
S11336484FF40040FCF78CFE0028DFD1D6E70022B7
S1133658926A616892689142DBD9D4F82402FEF731
S1133668D1F90028CAD0616A4FF40040FCF734FE4F
S1133678C4E74FF4E0207047FFF7AABF01221A708D
S113368870471FB50023CDE90033CDE90213D0F804
S11336983032044693B9D0E98A329A420ED2694646
S11336A8FEF7B8F8D4F8300270B141F2070240F2DC
S11336B80123904208BF184604B010BDA37833B163
S11336C8E07800F20220F7E740F20120F4E740F244
S11336D80220F1E737B50C46054611462046FEF7A9
S11336E80DFD48B969462846FEF75AF830B9019BDA
S11336F8C4F82452C4F8283203B030BD40F2014063
S1133708FAE738B500F5DE7204460D46202300F5C5
S1133718AA712C30FDF7B2F9D4F8303213B1A0787D
S113372848B938BDD4E98A329A42F8D229462046A3
S1133738FEF770F8F0E7E078F3E700207047B2F599
S1133748402F10B51346044608460BD8B4F5402F4D
S113375808D82344B3F5402F04D8214600F0AEF826
S1133768002010BD40F20240FBE7B2F5402F10B52F
S113377806D8B0F5402F03D88318B3F5402F0ED9D7
S113378840F2024010BDC458013410D104339A42A7
S1133798F9D88B0705D10223FEF725FD03E00023A2
S11337A8F5E7FEF737FD0028EAD00020EAE740F203
S11337B80340E7E70220704738B541EA0003C3F342
S11337C80C030446D3B9B1F5402F02D940F20240A4
S11337D838BDB0F5402FF9D80D18B5F5402FF5D8F8
S11337E8204604F50054FEF7F7FCAC4202D000284A
S11337F8F6D1EBE70028E9D00020E9E740F20440DD
S1133808E6E700207047FEE7436813B94160704754
S11338185B685A68012AFBD1596070472422002149
S113382800F044B870B515460E462422002104461B
S113383800F03CF825F04003802B02D0B5F5807FDA
S113384808D12046314640F8045BEA0800F036F80F
S1133858002070BD6FF01F00FBE70139024410B56A
S1133868904201D1002005E0037811F8014FA342EA
S113387801D0181B10BD0130F2E7884210B501EBE6
S1133888020402D98442234607D8431EA14207D022
S113389811F8012B03F8012FF8E70244824200D102
S11338A810BD13F8011D02F8011DF7E70244034691
S11338B8934200D1704703F8011BF9E70A44431EF9
S11338C8914200D1704710B511F8014B914203F8A9
S11338D8014FF9D110BD4FF098435A6CD202FCD570
S11338E8586D00F470207047B0F5802F24D010D89C
S11338F8B0F5003F22D006D828B3B0F5803F14BFF6
S1133908012048207047B0F5403F14BF01202C2007
S11339187047B0F5302F13D008D8B0F5E02F11D088
S1133928B0F5202F14BF012010207047B0F57F0F89
S113393814BF0120062070474B2070472A20704787
S113394811207047212070470020704700207047DD
S113395808B570B100F018F84FF098435A6CD202C9
S1133968FCD5586D10F4702004D0BDE80840FFF76A
S1133978BBBF212008BD036A042B9FBF00EB830251
S11339880133D16003627047036A052B14D84FF0E2
S11339989842116CC902FCD504339B001365016875
S11339A8103B11604168116050F8081F11604FF016
S11339B898420344984200D1704750F8041F11609C
S11339C8F8E7836813B9816070475B685A68012A0D
S11339D8FBD1596070470000F8B500BFF8BC08BCBB
S11339E89E467047F8B500BFF8BC08BC9E467047B1
S11339F8B814B6F1E0CFF3ADB7DD25C9FA79B7133A
S1133A080000000013B779FAC925DDB7ADF3CFE09C
S1133A18F1B614B80102000000000000443C0000A4
S1133A284000000002000103000000000000000044
S1133A38000000000000000000000000000000007A
S1133A48000000000000000000000000000000006A
S1133A580000000007B0CD5E020000000200010370
S1133A68483C00000040000000000C00F004010085
S1133A78E1200000E5200000F90100000521000014
S1133A8835210000B43B000065210000DB21000063
S1133A98000000000D040000DB200000FD0707FD06
S1133AA8E107000011080000D9080000BD08000063
S1133AB8EB17A6030201000003000000FA0606FA49
S1133AC80F04000003000000F40A0AF405050000CE
S1133AD801000000EB17A65E0A06000001000000C2
S1133AE8F50909F50307000001000000F60808F6C7
S1133AF80608000000000000FE0101FE080800009E
S1133B0800000000FD0303FD0C0800000000000095
S1133B18FD0707FD1308000000000000F90707F976
S1133B281009000002000000F30B0BF3110A000057
S1133B3803000000F70A0AF7120B00000300000054
S1133B48FC0404FC0D0C00000300000080000000CD
S1133B580000000000000000000000000000000059
S1133B680000000000000000000000000000000049
S1133B780000000000000000000000000000000039
S1133B880000000000000000000000006A09E66769
S1133B98BB67AE853C6EF372A54FF53A510E527F62
S1133BA89B05688C1F83D9AB5BE0CD19000100002D
S1133BB88D190000A9170000D91700002519000065
S1133BC869190000CD160000951500006135000044
S1133BD8DD3600008B36000099180000AD1A00008D
S1133BE84737000073370000C1370000BD370000B5
S1133BF81002030028000000280000000020000034
S1133C0800000C0000000000040000000000004058
S1133C18010000000100000000000700006004002B
S10F3C28343C0000A85D002004000000F3
S1133C34B5060000ED0600009501000071010000C6
S9030139C2
