S01B00006275696C642F72656C656173652F7A69676265652E73333714
S21400400008100020696D0000F5AF0000273503009A
S21400401027350300FDAF000005B00000273503007C
S214004020273503002735030027350300273503000F
S21400403009B0000078780400273503002735030010
S2140040402735030027350300273503008168000065
S21400405027350300273503002735030027350300DF
S214004060273503002735030009B500002735030070
S21400407027350300273503002735030027350300BF
S21400408027350300273503002735030027350300AF
S214004090273503002735030027350300273503009F
S2140040A02735030031710000157100002735030025
S2140040B0273503002735030027350300590402007F
S2140040C0E78F0300E38F0300BDFB0100FD8F0300B5
S2140040D0EB8F030019040200EF8F03004DE8010088
S2140040E0990402002735030027350300273503000F
S2140040F0273503002735030027350300273503003F
S214004100273503002735030027350300273503002E
S214004110273503002735030027350300273503001E
S214004120273503002735030027350300273503000E
S2080041302735030027
S214004134F0B5114A114C124E00F00105E3695F0711
S21400414413D40DB9334213D103EA00078F4207D1C3
S2140041540B4A1A40002A14BF6FF001000020F0BD7D
S214004164013AEBD16FF00200F9E74FF0FF30F6E7C3
S2140041746FF00100F3E700BF80969800000003503C
S214004184020001000B4B70B5D96911F480310DD1D2
S21400419401244FF48072084E084DF46020462C64C7
S2140041A41A61FFF7C5FF3464EC6070BD6FF0010060
S2140041B4FBE700BF0000035000100350002003502C
S2140041C438B541F6713301220C4C0021E569E363EE
S2140041D40B4B05F48035DA600223606121202361ED
S2140041E4FFF7A6FF10B92120FFF7A2FF0122054B17
S2140041F4DA600DB10023E36338BD00BF000003504E
S214004204001003500020035070B5134C6061E3693E
S2140042145B071ED40E4656F8043B8D18A361AE42C7
S2140042240BD10423002121202361FFF781FF58B915
S214004234BDE870402120FFF77BBF08210846FFF742
S21400424477FF10B10423236170BD56F8043BA361C5
S214004254E5E74FF0FF30F7E7000003502DE9F84399
S214004264154641F67132164B8946DF69DA63012238
S214004274064603F58053DFF8508007F48037DA608B
S21400428455B9284601220F4BDA601FB10022A3F568
S2140042940053DA63BDE8F88306F5005404EA08041C
S2140042A4A41BAC4228BF2C46494622463046FFF79C
S2140042B4ABFF0028E6D12644A1442D1BE0E700BF4F
S2100042C4000003500020035000E0FFFF45
S2140042D02DE9F04F4FF0FD0BC9B09A460DF11B09C2
S2140042E09DF8503108AFCDF80C90CDF808B0019786
S2140042F0059303890446009383790E4690464188C9
S2140043008288407810F0C6FD054650B10090A3881C
S214004310002062883A4911F001F9284649B0BDE804
S214004320F08F99F8000032F07AF938B12846A38861
S2140043306288344911F0F2F88D25EEE75A46394680
S21400434099F8000032F013F98346002851D0529BAA
S2140043501BB1BDF84C3198424BD8002399F8009019
S2140043600793A9F14102012A5FFA8BF123D8384658
S2140043700139254ADFF898C05FFA81FE734513DBE2
S214004380059B04210792C3B907AF18221F489FED6B
S2140043901A7B02FB060420460A460830394684ED9E
S2140043A0027B15F011FE11E010F8011F0133514099
S2140043B00CFB01F2E2E7059B33B123464A4638463A
S2140043C000960EF08FFCA8E70829DED9B8F1000F9A
S2140043D001D088F80090BAF1000F01D0AAF800B01A
S2140043E0529B002B99D05A46184608A915F0ECFDAA
S2140043F093E7012591E700BF0000000000000000E1
S214004400352204006A220400C59D1C81801000200D
S21400441093010001000000002DE9F04F93B0CDE9B4
S2140044200A32DDE91C530E9353EC102BCDE908013C
S214004430104619468DED060B1E9E15F04FF880B1FE
S214004440DDE906014FF0FF32C54B15F06FF840B9B5
S214004450DDE906014FF0FF326FF4801315F048F8DF
S21400446070B1DDE908019DED060B0E9B1E96CDE9A9
S2140044701C53DDE90A3213B0BDE8F04F00F088B9EE
S2140044800022DDE90601002315F032F8002800F0CE
S2140044903381DDE906A303F1004BCBF30A5016F493
S2140044A08063A0F2FF3008BF06250F9314F044FD8A
S2140044B09BA3D3E9002314F0A9FD9BA3D3E9002313
S2140044C014F0EEFBCBF31304894644F07F5180468C
S2140044D00022A44B504641F4401114F0DFFB94A395
S2140044E0D3E9002314F092FD02460B4640464946A7
S2140044F014F0D6FB15F024F8044614F01DFD8EA328
S214004500D3E900238046894614F080FD0022964BAE
S21400451014F0C6FB15F014F889A3D3E90023074668
S2140045204946404614F072FD80463846894614F0E7
S21400453003FD85A3D3E9002314F068FD02460B466D
S2140045404046494614F0AAFB02460B46CDE90C232A
S21400455014F05CFDDDE90C238046894610461946BA
S21400456014F09EFB0022CDE91001804B40464946E0
S21400457014F076FE00227E4B14F092FB02460B46A9
S2140045804046494614F06CFE00227A4B14F088FB35
S21400459002460B464046494614F062FEDDE90C230F
S2140045A08046894600204FF0804114F077FB024693
S2140045B00B464046494614F073FB02460B46DDE9BF
S2140045C0100114F04DFE07F2FF3700226A4B14F07C
S2140045D067FB00223B0514F019FD52465B468046F9
S2140045E0894614F0A3FF002840F08980CDE90C89A5
S2140045F004F16303C62B8CBF0527042731051BD5A2
S21400460053A3D3E900235046594614F085FF0028EB
S2140046107FD051A3D3E900235046594614F068FFD3
S214004620002876D00027A542C6BF2C1B04F1FF3514
S21400463000253C4646F480660E9B9F422CBF4FF0FA
S2140046400008A3EB070816F0020903D0002F18BFD6
S2140046504FF000083CB1DDE90C235046594614F0F3
S214004660FFFD82468B46DDE906010022002314F09A
S2140046703FFF10B10BF100439B46DDE9080126F42D
S2140046800063CDE90183DDE90A324BEC10AB0095FF
S21400469000F07EF802465FB3DDE9091316F0200F3E
S2140046A000F10105089E0CBF65204520B047DDE9F6
S2140046B008010523002205930A23002CCDE90232C7
S2140046C007F1FF374FEAD473B8BF64422A46019316
S2140046D004970A9B009433F0FEFD0246B9F1000FE2
S2140046E006D00B9BC41A0B9B1A190E9BA34245D8E7
S2140046F0104613B0BDE8F08FDDE906ABCDE600222C
S214004700404649461A4B14F0ABFD013CCDE90C017E
S2140047106EE7002D90D00F9B002B8DD0013D8BE7D0
S214004720FB799F501344D33FB3C8608B288AC63F9B
S21400473061436F63A787D23F71A379094F930A40FD
S2140047401655B5BBB16B0240EF39FAFE422EE63F76
S2140047502D431CEBE2361A3F0000000080842E41F9
S214004760FFFFEF7F0000F83F0000E03F00002C4016
S21400477000002440000018400000F03F2020DDE943
S2140047800913089DA8470134ADE700BF00000000EC
S2140047902DE9F04F5BEC10AB97B0CDE90501DDE9F4
S2140047A02058CDE90723504652465B465946229F7D
S2140047B014F094FE70B90323CDE902870193AA4B47
S2140047C00093DDE90501DDE9072333F0B6FC17B0F9
S2140047D0BDE8F08F4FF0FF326FF480135046594615
S2140047E014F086FE28B10423CDE9028701939F4B7F
S2140047F0E6E74FF0FF32504659469D4B14F096FEC2
S21400480068B19C4A07F00403002B08BF03229A4BAA
S2140048101CBF13460422CDE902870192D0E750461A
S2140048208DA3D3E90023594614F080FE38B98CA333
S214004830D3E900235046594614F05AFE68B1DDE924
S2140048400723DDE905014BEC10ABCDE92187209568
S21400485017B0BDE8F04FFFF7DFBD0022002350463B
S214004860594614F045FE002800F091805B465246FB
S2140048700020002114F012FA012382468B46099389
S21400488017F4806400F08580092D40F285800024AE
S21400489030210EABA5F109020134202C03F8011BD0
S2140048A0A5EB040901D09442F6D15946504614F0BF
S2140048B047FE724B054603EBC90393ED007B8DED77
S2140048C00A7B14F039FB02460B465046594614F054
S2140048D0E5F9DDE90A2314F099FB02460B46CDE91B
S2140048E00C2314F055FE064614F016FB02460B4643
S2140048F0DDE90C0114F0D2F902460B46CDE90C2393
S21400490000225F4B14F012FE002848D001363046D5
S21400491014F002FB02460B46DDE90A0114F0F2FD34
S21400492008B100260135B9F1000F45D1284614F02C
S21400493003FB02460B465046594614F0AFF90022D8
S2140049404F4B14F0D5FD10B9E90700D501350A2103
S2140049500EAB1A19202C0AD095FBF1F001FB10556E
S214004960303502F8015B013405460028F2D107F025
S2140049700302012A55D1B8F1000F52D0099A12B994
S21400498017F00C0F01D008F1FF38302240E00990F4
S21400499076E74FF0060988E7A946002485E7002257
S2140049A0DDE90C01364B14F0A3FD0028BBD10EB197
S2140049B0F007B8D50136B6E70A210EAB1A19202C37
S2140049C00DD0B6FBF1F001FB1063092E03F13003A6
S2140049D009F1FF3904F1010402F8013B11D8302136
S2140049E0A1440EAA202CB2D04C4504F101030AD1F2
S2140049F004F158020DEB02042E2204F8202C1C466B
S214004A00A5E70646DBE7A1541C46EBE71A5501343A
S214004A10444506D2202CF9D1CDE9028701940EAB8D
S214004A20CEE6202CF8D0099B3BB12D2204F158038A
S214004A306B4403F8202C0134EEE77A0704D504F122
S214004A4058032B226B44F4E73B07E5D504F15803E3
S214004A5020226B44EDE700BF0000000065CDCD418D
S214004A600000000065CDCDC12440040028400400AD
S214004A70FFFFEF7F1B40040020400400B0870400C7
S214004A800000E03F0000000070B58EB02C22002130
S214004A9003A815F009F964234FF002320893CDE914
S214004AA005230B2301218DF834305B4B8DF8101055
S214004AB01D880D4040F0A980084637F0CBFE0A223C
S214004AC0564B574C1A704FF42873ADF812304FF00F
S214004AD0FF332360534B54491B8820460B82534BAD
S214004AE0534A1B68CD828B61524B0D621B884B82EA
S214004AF0514B1B68CB611BF045FD20B14FF41B7179
S214004B004E4838F0E5FF0521206833F0CDFD20B192
S214004B1040F27D21494838F0DBFF206814F07AF82F
S214004B20474B2068196833F082FE0C2538F0FAFAF5
S214004B306843099038F0F6FA68430DEB05010790D4
S214004B40206815F073FF20B140F295213B4838F0FD
S214004B50BFFF25681EF0C0F800220146284633F045
S214004B60DEFE20B140F29721344838F0B1FF40F223
S214004B700353344D344E2B80052396F90000AB705A
S214004B807F2801D11BF0F4FD3378EB7038F0CAFAB9
S214004B9000EB80008000A88038F0C4FA0023C00034
S214004BA04FF0FF31E880AB604FF0FF3018A3D3E939
S214004BB0002337F0A1FF2549206833F069FE2068FE
S214004BC002A934F085FA20B14FF434711B4838F04E
S214004BD07FFF042220680DEB020133F0FDFD042860
S214004BE004D040F2D721154838F072FF01A9012001
S214004BF033F008FA06F042FA01201CF04BFA2FF0C8
S214004C00EEF91CF071FA1BF04BFD0EB070BD00BF44
S214004C100A0020FF420300003A550020875C00206F
S214004C206C4D0020E2A0040038630020E8A00400D9
S214004C307DC80300E0A00400E4A00400537704004D
S214004C4088600020604D002049660020F1C80300FF
S214004C500348044B834202D0034B03B11847704706
S214004C607C6600207C66002000000000064B07499A
S214004C70C91A891048BF0131491003D0044B0BB143
S214004C8001481847704700BF7C6600207C660020FD
S214004C900000000010B5064C237843B9FFF7D8FF94
S214004CA0044B13B10448AFF300800123237010BDFA
S214004CB0681600200000000088C4040008B5044BF5
S214004CC01BB104490448AFF30080BDE80840CDE7B7
S214004CD0000000006C16002088C40400A3F5803A8B
S214004CE0704700BF154B002B08BF114B9D46FFF7C2
S214004CF0F5FF00218B460F461148124A121A14F08F
S214004D00D3FF0C4B002B00D098470B4B002B00D04A
S214004D1098470020002104000D000B4815F00AFB00
S214004D2014F09AFF200029002EF07EFA15F0F0FA13
S214004D30000008000000000000000000081000202E
S214004D4008100020EC5C00209DA3010007B501219F
S214004D5020200DF1070200F0BFFD50B101212020F8
S214004D600DF107028DF8071000F0C6FD03B05DF8E0
S214004D7004FB9DF807100129F8D00122084813F01B
S214004D8081FE01210DF1070220208DF8071000F0AA
S214004D90B3FD2EF0CDF94FF4FA6000F0ADFCE5E778
S214004DA008DF030038B500F00FFF012805D000F03B
S214004DB00BFF022801D000F01FFF064D2B783BB9F1
S214004DC000F002FF0128044602D12EF024FA2C70CF
S214004DD038BD00BF2656002070B50C46088800F087
S214004DE0F7FC94F844300546834214D004F11C06C0
S214004DF030462EF0ACF984F844502EF0ACF932214F
S214004E00A06430462EF09EF994F844100248BDE89F
S214004E10704013F037BE70BD30DF030010B5044697
S214004E20008800F0D5FCA37884F84400834202BFD3
S214004E300123E3702371074B04F11C00C4E9073417
S214004E4000F0A0FD224620880349BDE8104000F08F
S214004E50D7BC00BF1B2F0300D94D000070B5C37828
S214004E6004460D461646002B32D1C1B11F4813F03A
S214004E7009FEE36CA6600BB1E06D9847E368F61A8E
S214004E8063699E4221D2217E19480131C9B221763A
S214004E9013F0F8FDA36D13B1217EE06D9847E57021
S214004EA02EF059F90DB32379FBB9A268238A801A2C
S214004EB083421AD201230F48237113F0E3FD236DBA
S214004EC09BB1E06DBDE87040184701232376E6E706
S214004ED00029E4D1084813F0D5FD636DE66025711E
S214004EE0002BDCD0E06D9847D9E770BD4DDF03009E
S214004EF05EDF03008CDF030079DF0300F8B51E4693
S214004F00838804460D4617460BB18680F8BD817827
S214004F1000882EF023F80123E370084BE5802781F4
S214004F20A680C4E903340C34204600F02BFD294645
S214004F302046BDE8F8402EF005B900BF672F0300F5
S214004F4010B501790446B1FA81F1008849092EF0BE
S214004F507CF821796088B1FA81F149092EF075F85C
S214004F60034B1A68A24204BF00221A6010BD00BF9D
S214004F708416002070B543790446A3B100880E4E0F
S214004F8004F10805336813B10C4B1B786BB121791B
S214004F902EF05BF864210A4B3460A3602846BDE817
S214004FA070402EF0CFB84088E9E7064813F06AFD57
S214004FB0054B3221A360F1E7841600202756002017
S214004FC0414F0000A2DF0300754F000010B50446F5
S214004FD0E0B10F4813F056FD01236371A37953B96E
S214004FE0217920882EF031F8236B7BB1606B01218C
S214004FF0BDE8104018472046FFF7A2FF04F108005E
S2140050002EF0A5F82046FFF7B5FFEDE710BD00BF70
S214005010D8DF030010B50446F8B1104813F032FD8F
S21400502000236371A3796BB921792088B1FA81F1E5
S21400503049092EF00AF8236B7BB1606B0021BDE8AE
S214005040104018472046FFF77BFF04F108002EF0BB
S2140050507EF82046FFF78EFFEDE710BDE3DF030086
S21400506010B5044668B1074813F00CFD6379204676
S2140050701BB1BDE81040FFF7CDBFBDE81040FFF7FD
S214005080A5BF10BDEFDF030010B50E4C0E4821463D
S21400509013F0F8FC82210D4813F0F4FC8221022064
S2140050A0A21E00F029FC014630B134F8022C084854
S2140050B0BDE8104013F0E6BC0648BDE8104013F00B
S2140050C0E1BC00BFBE4E0020FEDF030019E0030077
S2140050D024E0030068E0030038B50E4C8221224627
S2140050E0022000F0F9FBA51C014650B122880A48B0
S2140050F013F0C8FC41222846084914F065FF4023F7
S214005100238035F8021C064A0648BDE8384013F0EE
S214005110B9BC00BFBC4E002073E00300F3E0030000
S214005120BE4E0020D1E0030010B5044601460848F4
S21400513013F0A8FC012C074805D12DF06CFFBDE844
S214005140104000F011BFBDE810402DF066BF00BF54
S21400515034E103001460002070B50024184D194E89
S2140051603378A34217DC0024174D184E3378A34239
S21400517017DC0024164D174E3378A34217DC00F0D8
S21400518023FD0128144818D12DF045FFBDE87040D6
S214005190124800F02BBD2846FFF740FE013460356C
S2140051A0DEE728462DF01DFF01343435DEE72846BD
S2140051B02DF050FF01343835DEE72DF02EFFE5E701
S2140051C0341D00202B560020141F00202C560020D3
S2140051D01C1C00202A5600201460002029510000C4
S2140051E02DE9F74FFFF778FFB04B01A801932DF09C
S2140051F055FF054614F054FCAD4CC2B21F2A62702F
S21400520004D9AC4813F03EFC00F06AFA2946A01C0C
S21400521014F0DAFE01A82DF041FF054614F040FC1C
S214005220C2B21F2A84F8212001D9A348EAE72946FA
S21400523004F1220014F0C8FE01A82DF02FFF00266E
S21400524004462578002D59D1DFF8A8929B4FFFF72A
S21400525083FF99F800203978994813F013FC99F8E1
S21400526000303E78DFF860B21E44F6B2012E38BF3A
S21400527001265B46DA464FF482714FF6FF7201351F
S214005280AE421D7059809A8003F10C03F7DC0025AE
S2140052908C4C8D498648CAF8084000F05BFD9AF8A9
S2140052A00700DAF8083000EB400003EB800000F05F
S2140052B05DFB9AF80730DFF81C8201338AF8073066
S2140052C03B78AB4200F3838100254FF00C08DFF8F3
S2140052D020B299F80010A94200F38C8131467A4832
S2140052E000F0B2FB019B71491A468B4240F09D814B
S2140052F0764803B0BDE8F04F13F0C4BB532D0FD172
S21400530063784C2B40F0F880A378502B40F0F48064
S21400531001226F4B1A7001A82DF0C0FE044690E7DC
S2140053202AD8412DF7D9423D102DF4D801A353F8C1
S21400533025F000BFA55300001753000017530000C8
S21400534017530000175300001753000017530000B0
S2140053502B5400001753000017530000E1530000C1
S2140053608B5300001753000017530000175300001C
S2140053701753000063550000692DCCD1601C2DF03A
S2140053809AFE80B22DF0D0FEC5E74C4B012019786E
S2140053900023504A994202F1A402BCDD02F8A20C96
S2140053A00133F7E7601C00F07FFA0546E01C2DF09D
S2140053B0A4FE01210246284600F0C4F960224648B1
S2140053C0464C03785A43A118A5524FF4FA620A8253
S2140053D04FF448724A61424A0A65013303709AE7FD
S2140053E0601C00F061FA0022342681463D4F1146CB
S2140053F000F0A8F938783C4D06FB00F325F803903A
S214005400EA18E3781046693B18BF012393702DF025
S214005410E8FD3B78002103FB06550126334A33445A
S2140054201560516016743B7075E7601C00F03CFA1E
S21400543000221146814600F085F93422294D2A4F74
S214005440287802FB00F327F80390F918E37808465B
S214005450693B18BF01238B702DF0C3FD244A00233F
S2140054601146906BB8B901EB831134232A7802FBFE
S21400547003738B635EB91D4A3346114652F8040B1C
S21400548078B93422287800FB027241F823202B7862
S21400549001332B703FE70133042B02F14002E0D1C9
S2140054A0E8E70133042BE9D1F1E700BFBE4E002048
S2140054B0345F002053E103006AE103002956002010
S2140054C07AE103000017002088160020AFE10300F1
S2140054D027560020801900202B560020341D00205F
S2140054E0873003002C560020141F00201460002074
S2140054F08018002028560020601C00F0D5F90746CA
S214005500E01C2DF0FAFD01210246384600F01AF99B
S21400551060234A4D4A4C2A78A4205343E118E752A8
S2140055204FF44873474F0B824B613B78DFF82CC132
S21400553058430CEB00010CF800304FF40070488024
S21400554003200871887102EB420004EB40143220FD
S2140055500133DBB201324B718C6081F8A0002A70F7
S21400556061E7601C00F0A0F900224FF0380982467F
S214005570354F114600F0E6F83B78344D09FB03F34F
S21400558025F803A04FF0010AEA1882F804A0E37891
S2140055906BB1E01C00F088F900220446114600F0CA
S2140055A0D1F83B7809FB03535C8083F806A02848B3
S2140055B0284A037899015354397802EB8314C1EBD7
S2140055C0C10205EBC20262634A1C3A7005E73DB1B0
S2140055D01BF8053C03EB430304EB8304CBF80840BD
S2140055E05946404600F03EFF013508F1A4080BF18D
S2140055F00C0B65E639782944481E08FB00A008FB1A
S21400560001A1C07900EB400004EB800458468C6092
S21400561000F03AFD39781048294408FB01A100F053
S21400562089FC01350BF1400B53E613F8011D0029E8
S2140056307FF459AE3B2102F8011C54E62B5600209D
S214005640341D0020295600202A5600201C1C00204D
S2140056502856002080180020101C002080190020EA
S21400566007B5022101200DF1060200F035F938B920
S214005670044813F007FABDF8060003B05DF804FB13
S2140056800020FAE7CCE1030007B50221ADF80600DA
S2140056900DF10602012000F02FF9014610B1034873
S2140056A013F0F0F903B05DF804FB00BFEDE1030072
S2140056B010B5FFF7D5FF04460146074813F0E2F998
S2140056C00121064813F0DEF924B9BDE81040012098
S2140056D0FFF7DABF10BD00BF1DE203002FE2030094
S2140056E008B5044813F0CEF900F016F92DF020FDA9
S2140056F02DF01BFD45E2030038B50446084D094B66
S21400570028462B6000F03EF9002C18BF214628469C
S214005710BDE8384008BF4FF496712DF013BD00BFAA
S21400572018200020D530030010B5044C237823B988
S214005730034838F079F90123237010BD2E56002057
S214005740D47A040073B506460D461446FFF7ECFF00
S2140057500E4A330AD35C8DF805608DF804307DB1AF
S214005760012C04D0032C09D00022012101E022469E
S214005770022101A801F0B0FB02B070BD0022F7E7DD
S21400578004212A460DEB0100F4E700BF5878040018
S21400579007B5064A030AD35C8DF8050001A88DF804
S2140057A0043001F0CDFB03B05DF804FB587804002C
S2140057B007B5064A030AD35C8DF8050001A88DF8E4
S2140057C0043001F0E9FB03B05DF804FB58780400F0
S2140057D007B50A4A030AD35C8DF805008DF8043035
S2140057E000230DF1030101A88DF8033001F000FC41
S2140057F09DF8030003B05DF804FB00BF5878040072
S2140058002DE9F043214C85B0064688469146FFF7C1
S2140058108BFF23781BB901F043FB012323701C4A3E
S214005820330AD35C30228DF80C300023194F8DF8E4
S2140058300D6002FB03F4395DE51901BB01233B55FE
S2140058404FF0FF3304F1100013493844AB606E800C
S214005850C5F80480C5F80C9008F030FB04F1080188
S214005860042239440D4B009503A801F0EFFBA9680C
S21400587002460B4813F006F905B0BDE8F083013385
S214005880102BD6D1074813F0FDF8F5E72D5600206B
S2140058905878040040200020DB300300ED30030081
S2140058A052E2030080E2030080B10278A2F14103D5
S2140058B0032B0BD840783038C0B2082806D8054BE2
S2140058C0134413F8413C40EA032070474FF6FF703C
S2140058D0704700BF5878040008B50B4642B1014631
S2140058E00448006802F0F6FCBDE808402DF016BC3F
S2140058F0022008BD8060002008B50B4642B1014674
S2140059000448006802F06EFEBDE808402DF006BCB4
S214005910022008BD80600020F0B50026124F8DB032
S214005920FF2300930A223346386802A92EF00CF9AA
S214005930C0B102AB1D4603EB800404E055F8043BFF
S214005940B34228BF5E1CAC423868E9D9296802F029
S214005950CFFF0028F2D02D28F0D00DB0BDE8F040E3
S2140059602DF0DCBB0DB0F0BD8060002028B1034BED
S2140059700360034B436000238360704719000003F5
S21400598028600020FF2307B50021044A0093083052
S21400599008F018FA03B05DF804FB00BF3F310300BF
S2140059A00B460449024608680349097808B12DF0F9
S2140059B0D9BB70474823002030560020F8B50C4667
S2140059C018B122210E4838F083F8246823685E79DF
S2140059D05F8830463946FFF7E3FF08B98120F8BDF7
S2140059E08568002DFAD0A368E27C3046F9B2A84755
S2140059F004460028F2D131F07EFB2046EFE700BFD8
S214005A00A8E20300F8B515460D4A044610680D4A8C
S214005A100B46117850B122462DF0A4FB034628B160
S214005A2000210C27C678B14201DB0020F8BD07FB39
S214005A3001F45A681019125BAA42F7D00131F2E756
S214005A4048230020305600202DE9F74F04460D4627
S214005A500026454B454F1860454B19703301002111
S214005A60F85C01360FF004F80C2EF7D10C2D28BF89
S214005A700C254FF0000901953C4EDFF800A13D4D86
S214005A80DFF8FC80019B4B4502DC03B0BDE8F08FDD
S214005A9023784FF0000B337063887380A388B3803D
S214005AA0A379C6F80880B371E379C8F8005088F87F
S214005AB004304FF00003A768A8F80630E3795B458A
S214005AC00ADC012116F8100B0EF0D2FF08F10808C8
S214005AD009F101090C34D5E74FF0000338886B81D3
S214005AE02880FB784FF0000C2B81BA78C5F804A00C
S214005AF0002A00920CBF802240222A7379680AF19D
S214005B000C02634513DC03EB43030AEB830ABB6812
S214005B1043B1009A4FF6FF71B2FA82F2164B520961
S214005B2031F079FA14350BF1010B0C37C6E7B1F8F2
S214005B3000E00CF1010C22F80CEC91F802E00C32BB
S214005B4002F816EC91F804E00C3102F815EC11F8A6
S214005B5009ECBEF1010F14BF4FF0100E4FF0110EFE
S214005B6002F814ECCDE700BF48230020C03900201F
S214005B70305600204C290020BD5900004C23002040
S214005B80CC2B0020014B1860704700BF4423002038
S214005B9070B5128805460E46FFF734FF044670B10E
S214005BA002790499806814F0D1F8064B1B680BB98B
S214005BB0002070BD28462288F1B29847F8E7862074
S214005BC0F7E700BF4423002008B50DF0EDFF0228DC
S214005BD006D0012806D0044B18784000C0B208BD95
S214005BE00120FCE70220FAE72F560020014B186040
S214005BF0704700BF40230020034B1A781AB90122D1
S214005C001A7009F0D7BF70472F5600200022064BA7
S214005C1010B51A70054B1C682CB1FFF7D5FF23464C
S214005C20BDE81040184710BD2F5600204023002026
S214005C3037B50446002832D00DF0B6FF022830D122
S214005C40608931F0D5FDE079237A003818BF01204D
S214005C50012B637A08BF40F008000BB140F010003B
S214005C6063890BB140F00400257CA188A2790DB1B0
S214005C70E36873B90C4B0FF0D7FA217808460FF09B
S214005C804FFB31F0BFF8002814BF0320002003B0FC
S214005C9030BDCDE90035054B0FF0C6FAEDE7022022
S214005CA0F5E70120F3E700BF4E2F040051FE030086
S214005CB008B50CF0DDF8014630B1044812F0E2FEFB
S214005CC0BDE808400CF078BC08BD00BF1AE303002E
S214005CD0034B044A5B7C012103201370FFF70CBEC4
S214005CE0146000203156002010B50446FFF7F0FF80
S214005CF0B4F57F4F0BD100240A4B1A8813449C70CE
S214005D00FFF7C2F92046BDE81040FFF7F5BC4FF696
S214005D1001739C4204D1BDE8104003482DF063B9DE
S214005D2010BD00BFBC4E00201460002010B5074C0C
S214005D30012122460320FFF7CFFD28B92378044A25
S214005D40003B18BF0123537410BD00BF315600201E
S214005D50146000200822F8B54B4B30241A7032220B
S214005D6035255A70DA709A71DA714FF400129C7009
S214005D701C72464C1D71C464454C31250465454C67
S214005D8042648465444C0122C465444C5D7144669B
S214005D90434C85188466434CC5670467424C434DA4
S214005DA04467202480F8784080F8844000F121047D
S214005DB0C0F888403E4CC0F88050C0F88C403D4C3F
S214005DC080F84820C0F894403B4C80F85420C0F837
S214005DD0984080F86020394C80F86C2080F890203D
S214005DE080F89C20C0F8B830354BC0F8A440C0F806
S214005DF0BC300F24022380F8A84080F8C030314C15
S214005E00314BC0F8AC40C0F8C430304C304BC0F812
S214005E10B040C0F8C830092482232E4D80F8B44024
S214005E2080F8CC302C7C2C4BC0F8A000C0F8D030CA
S214005E3044B12A4B80F8D820C0F8D43005F11103BD
S214005E40C0F8DC304FF0000CCA798E6802EB4203D3
S214005E509F00443006EB830326F807C058600120F5
S214005E600C349870DC701318CB71FFF75FFFFFF7E8
S214005E70ABFE012806D12B7C23B1BDE8F8401548BF
S214005E802DF0B1B8F8BD00BF32560020727804007D
S214005E9001002000717804000200200070780400E1
S214005EA0030020006F780400040042000500420052
S214005EB0070030006E780400120010010040420017
S214005EC0FDFF21005C7804006C78040006004200A8
S214005ED000FF440114600020BC4E002001FF1001AA
S214005EE070B50D460646144613460A4601460D484A
S214005EF012F0C8FD25B92046BDE87040FFF7F4BE95
S214005F00072D05D121463046BDE8704000F070BA36
S214005F10062D05D121463046BDE8704000F06EB82B
S214005F2070BD00BF47E303000148FFF72BBE00BF6C
S214005F30E15E00004FF4C01330B503600123037127
S214005F40074B8C688360CA7902EB420304EB830537
S214005F506860044844F82300531CCB7130BD00BF72
S214005F60737804000400010138B50024044D55F888
S214005F70040B08B12DF06CF901340A2CF7D138BDAA
S214005F802C2C00200229024608B50ED004D839B9B8
S214005F9010462DF088F906E04029F9D0412907D1AE
S214005FA010462DF076F9002008BD2DF086F9FAE7A8
S214005FB0014812F067FDF6E77AE3030011461A4639
S214005FC0024B53F82000FFF7DDBF00BF2C2C00204B
S214005FD0426B094B52791A7082785A70C2789A705E
S214005FE0826B12B190F83C20DA70007804210930F8
S214005FF0014AC0B2FFF780BC3B560020024B53F864
S21400600020002DF076B900BF2C2C002038B50446B1
S2140060100078084D09302A460421C0B2FFF75CFC20
S21400602030B96B78A370AB78E370EB7884F83C30CB
S21400603038BD00BF3B56002038B504460078114DE9
S21400604009302A460421C0B2FFF746FCC8B9A37837
S2140060502A78022B0CD004D863B920462DF023F9F9
S21400606001E0FF2B0AD02046BDE838402DF0F0B8FE
S214006070002AF2D120462DF00CF9F4E7002AF9D1D7
S214006080EBE738BD3B560020F8B504460B78224AAD
S2140060900D4642F823004370FFF7B8FF636B1F4AB4
S2140060A05C631A632046FFF7C7FF20462DF0D0F842
S2140060B04FF4801363600123626BA06B0532E260CD
S2140060C0174A23722261A21C2375A26160B1154A89
S2140060D084F82030E261E21C6262134A84F82C30B5
S2140060E004F13C03A26223630627E979AE6801EB5C
S2140060F04103002826F8237006EB83020CBF022318
S2140061000423D37001239370084B043493604B1C14
S2140061105460EB71F8BD00BF2C2C0020CF3203007A
S2140061200340300101FF300102FF1001BD5F000097
S21400613002464179D37808480139042B00EB8110D8
S21400614008D8012B04D80BB92DF0A3B82DF0ABB8A6
S2140061502DF0B3B8704700BF801800200246417982
S214006160D37808480139042B00EB811008D8012B9E
S21400617004D80BB92DF097B82DF08BB82DF09DB83C
S214006180704700BF8018002030B587B004464579B8
S214006190FFF71AFD012822D1E2786B1E042A1ED8CA
S2140061A0DFE802F00431031F2800104663784FF43E
S2140061B080728DF804304FF48273ADF806300623F3
S2140061C0ADF8083001238DF80B3000238DF80A0057
S2140061D001A8CDE903238DF81430FFF729FD07B099
S2140061E030BD0A4A02EB83135B6B5B79181E18BF3F
S2140061F00120DBE7054A02EB83135B6B5B79B3FA9E
S21400620083F04009D2E70020D0E700BF80180020C6
S21400621030B587B004464579FFF7D6FC012829D16A
S214006220E3786A1E042B25D8DFE803F00B0B0B037C
S2140062302600164B03EB82135B6B5B79003B18BFA3
S214006240012362788DF80A308DF804204FF48272AC
S2140062500123ADF8062006228DF80B30ADF8082095
S21400626000234FF4807201A8CDE903238DF8143083
S214006270FFF7DEFC07B030BD044B03EB82135B6B0D
S2140062805B79B3FA83F35B09DBE700BF8018002075
S21400629010B586B00446FFF797FC012812D1637844
S2140062A0094A8DF804304FF48273ADF806304FF487
S2140062B08073CDE90223002301A804938DF81430DF
S2140062C0FFF7B6FC06B010BD0800070110B586B093
S2140062D00446FFF779FC012820D16278104B8DF830
S2140062E004204FF4827294F8A01094F8A10059701C
S2140062F01870ADF8062004934FF480720223094903
S21400630001A88DF81430CDE90212FFF791FC94F83D
S214006310A130013B18BF012384F8A13006B010BDA0
S2140063203F5600200800050110B583780446E3B107
S2140063300379022B06D143790C48013B00EB83100E
S2140063402CF0BBFFA379022B02D12046FFF71CFFDF
S2140063502046FFF7BBFF02236078A4F86C30552276
S214006360BDE8104012212CF01FBF10BD8018002081
S2140063704388094A082113808388538083681B8AD0
S214006380938090F8A03093718379D37100780430AD
S214006390C0B2FFF7B1BA00BF3E4F002038B50D4679
S2140063A004460178104812F06DFB4FF602739D42CA
S2140063B00CD163791BB10D4A12789A4201D201239F
S2140063C063712046BDE83840FFF7D2BFB5F57F4F72
S2140063D0F7D120462CF0EFFFA378022B0CBF01224A
S2140063E00022A3689A70ECE790E30300285600208A
S2140063F0024B53F82000FFF7D1BF00BF542C0020FB
S21400640038B504460078134D04302A460821C0B239
S214006410FFF762FA20B1BDE838400F4812F032BBF1
S2140064202B8863806B88E978A380AA88A3681A8281
S214006430AB7984F8A030EB79A37119B1074B1B78C0
S2140064408B4205D2064812F01DFB23780133637198
S21400645038BD00BF3E4F0020AAE3030028560020A8
S214006460D3E30300F8B504460B78484A0D4642F8D5
S21400647023004370FFF7C4FFA268454B0226D3648F
S214006480444BA11C5365444B44481365444B04F1EC
S2140064900C0CC2E916344FF44013E360012361612B
S2140064A0E1624049103221632265211D3E4AA16304
S2140064B03E49626504F1A002A061E163E265E01C6A
S2140064C0611D3B4A206261643A483B492266A21D30
S2140064D02374237784F8283084F8343084F84030E6
S2140064E0A16484F84C6084F8583084F864306062A4
S2140064F0A266E879AA6800EB400102EB8107C7F8BC
S21400650004C04FF0060C2D4F42F82170C118C9B2D6
S21400651001EB410142F821C002EB810700217960BE
S214006520274F84F880302767264F84F89830A7676F
S214006530254F264BE767264F84F8746084F88C60F6
S214006540C4F89C3004F16C06831CC4F88470C4F84C
S2140065509060204F204EDBB203EB4303C4F89460F8
S214006560C4F8887002EB83067034746008261B4CEF
S21400657042F82340C31CDBB203EB430302EB830465
S214006580043042F823606160E871F8BD542C0020A6
S2140065902333030065330300296300001000300135
S2140065A01933030001FF300104FF200102FF200120
S2140065B005FF300100FF300103FF2101070001083D
S2140065C04A00210074780400510010007678040018
S2140065D077780400550021006F00180012000104AF
S2140065E000239B6AB3F5804F03D21968064A91428E
S2140065F003D00023037083607047012202709A68FC
S2140066009B694260F7E700BF07B0CD5E024B034AC6
S2140066101A602EF058BA00BF0000002002020FF0E9
S21400662073B53F4B04461A781AB102221A7002B0AC
S21400663070BDCDE900220028F9D001261E7037F083
S21400664055F9384D384B186016F0FEFF2B785BB9BD
S21400665002F0F2F940B935480823354A3549006852
S21400666001F038FE00B92E70334B5A68E260334AA8
S2140066709A601A6E22605A6E6260D3F87021A26029
S2140066801B6E5C042CD52E4AD368D807FCD42D4B41
S2140066901A68531C29D04FF4801393402A4A136675
S2140066A00423294C4FF0804223664FF48063236610
S2140066B0102323664FF400536846236601A922661A
S2140066C063662CF090FE009B2366019B63662B7826
S2140066D0002BACD0164B1A6822665B686366A6E78A
S2140066E01A4AD368D907FCD4D1E7194B1B78002B7C
S2140066F0D6D1184B5A68144B12B94FF480121A664A
S214006700154A526812B94FF400121A66134B5B68AA
S214006710002BC5D14FF480020B4B1A66C0E700BFB2
S21400672042560020435600208C2C0020806000201B
S214006730902C0020007108000080004455CEAC006C
S214006740000004404C60002000900044000004500C
S214006750415600200080055000C00550000006503D
S21400676038B5224D04462B78012B02D001232B701E
S21400677038BD0028FCD02CF05BFE013009D02CF090
S21400678057FE40F20113984203D0194AD368DB073C
S214006790FCD42268174B1A6662685A66A268C3F869
S2140067A07021E268D40744BF00229A60124B1A6830
S2140067B0013213D1114A127882B911494968C807C3
S2140067C048BF1A600F4A5268D10744BF01221A60B8
S2140067D00D4A5268D20744BF02221A6016F03CFFE8
S2140067E00A4B186837F07DF80023C0E742560020B1
S2140067F000000440008000444C6000204156002009
S2140068000080055000C00550000006508C2C00206B
S21400681070B50024A36AB3F5804F23D21A68134BD1
S2140068209A421FD1124E337813F0FD0518D14FF45B
S21400683080341048FFF7F4FE032004F0CBF90E4B2B
S2140068400320DC6004F0AAF90C4B1C61AB6ADB6920
S214006850984704460748FFF783FF0CB901233370B7
S214006860204670BD4FF48174FAE700BF07B0CD5ED6
S214006870415600207C2C002000A0004400900044DC
S21400688013B5204B1B7803B9FEE700231E4CCDE959
S21400689000336A4608231D49206801F01BFDF8B93D
S2140068A01B4AD2F84031D2F840211F2B4FF001038B
S2140068B011D9203A9340019A1A43019208236A4656
S2140068C01249206801F08EFE124B134A1A602EF011
S2140068D0FAF802B010BD9340009A1A430092EDE712
S2140068E02D28F1D10A4AD2F84031D2F840211F2B88
S2140068F04FF0010385BF203A93409340019398BF21
S2140069000093DBE7425600208060002000710800FC
S21400691000800044000000200B020FF038B5002570
S214006920AB6A0446B3F5804F10D21B6BB3F5804FAD
S2140069300CD20748FFF774FEAB6A20461B6B5B68F9
S2140069409847BDE838400248FFF70ABF38BD00BF89
S214006950982C002013B50024A36A0190B3F5804F4D
S21400696013D21B6BB3F5804F0FD20948FFF758FEC2
S214006970A36A01211B6B01A89B699847044604483B
S214006980FFF7EEFE204602B010BD4FF48174F9E723
S214006990982C002070B50026B36A0446B3F5804FE5
S2140069A00D4612D21B6BB3F5804F0ED20848FFF788
S2140069B037FEB36A20461B6B29469B6998470446F8
S2140069C00348FFF7CDFE204670BD4FF48174FAE70A
S2140069D0982C002070B50026B36A0446B3F5804FA5
S2140069E00D4612D21B6BB3F5804F0ED20848FFF748
S2140069F017FEB36A20461B6B2946DB699847044698
S214006A000348FFF7ADFE204670BD4FF48174FAE7E9
S214006A10982C0020F8B50027BB6A0446B3F5804FD3
S214006A200D46164611D21B6B7BB10948FFF7F8FDE1
S214006A30BB6A20461B6B324629465B6A984704466B
S214006A400348FFF78DFE2046F8BD4FF40174FAE7C1
S214006A50982C002070B50026B36A0446B3F5804F24
S214006A600D4612D21B6BB3F5804F0ED20848FFF7C7
S214006A70D7FDB36A20461B6B29469B6A9847044697
S214006A800348FFF76DFE204670BD4FF40174FAE729
S214006A90982C0020F0B50027BB6A0446B3F5804F5B
S214006AA00D461646ADF5337D20D21B6BB3F5804FF1
S214006AB01CD21048FFF7B4FDBB6A20461B6B40F2A1
S214006AC0C1225B6A01A99847044630B10948FFF71E
S214006AD047FE20460DF5337DF0BD836A32461B6BBC
S214006AE02946DB6A01A898470446EFE74FF401748D
S214006AF0EFE700BF982C002010B50024A36AB3F57A
S214006B00804F10D21B6BB3F5804F0CD20748FFF7AF
S214006B1087FDA36A1B6B1B6B984704460348FFF769
S214006B201FFE204610BD0124FBE700BF982C002066
S214006B30F0B58FB0044601A80E461546FFF7EEFEE8
S214006B409DF80C30012B12D1B5F5402F27D8B4F59F
S214006B50402F24D86319B3F5402F20D821462A4663
S214006B60304613F031FA002420460FB0F0BD00275F
S214006B70BB6AB3F5804F15D21B6BB3F5804F11D2AD
S214006B800A48FFF74DFDBB6A2A461B6B3146204676
S214006B905B6B984704460548FFF7E2FDE4E740F2E2
S214006BA00244E1E740F20114DEE700BF982C002023
S214006BB0F0B58FB0044601A80E461546FFF7AEFEA8
S214006BC09DF80C30012B1FD1B5F5402F06D8B4F533
S214006BD0402F03D86319B3F5402F13D940F202446F
S214006BE020460FB0F0BDE258013225D104339D4255
S214006BF0F9D82A46314620462CF04AFC0028EDD02B
S214006C000024EDE70023F2E70027BB6AB3F5804FC8
S214006C1015D21B6BB3F5804F11D20A48FFF700FD63
S214006C20BB6A2A461B6B314620469B6B9847044638
S214006C300448FFF795FDD3E740F20344D0E740F25F
S214006C400114CDE7982C002070B58EB0044601A83C
S214006C500D46FFF763FE9DF80C30012B22D144EA67
S214006C600503C3F30C03002B33D1B5F5402F04D92D
S214006C7040F2024420460EB070BDB4F5402FF7D85F
S214006C802544B5F5402FF3D8204604F500542CF0E3
S214006C90F8FBAC4202D00028F6D1E9E70028E7D09E
S214006CA00024E7E70026B36AB3F5804F14D21B6BC7
S214006CB0B3F5804F10D20A48FFF7B2FCB36A2946F4
S214006CC01B6B2046DB6B984704460548FFF748FDDC
S214006CD0D0E740F20444CDE740F20114CAE700BF13
S214006CE0982C0020BFF34F8F0549064BCA6802F464
S214006CF0E0621343CB60BFF34F8F00BFFDE700BFDA
S214006D0000ED00E00400FA0570B5D0B1C9B10E4E32
S214006D10431E013913F8014F2046325D02F003028C
S214006D20012A11F8012F08BF04F12000B55C05F018
S214006D300305012D08BF2032801A01D1002CE9D1AD
S214006D4070BD0120FCE700BFD19F04000348044A41
S214006D500449121A92102CF0E7BB00BF3441000021
S214006D60D0420000885D002008B5154B83F30A88E2
S214006D7000F030F8FFF7EAFF124B13498B4212D3AC
S214006D800020124B12498B4218D3FDF7ABFF186850
S214006D9050F82240586840F82240013298688242F3
S214006DA0F5D30C33EAE70022F8E71C6844F8220023
S214006DB001325C68A242F8D30833E4E70022F8E721
S214006DC00800002090C404009CC404009CC4040076
S214006DD09CC40400124B134A70B59A60D3F88820FE
S214006DE0114D42F47002C3F888206FF0010205F5D9
S214006DF00054226641F2FF7262660222C3F8D02077
S214006E00BFF34F8FBFF36F8F4FF44036032003F06E
S214006E10E1FE0320E66003F0C1FE2E6170BD00BFF8
S214006E2000ED00E00040000000800044014B1860C8
S214006E30704700BF54600020054B1860054B1B6F61
S214006E4003F00703032B01D134F002BE704700BFE6
S214006E505C600020008000502DE9F04104464FF0B1
S214006E6001080C250D4E0CB9BDE8F08194FAA4F08B
S214006E70B0FA80F00F2808FA00F2C8BF103824EAEB
S214006E800204CABF05FB006205FB0062B432576805
S214006E90002FE8D09168C0B2B847E4E7A82C0020DD
S214006EA008B50C4836F0C0FD192003F085FE28B161
S214006EB0192003F08FFE192003F070FE1A2003F04D
S214006EC07BFE28B11A2003F085FE1A2003F066FE2A
S214006ED0002008BDD47A04002DE9F0410E4617467E
S214006EE0054618B30F2923D80378DBB1013BDBB284
S214006EF0022B19D8104AD35C6A78D340DB0717D523
S214006F000E4BD3F81043ACB936F0F0FC80463A4648
S214006F102846314602F0BEFB404636F0E2FC2046EC
S214006F20BDE8F0817F23E7E70023E5E72224F6E7C4
S214006F302124F4E70224F2E7C878040000C00350D6
S214006F4010B5044610B30378E3B1013BDBB2022B65
S214006F501AD8104AD35C6278D340DB0718D536F0CF
S214006F60C5FC0122617823788A4030214B4341F2E8
S214006F70100103F1A04303F570335A5036F0B1FC0C
S214006F80002010BD7F23E6E70023E4E72220F8E791
S214006F902120F6E7C878040010B5044610B303783D
S214006FA0E3B1013BDBB2022B1AD8104AD35C6278FD
S214006FB0D340DB0718D536F099FC01226178237898
S214006FC08A4030214B4342F2100103F1A04303F5FF
S214006FD070335A5036F085FC002010BD7F23E6E75C
S214006FE00023E4E72220F8E72120F6E7C87804002B
S214006FF038B50D46044618B311B30378E3B1013B28
S214007000DBB2022B1AD8104AD35C6278D340DB0777
S21400701018D536F06BFC30222378534303F1A04397
S21400702003F570335B696278D34003F001032B707D
S21400703036F057FC002038BD7F23E6E70023E4E760
S2140070402220F8E72120F6E7C87804002DE9F04171
S2140070500D4616469846044600284FD000294DD0C7
S2140070600178002940D04B1EDBB2022B3ED8254AC1
S214007070D25C6378DA40D20701D4FF2940D1022ED1
S21400708001D9042E3CD136F031FC23780746FF2B7D
S21400709005D032462046296802F042FB28602B685D
S2140070A0013309D12378FF2B06D1174B6078D3F82C
S2140070B024142CF078FF286029684B1C18D00C2369
S2140070C0124A03FB0122069BC2F8048093602378D1
S2140070D0FF2B04D001230E4A8B40C2F824343846D6
S2140070E036F0FFFB002007E07F22C2E70022C0E761
S2140070F0384636F0F6FB2D20BDE8F0812220FBE76F
S2140071002120F9E7C878040000C00350A82C00200E
S21400711000D0035008B502F0B3FA044B00F0553027
S214007120C3F82004BDE80840FFF796BE00E0035011
S21400713008B502F0A5FA044B00F0AA30C3F8200404
S214007140BDE80840FFF788BE00E003502DE9F04F89
S214007150144605460E469B46C36B87B001225B6904
S21400716002A960689847EB6B01225B6903A9304669
S214007170984702A82CF0D7FD074648B10023A37510
S21400718063754FF0FF33A360002007B0BDE8F08FB3
S21400719003A82CF0D5FD0123A375237E04EBC303BF
S2140071A0DE611F846368B3420ED1206003A82CF012
S2140071B0E9FD4FF0FF332075A360237D043B022BCF
S2140071C026D80023A375DFE723681A1A53425341D3
S2140071D0A37503A82CF0D6FD237D834218BFA775A0
S2140071E003A82CF0B1FD074602A82CF0ADFD87429F
S2140071F018BF002303A818BFA3752CF0ADFD0746E3
S21400720002A82CF0A9FD87421CBF0023A375D4E773
S21400721003A82CF099FD80B1EB6B022230465B6927
S21400722004A9984704A82CF09EFD0346207D032859
S21400723039D8DFE800F03838040903A8F3E7CC2291
S214007240237E04EBC3031A8401F06EFC109B1870B7
S21400725003A8277E2CF06CFD04EBC70787F82200F6
S214007260237E03A804EBC303B3F8209093F82270A0
S2140072702CF06AFD804603A82CF06EFD8246B8F11D
S214007280000F15D0EB6B022230465B6904A99847C5
S21400729004A82CF02DFD6075637D6BB90023A375E3
S2140072A04FF0000838E0227E04EBC2021384CBE7DE
S2140072B003A82CF008FDEEE794F81680B8F1000F4E
S2140072C0EED0B9F1000F09D1DFB10123E375637E7B
S2140072D0002B4FD1012F42D1677614E06B6C06EB82
S2140072E00A015A4286EA010010421CBF0022A2751B
S2140072F05A1E0A409B1A9945D0D8A37D002BE3D18D
S214007300CEE7E37D43B94FF000084B465246314680
S21400731028462CF053FAA060A27D12B123694B4494
S21400732023611A49237E097899422AD901332376A4
S214007330BBF1000F27D032B3E37D23B3B8F1000FC3
S21400734021D1032F1FD0A1684B1C1CD0109B2246B6
S214007350009328460123FFF7F9FEA07513E095F881
S214007360343063B9EB6A0133CFD1032FCDD101237B
S214007370A376C8E7012FCFD0032FC4D1F7E79846EE
S214007380C3E70023A375A07DFFE600BFEC780400EA
S2140073902DE9F04F0E46984600238BB004464FF07A
S2140073A0FF31104617468DF8133001F0A7FBB6F5EF
S2140073B0801F20D2314605AA04F108002CF005FCF7
S2140073C0451C014603D1237CBBB92D2010E038466E
S2140073D001F094FB0122394620460DF113032CF0F0
S2140073E03FFA0028EFD09DF8133088F800300020D0
S2140073F00BB0BDE8F08FB01CE5D1E56A691C36D14C
S2140074002046616A2CF020F90546B31C18BF0123FC
S214007410DFF8CC900193636A626C0293236805A937
S21400742002FB053AE36B05225B695046984705A8C0
S2140074302CF014FD2CF037FD50462CF03FFD4FF09D
S214007440000B824601464B1C05D0636C81EA0A029B
S2140074505B42134211D0294620462CF0F5F8029BD9
S214007460AB422CD0BBF1000F2CD10546D3E72368E6
S214007470ED1A636CB5FBF3F5C7E7484601F03EFB33
S2140074800DF1130349462046019A2CF0E9F903460C
S21400749090B1B21C03D0D9F80020B2420CD19DF8AE
S2140074A0132003930D4B88F8002049461A68384687
S2140074B012F08AFD039B9B46D9F80810C3E7BBF180
S2140074C0000F82D0B6F5801F91D2314698F8003072
S2140074D07A6804F1080001F03FFA88E7E8780400CB
S2140074E0843400202DE9F3410446174698460E469C
S2140074F0184D816AE36A8B4201D04B1C02D102B060
S214007500BDE8F081284601F0F9FA01222946204616
S2140075100DF107032CF0A4F938B14346294620465E
S2140075209DF80720B8470028E9D0A9684A1C04D16E
S214007530696820462CF015F90146012EDAD16B68F1
S21400754081EA0302636C5B421A4218BF4FF0FF31B8
S214007550D0E700BF583400202DE9F04F4FF0FF333E
S2140075604FF6FF720025044600F10806C0E909231D
S2140075708BB0C36205620563304688462CF0F6FA87
S21400758020462CF031F860BB204641462CF0ACF883
S21400759020462CF029F860BB5E200BB0BDE8F08FCB
S2140075A02368E26B606C576900FB0530052205A96D
S2140075B0B84705A82CF052FC012807460CD12946EE
S2140075C020462CF062F8012F024600D101322946EF
S2140075D020462CF028F803E02CF06AFC0028EED1B8
S2140075E00135E3699D42DBD320462BF0FDFF0028E2
S2140075F0CAD000254FF0FF394FF6FF73CA46A8469B
S214007600C4E90853E36998450AD3A5EB0905012D9B
S2140076102CD84FF6FF72636A93423CD16720BCE7D2
S2140076202368E26B606C576900FB0830052205A9E9
S214007630B84705A82CF012FC834605A82CF0E5FBFD
S214007640074658462CF02FFC68B1574538BFC4F89B
S2140076502480B94528BFB946BD4238BF3D46BA4624
S214007660236A0133236208F10108CBE74FF6FF7364
S21400767000256362E3699D42CBD2676C2068E36BAA
S214007680052207FB05005B6905A9984705A82CF0AD
S214007690BCFB0135EEE7E26B676C2068694607FBCA
S2140076A0030055690522A84768462CF0AEFB626ABF
S2140076B02368606C4B4D00FB02302CF0FFFB4FF054
S2140076C0FF33A062E3622A466FF00101204605AB55
S2140076D0FFF75EFE002846D1AD6829462046E562E3
S2140076E02BF05EFF206320B92046E16A2CF039F8C3
S2140076F0E062294620462CF034F80546A36A9D42EF
S21400770033D120462BF01FFF00278046B946E36999
S21400771099453CD3B84559D92046616A2BF094FF69
S2140077200026054604F1400AB74212D8626C236868
S214007730694602FB0539E36B05225B6948469847B4
S21400774068462CF062FB534602464946E06B2CF036
S214007750B7FB294620462BF077FF0136B045054695
S214007760E2D1642019E7A56AB7E7294620462BF040
S21400777017FF236B294603440746236320462BF056
S214007780F0FF0546002FB9D1C4E90B07B6E7636CD6
S2140077902568052203FB0955E36B05A95B692846A6
S2140077A0984705A82CF05AFB2CF07DFB58B12846CC
S2140077B02CF084FB014620462BF0F2FE636C143B53
S2140077C0984208BF013709F10109A0E730462CF0BE
S2140077D0CDF9002320461946034AFFF783FE002012
S2140077E0DBE600BFB03400204F3803002DE9F0413F
S2140077F0036B9046826B07689A4288BF8363426C2D
S214007800436A90B002FB0377C36B0E46052201A9BC
S2140078105B6904463846984701A82CF01FFB0128F0
S2140078200146307057D0656CE26B2368606AD2F808
S21400783014C005FB0030052206A9E04706A82CF078
S2140078400DFB01284FF0000523D0D4E90A320121B0
S2140078509342CDE90B458DF834800E958DF83C109B
S2140078602AD1194620462BF07CFF236B626C14331A
S2140078709B1AE06223630C9B53B99DF83C303BB1E6
S214007880626A616C2368E06B01FB02312CF09EFAA1
S2140078900C9DE36B05225B6901A93846984701A851
S2140078A02CF0DCFA30702846236BA26B9A4288BF15
S2140078B0A36310B0BDE8F081237C33B91C490BAA42
S2140078C004F1080001F096F8D5E72046194A0BABFC
S2140078D0FFF708FECFE7237C23BB2246164904F1B8
S2140078E0080001F087F8616A20462BF0CEFE616A38
S2140078F0421C20462BF097FE054620B9236B626C8F
S2140079001344143B23632046A16A2BF02AFF236806
S214007910A062C01A636CB0FBF3F0606220462BF0E6
S21400792063FFB6E700232046044AFFF7DBFDDAE7ED
S214007930918000000D800000E938030085380300C0
S21400794073B50D46D11E4A421C461B7E4A419A42DA
S21400795026D129682368994222D3636899421FD8A2
S214007960114E0DF107033246FFF712FDC0B97268DB
S2140079706B689A4214D19DF80730DA1E5342534181
S214007980227E93420CD1636901336361D4E90323F9
S214007990934205D22968A26842F823100133236176
S2140079A0012002B070BD00BFB03400202DE9F04FBA
S2140079B09B4689B09DF848309046514A019313691A
S2140079C007465B450D46C0F09580D9465368009340
S2140079D0B9F1000F7BD0FB6B01225B6905A900980B
S2140079E0984705A82CF0ACF9454B1B68984240F028
S2140079F0848005A82CF0B0F90428064615D105A801
S214007A002CF0B1F9009B04461E44019B002B3ED18E
S214007A10804512D91C46A8EB0008384600992BF082
S214007A20A0FEA9EB04090090D2E7FB6B02225B697B
S214007A30009806A9984706A8E2E7A0EB08045C456C
S214007A4028BF5C46032C4644ABEB040B1DD9FB6BEE
S214007A50294630465B69A208984724F0030304F0E1
S214007A60030A1E441D44DDF80480BAF1000FD4D08A
S214007A70FB6B012206A930465B69984752462846AA
S214007A8006A912F0A1FA5544C7E7A246EBE78246DC
S214007A9000F0030302932B1803930644039BA6EB04
S214007AA00A00A3EB0A05029B9A4514D1BAF1000F0F
S214007AB0B3D0FB6B012206A95B699847524628465D
S214007AC006A912F03DFC0028DDD04FF036094846E6
S214007AD009B0BDE8F08FFB6B012206A95B699847E9
S214007AE00422284606A912F02BFC0028EDD1AAF1A4
S214007AF0040AD3E74FF06309E9E74FF06F09E6E7BA
S214007B00DC3400202DE9F0410F4616469846044620
S214007B1088B060B390F83450FDB101212BF059FDC8
S214007B2000210E9BCDE90511CDE902379DF83C30CA
S214007B30CDF804808DF81C30237C04968BB90D4953
S214007B4001AA04F1080000F055FFDDE90553E06BDB
S214007B50002E08BF1D462BF0D5FE284608B0BDE80F
S214007B60F0812046044A01ABFFF7BCFCEDE7054672
S214007B70F3E700BFB3380300417900007FB590F803
S214007B804260044601920DF10B030A463046114945
S214007B902BF0C0FE012E0546E36B17D132465B691B
S214007BA003A998479DF80B10039B019A59B19BB205
S214007BB043EA0243012228460393E36B03A99B6929
S214007BC0984704B070BD62F30F03F3E701229B6988
S214007BD001A9F5E7DC3400202DE9F04F99B00E46F8
S214007BE00D920A69416C0B931439D31DB3FBF1F364
S214007BF0013302EBC302036B04469342C0F00182DA
S214007C000023DFF804940893E36A48461946059370
S214007C1000F074FFD6E9033707930B9B022B4DD178
S214007C20CC2F40F0D7810D9B3BB1314620462BF040
S214007C30C7FE656C1490012044E00120079B656C2C
S214007C401B68149300F0010000280CBF04230823CF
S214007C50782F0E9349D8059A6B1E1340ED1A3B1DDC
S214007C609D423CD2002F3DD0082D3ED8002304254F
S214007C7006934FF0040A336806990B98C9F800304B
S214007C80C9F810702CF082F84FEA9A030F93059B00
S214007C9089F814000393002309930C9304930A9322
S214007CA0616C039B4A1E1A408B1A27B35544AB429D
S214007CB023D8236B5B1A134423632FE1782F656C5C
S214007CC0B9D8F07D0D9B002BBCD0E36B01225B691D
S214007CD0706816A9984716A82CF036F8B4E7002561
S214007CE00695C6E704250697C3E7012300254FF04F
S214007CF0080A0693BFE75345DBD3A3EB0A02974275
S214007D00039BB84628BF90469742534428D9012281
S214007D10D9F8101089F817208F4226D10399C9F890
S214007D200410049299F817200AB399F818100398CB
S214007D30CA1C09EBC202506004980131A2F8088000
S214007D40907289F81810B8F1000F07D00B9A022A23
S214007D5040F08180099A72B1012209929B46ABE0FD
S214007D60049A002A18BF0322DBE70222D9E7039A07
S214007D70C9F80420E7E70C9A4244032AEED9E26BDE
S214007D801846956914A901220993A847099B054638
S214007D900028E1D03D2D40F01E8104F10803039336
S214007DA02368059A606CA2EB030ABAFBF0FA00FBA4
S214007DB00A302CF083F8E16A804620462BF0D1FC8E
S214007DC0A26A824200F00F81626CD9F80830511E18
S214007DD00B40216B2768891A0B442363089BE062DB
S214007DE0DF1BB7FBF2F7BA4540F0FA80059BB3EB12
S214007DF0080A12D0E36B4FEA9A0241469B699847FD
S214007E008346E36A059A5344E362236B03989B1AFE
S214007E10434423632BF0AAFEDA462368616CE06BCA
S214007E2001FB07312BF0BFFF20462BF0DDFB204681
S214007E302BF0DAFC2063BAF1000F00F0D480326930
S214007E40616CD31D1439B3FBF1F3013302EBC302AB
S214007E509042A5D2BFE00D9A002A77D1B8F1030F61
S214007E604FEA98026ED9E16B18468D690799109310
S214007E70A847109B0546C0B918F0030515D0079A09
S214007E8028F0030B02EB0B019B444FF0FF3215A8C2
S214007E9015922A46109312F097F8E26B58469569A9
S214007EA015A90122A8470546109B9B46079A4244FF
S214007EB00792002D40F08B80049B16A80193069B2A
S214007EC0009399F814204346316800F0CDFDE36B2B
S214007ED00F9A9B69039816A99847039A051E089B54
S214007EE018BF1346089343465246204603992BF084
S214007EF065FC236B08F10302A3EB0A0322F00302DE
S214007F009B1AC9F808002363002D7FF443AF0C9B2F
S214007F10A7EB080743440C93CDF80CB02046039912
S214007F202BF01FFC00250390002F7FF4B9AE364AD5
S214007F303168936804F10800E36252680B9B00F016
S214007F400BFD49E09B46454607999EE79B4606F192
S214007F5020021092F27D7068A2B1002296F818C036
S214007F600A99D5B2AC4511D9109D02F1010E35F82B
S214007F7032508D4228D90E9806EBC2020144D069D1
S214007F80084403E00E9A0A990A441044E26B15A9C5
S214007F90556901221193A847159A0A9B1392E26B22
S214007FA0043395695846012213A90A93A847119BE2
S214007FB0054603EB0802A2EB0B02042A7FF679AF14
S214007FC028B90BF1040BC5E77246491BC9E7CDF883
S214007FD020B088E770252F46384619B0BDE8F08FE8
S214007FE04FF0000A19E73269616CD31D1439B3FBF0
S214007FF0F1F3013302EBC302236B9342BFF404AEEA
S214008000E9E71C27E8E700BF84340020032A2DE9AF
S214008010F34106460D4617461C4606D1237A012B29
S21400802023D0012002B0BDE8F081DFF86080096847
S21400803042460DF10703FFF7ABF960600028EDD16B
S2140080409DF80720237A032AE8D0D8F804106A6837
S2140080509142E3D1012B2969D4F80CC007D172698B
S2140080600CEB0103934202D92074207CDAE7083136
S2140080706144E1603B46012229463046FFF7ACFDED
S21400808060600028CAD00020CCE700BFB0340020D3
S2140080902DE9F341089C032A1746266806D1237A61
S2140080A0012B24D0012002B0BDE8F081DFF89080DB
S2140080B0304642460DF10703FFF76AF96060002874
S2140080C0EDD12568D8F80400A96AD5F844C0484020
S2140080D0CCF100031840227AE1D1012A09D1E268E6
S2140080E0D8F8103013447269934202D92074207C69
S2140080F0D9E72868EB6A1B1A081AB3FBFCF3B0FB37
S214008100FCF083420BD1706CF36A421E1340326B54
S214008110121A1344284633632BF023FBE862D8F880
S2140081201020E36808321344E36001223B4604490A
S2140081302068FFF751FD60600028B0D00020B2E74D
S214008140B03400202DE9F0410025604B0E46D3F8F0
S214008150008004461D6018B921252846BDE8F08138
S21400816090F8347007B30A6803689A4240F0A38018
S2140081704A6843689A4240F09E808A6883689A42BA
S21400818040F09980CA68C3689A4240F094800A69B1
S21400819043699A4240F08F808A69C36B9A4240F0E6
S2140081A08A804B698361D8E768223946856B11F06F
S2140081B07BFDD6E90212336804F108002360736879
S2140081C0A5636360336963617369A3612BF0E0FCA8
S2140081D0B36904F14000E3639B68984720B9676C75
S2140081E017B16368B3FBF7F794F84330E761002BE9
S2140081F0B2D00023656C2366002D64D0002F62D0B9
S2140082002368B3FBF5F205FB1233002B55D16668E5
S214008210B6FBF5F305FB1363002B4ED120462BF07F
S214008220AFF9A369043303449E4248D340F6347240
S2140082306369CC3B934244D8B5F5805F43D30321B2
S21400824020462BF0C6F9D4E90001E36B1B6898477B
S2140082500546E36B0220DB689847CDB941462046C9
S214008260FFF77AF96428054604D141462046FFF711
S21400827073F90546666C5DB9236A2046143E5E4374
S2140082802BF07EF9A369043303449E4238BF5A2577
S214008290002D0CBF0123002384F8343007D1D4E925
S2140082A000010B4A1368013313602BF00BFDE06BE3
S2140082B02BF028FB51E75D254FE759254DE75A255A
S2140082C04BE75F2549E75B2547E700BF142E0020F4
S2140082D0102E00202DE9FF410C4616461F46054687
S2140082E080B390F834307BB3B1F5801F2ED2DFF820
S2140082F0608001212BF06DF92146424628460DF19B
S2140083000F03FFF745F8044670B99DF80F30012BB0
S21400831011D1D8F81030BB4212D102460090314637
S2140083202846FFF743FB0446E86B2BF0EBFA2046A3
S21400833004B0BDE8F081022B14BF2D246024F3E7BF
S2140083406324F1E72124F2E71124F0E72924EEE77D
S214008350DC3400202DE9F04385B00C4617461E4657
S2140083600546DDF8308098B390F8343093B3B1F515
S214008370801F31D2DFF8649001212BF02AF92146C4
S2140083804A4628460DF10F03FFF702F8044688B95F
S2140083909DF80F30012B14D1D9F8102006EB0803F6
S2140083A09A4213D300904346324639462846FFF792
S2140083B0FDFA0446E86B2BF0A5FA204605B0BDE8AA
S2140083C0F083022B14BF2D246024F3E76324F1E727
S2140083D02124F2E71124F0E72924EEE7DC3400201C
S2140083E073B50C461646054630B390F834302BB3BA
S2140083F0B1F5801F24D201212BF0EBF82146284648
S214008400104A0DF10703FEF7C3FF044680B99DF836
S2140084100730032B0CD0022B0CD1284609492BF031
S214008420CFFA3060E86B2BF06DFA204602B070BDD4
S2140084302D24F7E76124F5E72124F6E71124F4E775
S2140084402924F2E7DC3400202DE9F3411E46002300
S2140084500C4617460546336050B390F834304BB39D
S214008460B1F5801F28D2DFF8548001212BF0B1F837
S2140084702146424628460DF10703FEF789FF0446CB
S214008480A0B99DF80730032B10D0022B03BF0123A1
S2140084903B600423D8F8103018BF38603360E86BB0
S2140084A02BF030FA204602B0BDE8F0812D24F6E726
S2140084B02124F7E71124F5E72924F3E7DC3400202C
S2140084C073B50446056B2BF05BF8636E03449D4260
S2140084D02CBF00230123854294BF00252D1A207C43
S2140084E084F85030656584F85800A8B100230C4E17
S2140084F01A461946204600962BF026FB0023054612
S2140085001A461946204600962BF027FBE3682844B7
S214008510984294BF0020C01AE06502B070BD00BF4C
S214008520FFFF0F002DE9F3471E4643690446B3429A
S214008530884617469DF828904ED300258DF807509C
S21400854020462BF01DF8D4F830A082450AD2236AC4
S214008550B5EB430F06D2002220460DF10701FFF7C8
S21400856045F9B8B39DF80730012B05D10022204607
S2140085700DF10701FFF73AF9B9F1030F06D03146BE
S21400858020462AF0EDFF256B854227D3144D4FF089
S214008590FF31284600F0B2FA4B4629460022204614
S2140085A0C5E90376C5F80080FFF716FB236E05467F
S2140085B063B12046FFF784FF94F8503013B994F85F
S2140085C058301BB1236E04F150009847284602B07D
S2140085D0BDE8F0870135B3E76225F7E71C25F5E728
S2140085E0B03400202DE9FF410F4690461E46054652
S2140085F098B390F8343093B3B1F5801F31D21A4C4B
S21400860002212AF0E6FF2246394628460DF10F03DE
S214008610FEF7BEFE024678B1012342460093394675
S21400862033462846FFF77EFF0446E86B2BF06AF9D0
S214008630204604B0BDE8F0819DF80F30012BEBD149
S2140086402169B142E8D10093414633462846FFF7F8
S214008650ADF904460028DFD1E7E72124E8E7112436
S214008660E6E72924E4E700BFDC3400202DE9F047E4
S21400867090F8423086B0012B05460391A1EB020725
S21400868040F0AA80FF2F03D81E464FF0640807E08C
S2140086900226012B14BF4FF032084FF06408013653
S2140086A000244FF6FF79DFF844A195F84230012BFD
S2140086B014BF322364239C4202D35FFA88F40DE091
S2140086C005AB2246514628462BF058F995F842301D
S2140086D0012B059B34D14B452DD1E4B295F84230A1
S2140086E0012B14BF32226422121BB24217D3012E72
S2140086F039D10022012B05978DF8132027D10822A7
S21400870005A90DF113002BF0F5FB9DF81330059A23
S21400871042EA032221462846FFF730FA40B10223F8
S214008720324900932846CC23096803AAFFF7FAFECD
S21400873006B0BDE8F087DBB203B902340134B4E713
S214008740591CCAD09BB2002BF8D10134F6E7102290
S21400875005A90DF113002BF0CDFB9DF81330059AFB
S21400876042EA0342D6E7039A012B059223D1082357
S214008770202205A90DF113008DF813302BF0BAFB5B
S2140087809DF81320120221462846FFF7F7F995F8C0
S2140087904230611C012BC9B21AD10028BFD128462D
S2140087A0BDF81420FFF7EAF90028B8D10234BDF866
S2140087B01620E1B2AFE71023202205A90DF1130021
S2140087C08DF813302BF096FB9DF813201204DAE791
S2140087D00028A4D1059A9EE7B7F5803F4FF0010622
S2140087E0BFF457AF4FF032085AE700BFDC34002022
S2140087F070B586B00E4605460392A0B390F83430A6
S2140088009BB3B1F5801F32D202212AF0E2FE314638
S2140088102846184A0DF11703FEF7BAFD044618B9A4
S2140088209DF81730032B0ED10223314600932846BD
S214008830CC2303AAFFF776FE0446E86B2BF062F81B
S214008840204606B070BD022B0BD10A4928462BF0F5
S214008850B7F8039902468142EFD02846FFF706FF95
S214008860EAE76124E9E72124EAE71124E8E7292476
S214008870E6E700BFDC340020F7B50C461646054692
S21400888068B390F8343063B3B1F5801F2BD2022161
S2140088902AF09FFE21462846144A0DF10703FEF7EC
S2140088A077FDC0B99DF80730032B14D0022B14D1E6
S2140088B00E4928462BF084F8471C024639462846BF
S2140088C0FFF7D4FE044606B13760E86B2BF01AF8C3
S2140088D0204603B0F0BD2D24F7E76124F5E72124F8
S2140088E0F6E71124F4E72924F2E700BFDC34002081
S2140088F030B50C46054685B028B390F8343023B31F
S214008900B1F5801F23D202212AF063FE0DF10F037A
S214008910214628460F4AFEF73BFD034688B99DF8D8
S2140089200F20032A0DD00322214600920246284635
S214008930FFF7F8FD0446E86B2AF0E4FF204605B092
S21400894030BD2D24F7E72124F8E71124F6E7292483
S214008950F4E700BFDC3400202DE9F043466886B318
S214008960056898464FF0000CA946AE4655F83C40C0
S2140089700CF1010CC4F31307013401D0B94217D02F
S214008980B4450EF1080EF1D12F46002403E0B442A0
S21400899007F1080712D055F8343001340133F6D108
S2140089A0C1F3130141EA0851C7E90012BDE8F0839C
S2140089B041EA0851CEE90012BDE8F083B8F1030F92
S2140089C003D101230372BDE8F083002303E0B34222
S2140089D009F10809F5D055F833400133C4F30754BC
S2140089E0032CF4D1C1F3130343EA0853C9E9003258
S2140089F0BDE8F0832DE9F0410646406882B0B8B184
S214008A000F4690460024336853F8345003EBC403F3
S214008A10C5F30752C5F31301013506D05B6830462F
S214008A20CDF80080B84718B1706801348442EAD3A4
S214008A3002B0BDE8F08100BF024B1968024B18680F
S214008A40FFF780BB606000208060002008B534F02F
S214008A5040FF014B186008BD08350020014B186820
S214008A6034F032BF0835002073B504462248012A88
S214008A7000EAC1119DF8185023F07C4007D9961ED5
S214008A80012E28D9073303F07F03194308E09DF829
S214008A901C300A43DB0603F0C053134343F0604127
S214008AA00023C4E900108DF80730B5B12022214616
S214008AB00DF107002BF01EFA1A220DF10700211DFA
S214008AC02BF018FA082063689DF8072043EA8263B3
S214008AD0636002B070BD1143E2E71B220DF1070090
S214008AE021462BF007FA23689DF80720042043EA66
S214008AF0C2632360EDE700BF80FFFF0738B5094B70
S214008B000D461A680021044611F0CEF800234FF0F7
S214008B10FF322383C4E900252361A260E382A376A3
S214008B2038BD00BFE87804000138C0B205289ABFF7
S214008B30014B185C01207047ED7804002DE9F041E8
S214008B400746154600240E46596888B0490A01298A
S214008B5022464FEA510104F10104F8D8DC789978EE
S214008B6024031B88C90201F4006104F480540C43FA
S214008B70C3F30A035203234492B24FF000089C1832
S214008B80274B6FEA0444039325F07843ED4302A98C
S214008B900DF107001B2202938DF807802BF0AAF92F
S214008BA09DF80720029B02A943EAC2630DF1070065
S214008BB01B2225F07845049302958DF807802BF04C
S214008BC099F99DF80720029B6FEA144443EAC263B2
S214008BD005934FF0FF330794069307A9BB6901225C
S214008BE006F110009847BB6905A90446012206F164
S214008BF008009847BB69404518BF044604A90122EF
S214008C00301D98470122404518BF0446BB693046D0
S214008C1003A99847404508BF204608B0BDE8F08144
S214008C2001009AB238B5104B0546D3F800310C4611
S214008C3003F00303022B0BD0032B0DD0012B0FD117
S214008C4032F020FF032305B1286004B1236038BD4D
S214008C5032F062FF0723F6E734F04EFE0623F2E713
S214008C6001230020EFE700BF0080005038B5134B0B
S214008C700546D3F820010C4600F0070004281AD851
S214008C80DFE800F003090D111500012305B1286087
S214008C9004B1236038BD32F0BBFE0423F6E732F0A1
S214008CA0F1FE0323F2E732F0F3FE0523EEE732F09F
S214008CB0E5FE0223EAE700231846E7E700800050B7
S214008CC038B5104B0546D3F840310C4603F0030385
S214008CD0022B0BD0032B0DD0012B0FD134F00EFE40
S214008CE0082305B1286004B1236038BD32F014FFB4
S214008CF00723F6E734F005FE0923F2E701230020F8
S214008D00EFE700BF0080005038B5104B0546D3F89B
S214008D1060310C4603F00303022B0BD0032B0DD05F
S214008D20012B0FD134F0EAFD082305B1286004B109
S214008D30236038BD32F0F0FE0723F6E734F0E1FD9D
S214008D400923F2E701230020EFE700BF0080005070
S214008D5041F6713210B5104C104BA04294BF00245F
S214008D600124D969DA639A6801F4803122F440124A
S214008D7042EA04529A600A4A90420A4AD2F8180214
S214008D808CBF40F0020020F00200C2F8180209B1C1
S214008D900022DA6310BD00BF005A620200000350D2
S214008DA080F0FA0200C007502E4B98424AD022D8D4
S214008DB02D4B984240D014D82C4B984239D00AD824
S214008DC02B4B984232D02B4B98422FD02A4B9842AE
S214008DD02CD000207047294B9842FAD1284B186FA8
S214008DE07047284B98422AD0274B9842F1D1244B03
S214008DF0D3F880007047254B98422BD009D8244BD7
S214008E00984223D0234B9842E3D11D4BD3F88C00D5
S214008E107047214B984221D003F5740303F5105395
S214008E209842D6D1164BD3F898007047144B986DDD
S214008E307047134B586E7047114B586F7047104B66
S214008E40986F70470E4BD3F8840070470C4BD3F8DE
S214008E50880070470A4BD3F890007047084BD3F849
S214008E60940070470048E8010024F400C0CF6A0070
S214008E7080841E0000093D0040420F00405DC60091
S214008E800080E00FC0EA210180BA8C01007E560304
S214008E9080D54302006CDC020090D00337B50C4648
S214008EA00021114B0191D3F88031054603F00303EE
S214008EB0022B0ED0032B11D0012B03D101A8FFF7F4
S214008EC0D5FE0D210DB1019B2B6004B1216003B0CE
S214008ED030BD32F0DDFD05210190F3E732F0CEFD26
S214008EE002210190EEE700BF0080005038B5104B1D
S214008EF00546D3F840320C4603F00303022B0BD092
S214008F00032B0DD0012B0FD134F0F8FC082305B14C
S214008F10286004B1236038BD32F0FEFD0723F6E773
S214008F2034F0EFFC0923F2E700231846EFE700BF12
S214008F300080005038B5144B0546D3F800020C46A6
S214008F4000F0070004281BD8DFE800F003090D1125
S214008F501500012305B1286004B1236038BD34F044
S214008F60CDFC0823F6E732F0D7FD0723F2E734F00E
S214008F70C8FC0923EEE732F06BFD0C23800AE9E714
S214008F8000231846E6E700BF0080005038B5144BB3
S214008F900546D3F808020C4600F0070004281BD844
S214008FA0DFE800F003090D111500012305B1286064
S214008FB004B1236038BD34F0A1FC0823F6E732F094
S214008FC0ABFD0723F2E734F09CFC0923EEE732F012
S214008FD03FFD0C23800AE9E700231846E6E700BFBA
S214008FE000800050032814D005D8012805D0022898
S214008FF009D0002005E00F28FBD1084B186FC0F3FE
S214009000013001307047054BD3F89000C0F3046080
S214009010F7E7024B186FC0F38020F2E7008000509D
S2140090201FB500230193252817D8DFE800F0131A90
S2140090301D272C363B51565B60656A78161A40161B
S21400904016561A272C27361A5127783B3B3B3B27C8
S21400905027275B6032F0E2FC0190019805B05DF8CE
S21400906004FB32F0F5FCF7E732F0D8FC02460220AB
S214009070FFF7B8FFB2FBF0F20192EEE732F0E8FC41
S21400908002460320F4E732F0E3FC02460320FFF733
S214009090A9FFB2FBF0F25208EEE7002101A8FFF7A5
S2140090A0FDFEDAE7002101A8FFF7E0FDD5E7029311
S2140090B04FF0E0231B695B0705D532F0C9FC029030
S2140090C0029B0193C9E703A902A8FFF7F9FDF7E79A
S2140090D0002101A8FFF7F4FDBFE7002101A8FFF774
S2140090E013FEBAE7002101A8FFF724FFB5E7002129
S2140090F001A8FFF74BFFB0E7002101A8FFF792FD9C
S214009100ABE7094BD3F8803003F00303022BA8D05B
S214009110032B01D000209FE732F0BAFC9CE7002129
S21400912001A8FFF7E3FE98E70080005008B501208D
S214009130FFF776FFBDE808400349884294BF012147
S2140091400221032000F002B880F0FA02032810B5CE
S2140091500C4627D004D8012804D0022817D010BD0A
S2140091600F28FCD12AF0E4FE2AF0EAFE124A013C5F
S214009170136F23F4405343EA0433136732F068FC5A
S2140091800021FFF7E5FDBDE81040FFF7CFBF0A4A14
S2140091904C1ED2F8903023F0F85343EA0463C2F82A
S2140091A09030DCE7044A4C1E136F23F4806343EAD6
S2140091B084231367D3E700BF008000501FB5002349
S2140091C00193252821D8DFE800F013202020202A4C
S2140091D02F454A4F54595E7120203420204A2020C3
S2140091E020202A204520712F2F2F2F2020204F545B
S2140091F0314B1B6F03F00703013B032B05D8DFE859
S21400920003F00C02080A04230193019805B05DF8E8
S21400921004FB0323F8E70623F6E70223F4E700201F
S21400922001A9FFF73BFEF0E7002001A9FFF71EFDAE
S214009230EBE702934FF0E0231B695B0705D532F09E
S21400924007FC0B230393039BDEE703A902A8FFF7A3
S21400925037FDF8E7002001A9FFF732FDD5E700202B
S21400926001A9FFF751FDD0E7002001A9FFF762FE34
S214009270CBE7002001A9FFF789FEC6E7002001A979
S214009280FFF7D0FCC1E70C4BD3F8803003F00303A4
S214009290022B03D0032B05D00023B5E732F0D8FB12
S2140092A00B23B1E732F0F4FB0523ADE7002001A95C
S2140092B0FFF71CFEA9E700BF0080005008B503209A
S2140092C0FFF790FE034B18702AF032FEBDE8084008
S2140092D02AF036BE4456002010B5044632F0B8FBDD
S2140092E00021FFF735FD1CB1BDE81040FFF71EBF9B
S2140092F0034B0320BDE810401978FFF727BF00BFD7
S2140093004456002038B50546FFF74EFD204B044670
S2140093105A68012A04D11F494A609A699207FCD10B
S2140093200020FFF74BFF042803D12AF001FE2AF0A5
S21400933007FE194A24F0407395421FD0174A9542FB
S2140093401FD0174AD16811F0060FFBD190689360C2
S21400935091684B4013F4F81F16D12846FDF766FDBA
S2140093600020FFF72BFF042810D132F071FB0021FC
S214009370FFF7EEFCBDE83840FFF7D8BE43F00073B9
S214009380DFE743F08073DCE79060E9E738BD00BFB5
S21400939000C0015000E0015040420F0080841E00D3
S2140093A00000015070B504460020FFF707FF0328B1
S2140093B07CD045F60E030221414AC2F88030414B6C
S2140093C09962012103F580539962936DD903FCD409
S2140093D0D4E900131B0543EA0163E17B94F82350AC
S2140093E00B43217B43EA0143617B43EA0133A17BC4
S2140093F043EA811313619169D4E904031B0643EA27
S214009400806301F000410B43A17EE07E0B43217E8A
S21400941043EA0143617E43EA01239361E169136AEB
S214009420002923F00D0343EA010314BF01210021A4
S21400943043EA800343EAC103136294F8203094F8A9
S2140094402200916A4FEA431331D194F8216021F04B
S214009450330143EA06130B4343F0010393621A49B0
S214009460174A936D31EA0303FBD10221154B99622B
S214009470936D5B00FCD41369A16823F4700343EA80
S214009480015313614FF000420E4B9A6118B9022245
S21400949003F580539A6215B901220C4B9A6294F830
S2140094A024301BB1064B0A4AC3F8802070BD21F059
S2140094B0330129430B4343EA40039362EFE700BFBF
S2140094C000C0005000D000500300014000E00050F3
S2140094D0F1A7FFFF014B93F90000704745560020A7
S2140094E0014B1880704700BFA86500200C4A10B5D5
S2140094F01369044643F00403136132F019FE2AF0A0
S21400950023FD084B084AC3F8202430BF2AF01DFD6F
S21400951001F0E2FE1CB9BDE8104032F099BA10BD69
S21400952000ED00E000E003500000FFFF034A017971
S214009530D36E23F030030B43D366704700400050D1
S21400954041F67132034BDA63012203F50053DA6009
S214009550704700BF0000035041F671320121044BF2
S214009560DA6303F50052D1600022DA63704700BF69
S21400957000000350044B1868421C02BF034AD2F88E
S21400958094001860704700BF8460002000400050C0
S214009590CB784A7810B55B010C7843EA82030A79E7
S2140095A0234343EA02130C22424302F1B042136300
S2140095B0012C02BF8A78024B43F8202010BD00BF62
S2140095C0D080035008B54FF0B0435A6802B960B176
S2140095D05B680BB12AF0C2FC4FF0B04130B10120FD
S2140095E0074B58602AF0BAFCC86008BD2AF0B6FCE3
S2140095F00223CB602AF0B2FC0122024B5A60F4E749
S21400960000100058002000584FF0B0414B6810B5CD
S2140096100BB12AF0A3FC01220B4BC4785A60837866
S214009620934043EA840344782343047943EA0413CB
S214009630447943EAC4038B60044B5A600378C3F151
S2140096400203CB6010BD00BF002000580010005879
S214009650054B5B69C3F38512827003F03F021B0B58
S21400966042700370704700BF00C007500120034BD4
S2140096709B680A3303F01F03984070470080E00F92
S214009680034BD3F82424D3F820041040704700BFBF
S21400969000C003502DE9F8431E4B0546D3F810339F
S2140096A04B1E0E2B0E46174690F8009044781DD998
S2140096B009B34FF000082846D7B134F025F909EB76
S2140096C04903072C4FF00F014FEA031315D8A400E7
S2140096D0114808FA04F2A14018442AF047FCBEB923
S2140096E028468FB1BDE8F84334F00EB98846E2E765
S2140096F02AF04BFCE3E78846E1E7083CA40007486D
S21400970008FA04F2A140E7E7BDE8F8432AF03DBCBA
S214009710BDE8F88300C0035004C003500CC00350DB
S2140097202DE9F041204B1646D3F810234A1C054677
S2140097300C46407804D1D3F824142AF034FC0446AE
S214009740002C2EDB072C14DC03274FEA84082A782B
S21400975007FA08F73946154802FA08F22AF006FC16
S2140097606A78394602F00302114802FA08F22AF033
S214009770FDFB012316F0050F0E4A18BF0E4903FA2B
S21400978004F30CBFC2F81034C1F8103416F0060FFC
S21400979018BF094AC2F814340123064AA340C2F887
S2140097A020342046BDE8F08100C0035000C40350BA
S2140097B008C4035000E0035000D0035070B50446C0
S2140097C02FF046F8064630B90FCC044D0FC594E886
S2140097D00F0085E80F00304670BD00BF0C35002036
S2140097E047F6FF739A42F0B570D0022970D8394B0D
S2140097F05B5C022B6CD8384DDE0005EBC304A77803
S21400980015F83330012F394638BF0121012B16D108
S214009810E078401A0021884205D8012F2CBFC019D5
S2140098200130C0B2F0BD431A6568A0EB530335F9AA
S21400983013509542D4BF194603F1FF30EBE760683A
S2140098400028EFD0B0F90040944204DBB0F90240A3
S2140098509442B8BF144683883544FF2B19BFC823EB
S2140098602827B0F90630B0F90870A3EB04030CBF44
S2140098700122002293FBF7F36E7813441BB29E423C
S21400988001DD002B01DA731E1BB24FF47A7C00EB6D
S214009890C305EA88AD685F1C14FB02521D4622EA27
S2140098A0E2723BB25C329E42B2FBFCF204DD00EB9D
S2140098B0C307BF889742EAD200EBC5039888904258
